:020000040000FA
:100000000C9422020C9453020C9453020C9453024D
:100010000C9453020C9453020C9453020C9453020C
:100020000C9453020C9453020C9453020C945302FC
:100030000C9453020C9453020C9453020C945302EC
:100040000C9453020C9453020C9453020C945302DC
:100050000C9453020C9453020C9453020C94944B42
:100060000C9453020C945E4B0C94344B0C9453023E
:100070000C9453020C9453020C9453020C945302AC
:100080000C9453020C9453020C9453020C9453029C
:100090000C9453020C9453020C9453020C94DE4BB8
:1000A0000C9453020C9453020C9453020C9453027C
:1000B0000C9453020C9453020C9453020C9453026C
:1000C0000C9453020C9453020C9453020C9453025C
:1000D0000C9453020C9453020C9453020C9453024C
:1000E0000C9453020C9455020C94B11A0C940C0409
:1000F0000C94D91A0C940B030C94A21A0C94F109C9
:100100000C94BF350C94021F0C948E1A0C94CD03E2
:100110000C94C51A0C94AD340C94EE120C94431F3D
:100120000C94D5030C94B1310C943C370C94841A84
:100130000C94051F0C948F310C941F230C94511AAE
:100140000C943B280C94EC070C94DB090C940704EA
:100150000C9458030C94A53C0C94FA030C94741A58
:100160000C94C2070C94EC030C9463310C94E203DE
:100170000C94933B0C9417380C94DB200C94F21ED7
:100180000C94CA2E0C94D1030C94481A0C941D3470
:100190000C94FE030C941C470C94C5020C940F1590
:1001A0000C943F3C0C940F330C94DC030C94E0361D
:1001B0000C947F050C94A3140C94B1020C94FB14C2
:1001C0000C94BB1A0C94361B0C94A2020C94953A16
:1001D0000C9497360C94EA310C94601A0C94E21843
:1001E0000C94CB240C94FF140C94F0030C94251263
:1001F0000C94154D0C9432340C94F61E0C9472270A
:100200000C9490240C9408040C94F7140C94132868
:100210000C9419080C94CF1A0C9492340C94C307C4
:100220000C94C5090C94E5070C94561A0C944831AB
:100230000C94D2070C945F050C948B220C944947C4
:100240000C947C1A0C94735F0C94D3020C94E60308
:100250000C94E4220C94C33B0C9407280C94981A39
:100260000C946C020C944C250C943A350C941B1293
:100270000C9475020C94C0140C9402040C94001F8E
:100280000C948F050C94083B0C94FC090C94D92E0B
:100290000C94B6360C94F4030C9456370C94251A2F
:1002A0000C9422270C9459020C94C1070C946A3CBC
:1002B0000C9492140C94D9030C9483120C94C703DD
:1002C0000C94431B0C946A1A0000200023002600A3
:1002D00029002C002F00320000010000030106015C
:1002E0000901CDCCCC3D0AD7233C17B7D13877CC08
:1002F0002B329595E6241FB14F0A0000803FCDCCEC
:10030000CC3D6F12833A95BFD6337D1D9026B3CE78
:10031000010C000020410000C84200401C4620BCE7
:10032000BE4CCA1B0E5AAEC59D747C3C3E5E2B3D36
:100330003F2F5B5D3B2C2A225C0000002100240043
:1003400027002A002D0030003300010100000401C5
:1003500007010A0100002200250028002B002E00C2
:100360003100340002010000050108010B01050500
:100370000505070508080808020202020A0A08081B
:100380000404040401010101010101010303030349
:1003900003030303040707070C0C0C0C0C0C0C0CD8
:1003A0000202020206060606060606060B0B0B0BE9
:1003B0000B0B0B0B0102102020080810204010200E
:1003C0004080020102010804020101020408102019
:1003D0004080804020100804020180040201804017
:1003E0002010080402010804020101020408102080
:1003F0004080010204081020408000000A0B02091E
:100400000C0D0E08070304010000000000000000AE
:1004100000000000000000000000000000000000DC
:100420000000000000001211100000000000000099
:1004300000000000000000000000000000000000BC
:10044000154D735F11241FBECFEFD1E2DEBFCDBFCC
:1004500000E00CBF18E0A0E0B2E0EEE9FBEC00E049
:100460000BBF02C007900D92A637B107D9F72DE058
:10047000A6E7B8E001C01D92A236B207E1F712E08C
:10048000C1E2D2E000E006C021970109802FFE0101
:100490000E945363C032D10780E00807A9F70E9489
:1004A000C44D0C94BD650C940000FC01818D928DAF
:1004B0000895089520E3FC0120833296862F8295CB
:1004C0008F706F706A3030F4605D6293682F8111B5
:1004D000F5CF0895695CF9CF08950895DC01ED9199
:1004E000FC910190F081E02D1994AF92BF92CF92D0
:1004F000DF92EF92FF920F931F93CF93DF936C01E4
:100500007B018B01040F151FEB015E01AE18BF08C4
:10051000C017D10759F06991D601ED91FC91019076
:10052000F081E02DC6011995892B79F7C501DF917E
:10053000CF911F910F91FF90EF90DF90CF90BF90E0
:10054000AF900895FC01538D448D252F30E0842F0A
:1005500090E0821B930B541710F0CF9608950197EB
:100560000895FC01918D828D981761F0A28DAE0FD8
:10057000BF2FB11D5D968C91928D9F5F9F73928F5F
:1005800090E008958FEF9FEF0895FC01918D828D8B
:10059000981731F0828DE80FF11D858D90E0089558
:1005A0008FEF9FEF0895FC01918D228D892F90E0B0
:1005B000805C9F4F821B91098F739927089588EF64
:1005C0009BE00E94D30221E0892B09F420E0822FD6
:1005D0000895FC01A48DA80FB92FB11DA35ABF4FD8
:1005E0002C91848D90E001968F739927848FA68932
:1005F000B7892C93A089B1898C91837080648C9386
:10060000938D848D981306C00288F389E02D808134
:100610008F7D80830895EF92FF920F931F93CF9366
:10062000DF93EC0181E0888F9B8D8C8D98131AC02D
:10063000E889F989808185FF15C09FB7F894EE8914
:10064000FF896083E889F989808183708064808371
:100650009FBF81E090E0DF91CF911F910F91FF90BC
:10066000EF900895F62E0B8D10E00F5F1F4F0F7364
:100670001127E02E8C8D8E110CC00FB607FCFACF1F
:10068000E889F989808185FFF5CFCE010E94E902D2
:10069000F1CFEB8DEC0FFD2FF11DE35AFF4FF082F0
:1006A0009FB7F8940B8FEA89FB8980818062CFCF56
:1006B000CF93DF93EC01888D8823B9F0AA89BB8999
:1006C000E889F9898C9185FD03C0808186FD0DC084
:1006D0000FB607FCF7CF8C9185FFF2CF808185FFA5
:1006E000EDCFCE010E94E902E9CFDF91CF910895CD
:1006F00080E090E0892B29F00E94DF0281110E94A6
:10070000000080E090E0892B49F080E090E0892BA8
:1007100029F00E94000081110E94000080E090E01A
:10072000892B49F080E090E0892B29F00E9400009D
:1007300081110E94000080E090E0892B49F080E068
:1007400090E0892B29F00E94000081110C94000098
:1007500008958150823108F05AC0E82FF0E08827D0
:10076000EB54FC4F8F4F0C945363D503D903C7034D
:10077000CD03D1030704DC03E203E603EC03F0033B
:10078000F403FA03FE030704020408040C04809136
:1007900080008F77809380000895809180008F7D06
:1007A000F9CF80918000877FF5CF84B58F7784BDA6
:1007B000089584B58F7DFBCF8091B0008F778093B3
:1007C000B00008958091B0008F7DF9CF80919000A6
:1007D0008F77809390000895809190008F7DF9CF5E
:1007E00080919000877FF5CF8091A0008F778093D4
:1007F000A00008958091A0008F7DF9CF8091A00086
:10080000877FF5CF809120018F7780932001089515
:10081000809120018F7DF9CF80912001877FF5CFD6
:100820001F93CF93DF93282F30E0F901E650FC4F60
:100830008491F901EC54FC4FD491F901E259FC4F39
:10084000C491CC23A9F0162F81110E94A903EC2F8B
:10085000F0E0EE0FFF1FEC5AFC4FA591B4918FB75B
:10086000F894EC91111108C0D095DE23DC938FBF72
:10087000DF91CF911F910895DE2BF8CFCF93DF93B7
:1008800090E0FC01EC54FC4F249182599C4FFC01F8
:1008900084918823C9F090E0880F991FFC01E65CE1
:1008A000FC4FA591B491FC01EC5AFC4FC591D49139
:1008B00061110DC09FB7F8948C91209582238C9381
:1008C0008881282328839FBFDF91CF9108956230CC
:1008D00051F49FB7F8943C91822F809583238C9399
:1008E000E8812E2BEFCF8FB7F894EC912E2B2C9321
:1008F0008FBFEACF3FB7F8948091CF089091D0088E
:10090000A091D108B091D20826B5A89B05C02F3F71
:1009100019F00196A11DB11D3FBFBA2FA92F982F25
:100920008827BC01CD01620F711D811D911D42E020
:10093000660F771F881F991F4A95D1F708958F92E8
:100940009F92AF92BF92CF92DF92EF92FF924B01B4
:100950005C010E947A046B017C010E947A046C198C
:100960007D098E099F09683E734081059105A8F3B2
:1009700021E0821A9108A108B10888EEC80E83E030
:10098000D81EE11CF11C81149104A104B10429F7C3
:10099000FF90EF90DF90CF90BF90AF909F908F909F
:1009A00008952FB7F8946091CB087091CC0880918E
:1009B000CD089091CE082FBF08950F931F930E94EA
:1009C000D1046093000C7093010C8093020C9093FF
:1009D000030C88EF9BE00E94B10297FF1DC00E94AC
:1009E000D1040091000C1091010C2091020C309167
:1009F000030C601B710B820B930B0091FC0B10918D
:100A0000FD0B2091FE0B3091FF0B601771078207E1
:100A10009307F8F28FEF9FEF1F910F910895FC015C
:100A2000DB0112968D919C9113979383828385EFBE
:100A300092E09183808314968C9114978483159609
:100A40008C911597858316964D915D916D917C9152
:100A5000199746835783608771871A964D915D91E8
:100A60006D917C911D9742875387648775871E9689
:100A70004D915D916D917C91519746875787608B21
:100A8000718B52968C915297828B53964D915D91BA
:100A90006D917C915697438B548B658B768B5796D3
:100AA0004D915D916D917C915A97478B508F618FDD
:100AB000728F5B968D919C91948F838F0895DC014A
:100AC0005996ED91FC913097B9F083899489A58965
:100AD000B6894285538564857585841B950BA60B65
:100AE000B70B811520E89207A105B10538F08FEF0B
:100AF0009FE7A0E0B0E0089590E080E00895DC0179
:100B000059968D919C91009739F0DC01ED91FC9103
:100B10000480F581E02D199490E080E00895CF9352
:100B2000DF931F92CDB7DEB76983DC01ED91FC91B5
:100B30000280F381E02D41E050E0BE016F5F7F4F06
:100B400019950F90DF91CF91089520919F08260F5E
:100B50003327331F21323105ECF42091CC09FC01FD
:100B600090E080E0243069F082E00895A0919F0831
:100B70002191AC014358574FA40FB52FB11D2C93B1
:100B80000196861798F380919F08680F60939F08DD
:100B900080E0089581E008951092CC0981E080936F
:100BA000CB091092A60961E084E10E94100461E083
:100BB00085E10E941004E9EBF0E080818E7F808364
:100BC00080818D7F808388E48093B80085E4809362
:100BD000BC000895CF93DF9391E090937C08882325
:100BE000B9F0C091B800D091BA008091BC008A7B66
:100BF0008093BC0060E084E10E94100460E085E125
:100C00000E9410040E94CC05D093BA00C093B80093
:100C1000DF91CF910895CF92DF92EF92FF920F93E1
:100C20001F93CF93DF93D091F50981E0D13208F083
:100C30009CC0C091F4090E947A046B017C018091F0
:100C4000CC0981116CC082E08093CC0981E0809353
:100C5000CB098FEF8093CA091092C909D093C809B4
:100C6000A4EDB9E0E8EAF9E080E0D8138DC0109275
:100C7000A7098091A709CC0FC82BC093A709809121
:100C8000A609813009F084C01092A6090E947A0456
:100C90006B017C018091A7098093BB008091CE09F4
:100CA0009091CF09A091D009B091D109892B8A2BBD
:100CB0008B2BA1F00E947A040091CE091091CF09EC
:100CC0002091D0093091D1096C197D098E099F09B5
:100CD000061717072807390708F442C08091BC009F
:100CE00083FDD8CF85EC8093BC000E947A046B0111
:100CF0007C018091CC09823009F44CC08091CA09F2
:100D00008F3F09F469C08091CA09803209F466C036
:100D10008091CA09803309F463C084E026C08091C1
:100D2000CE099091CF09A091D009B091D109892B1A
:100D30008A2B8B2B09F483CF0E947A040091CE0971
:100D40001091CF092091D0093091D1096C197D09FA
:100D50008E099F09061717072807390708F06FCF74
:100D60008091CD090E94EA0585E01092D309109286
:100D7000F5091092D209DF91CF911F910F91FF9049
:100D8000EF90DF90CF9008959D9191938F5F6DCFFD
:100D900085EEA9CF8091CE099091CF09A091D0097D
:100DA000B091D109892B8A2B8B2B09F4A2CF0E94F9
:100DB0007A040091CE091091CF092091D009309189
:100DC000D1096C197D098E099F0906171707280795
:100DD000390708F08ECFC4CF80E0C7CF82E0C5CFFF
:100DE00083E0C3CFCF92DF92EF92FF920F931F93D6
:100DF000CF93DF93D82FC62F613208F098C00E949E
:100E00007A046B017C018091CC0981116BC081E077
:100E10008093CC098093CB099FEF9093CA091092DD
:100E2000C9099C0F9093C8098093A7098091A709CD
:100E3000DD0FD82BD093A7098091A609813009F046
:100E400078C01092A6090E947A046B017C018091FF
:100E5000A7098093BB008091CE099091CF09A09102
:100E6000D009B091D109892B8A2B8B2BA1F00E943C
:100E70007A040091CE091091CF092091D0093091C8
:100E8000D1096C197D098E099F09061717072807D4
:100E9000390708F448C08091BC0083FDD8CF85ECA9
:100EA0008093BC000E947A046B017C018091CC0984
:100EB000813009F440C08091C9098C1710F4C091A9
:100EC000C909E8EAF9E0A6E8B9E080E08C1355C06A
:100ED0008C2FDF91CF911F910F91FF90EF90DF90BA
:100EE000CF9008958091CE099091CF09A091D0091B
:100EF000B091D109892B8A2B8B2B09F484CF0E94C6
:100F00007A040091CE091091CF092091D009309137
:100F1000D1096C197D098E099F0906171707280743
:100F2000390708F070CF8091CD090E94EA05C0E032
:100F3000CFCF85EEB5CF8091CE099091CF09A0910A
:100F4000D009B091D109892B8A2B8B2B09F4AECF14
:100F50000E947A040091CE091091CF092091D00906
:100F60003091D1096C197D098E099F090617170761
:100F70002807390708F09ACFD6CF91919D938F5FBC
:100F8000A5CF08950895E0913C0980913B09E817A9
:100F900030F4F0E0EA57F64F808190E008958FEF4B
:100FA0009FEF089590913C0980913B092FEF3FEF0F
:100FB000981748F4E92FF0E0EA57F64F208130E027
:100FC0009F5F90933C09C901089580913B099091DE
:100FD0003C09891B990B0895CF92DF92EF92FF9203
:100FE0000F931F93CF93DF937C01CB018A01209154
:100FF000D209222389F0EB016B01C40ED51ECC155A
:10100000DD0569F06991D701ED91FC910190F081C6
:10101000E02DC7011995F3CF642F0E94A505C801E3
:10102000DF91CF911F910F91FF90EF90DF90CF90C4
:101030000895CF93DF931F92CDB7DEB769832091D8
:10104000D2092223F9F02091F509203258F021E04D
:1010500030E0FC013383228390E080E00F90DF9149
:10106000CF9108958091D309E82FF0E0EC52F64F2C
:10107000998190838F5F8093D3098093F50981E0F4
:1010800090E0ECCF61E0CE0101960E94A505F7CF7C
:10109000FC0120812EBD9B012150310941F051817D
:1010A0000DB407FEFDCF4EB55EBD4193F5CF615047
:1010B0007109860F971F0DB407FEFDCF2EB5FC01F9
:1010C00020830895E0917808F091790880819091CB
:1010D0007708892B80830895E0917808F09179084A
:1010E00090818091770880958923808308958EBDB3
:1010F00000000DB407FEFDCF8EB508958FEF0C9460
:1011000077080F931F93CF93DF93EC010E94D104D4
:101110008B010E947E088F3F69F00E94D104601B02
:10112000710B6C177D07A8F380E0DF91CF911F91C1
:101130000F91089581E0F9CFAF92BF92CF92DF92E5
:10114000EF92FF920F931F93CF93DF9300D000D0C5
:101150001F921F92CDB7DEB78C017B016A0180918F
:1011600085098333E1F45801A40EB51EA016B1061B
:1011700009F46FC00E946C0880EF0E947708812FED
:101180000E947708802F0E9477080F5F1F4FF7019A
:1011900081917F010E9477080E946208E7CF5B017E
:1011A000A40EB51E8433C1F40E946C0819830A830F
:1011B0008D2D80688B83CC8264E070E0CE01019637
:1011C0000E944808AE14BF0409F441C0F7018191A0
:1011D0007F010E947708F6CF0E946C080F3F11052F
:1011E00009F028F419820A8384E08B830CC017FD70
:1011F00017C019820A8333E0169507953A95E1F7EF
:10120000007E0C600B8386E0C816D104A0F5F701C0
:10121000DE011496EA15FB0599F081918D93FACFC2
:10122000C80126E0969587952A95E1F7807E198377
:101230000A830115104C10F48461D7CF8C61D5CF8F
:10124000B6016D5F7F4FCE0101960E9448080E9453
:101250006208C60128960FB6F894DEBF0FBECDBF58
:10126000DF91CF911F910F91FF90EF90DF90CF9082
:10127000BF90AF90089563E070E0CE0101960E94A8
:101280004808F70181917F010E947708AE14BF04DE
:10129000C1F7DDCFCF93DF931F92CDB7DEB7898340
:1012A00041E050E0BE016F5F7F4F90E080E00E9420
:1012B0009C080F90DF91CF91089590E020918509CF
:1012C000233339F40C96982F990F990F990F80E0DA
:1012D00008954896F8CFDA01E0917A08F0E0FE2F01
:1012E000EE27E60FF71F90E0982F8827A901BD0190
:1012F0008E0F9F1F0C949C08CF93DF931F921F9219
:10130000CDB7DEB779836A8322E030E0AE014F5F6C
:101310005F4F60E170E00E946B090F900F90DF91CA
:10132000CF910895CF93DF931F921F92CDB7DEB771
:1013300079836A8322E030E0AE014F5F5F4F64E063
:1013400070E00E946B090F900F90DF91CF9108958C
:10135000CF93DF931F92CDB7DEB720917A0830E0AC
:10136000322F2227260F371F90E0982F8827498396
:1013700041E050E0BE016F5F7F4F820F931F0E94DC
:101380009C080F90DF91CF910895CF93DF931F9228
:10139000CDB7DEB76983DC01ED91FC910280F3816A
:1013A000E02D41E050E0BE016F5F7F4F19950F9037
:1013B000DF91CF910895CF93DF931F92CDB7DEB722
:1013C0006983DC01ED91FC910280F381E02D41E025
:1013D00050E0BE016F5F7F4F19950F90DF91CF9165
:1013E0000895FC019485FB018485981303C081E076
:1013F000983008F080E00895CF93DF931F92CDB727
:10140000DEB76983DC01ED91FC910280F381E02D70
:1014100041E050E0BE016F5F7F4F19950F90DF9163
:10142000CF91089544E050E0BC018FE090E00C942F
:101430009C08089561E0FC0184810E941004809161
:10144000C40881111092C40808958CBD9DBD0895F3
:10145000CF93DF93EC018091C408811109C081E032
:101460008093C4088091950C9091960C0E94250A57
:1014700060E08C81DF91CF910C9410048F929F9249
:10148000AF92BF92FF920F931F93CF93DF93EC0124
:10149000F62E49015A018E81882389F08F81988523
:1014A0009C012F5F3F4F38872F838230924018F482
:1014B0000E947E08F3CFCE010E941A0A1E82CE013E
:1014C0000E94280A8CE291E00E9481088F2D80649E
:1014D0000E94770808E110E0D501C401002E04C085
:1014E000B695A795979587950A94D2F70E947708A5
:1014F00008501109083F8FEF180771F785E9FF20A1
:1015000021F028E087E8F2128FEF0E94770810E0C0
:101510000E947E088A8787FF04C01F3F11F01F5F6B
:10152000F7CFDF91CF911F910F91FF90BF90AF90B8
:101530009F908F900895AF92BF92CF92DF92EF92DB
:10154000FF920F931F93CF93DF93EC016901C801C2
:10155000820F931F8130924050F58E81882379F05D
:1015600088819981AA81BB8184179507A607B7074F
:1015700031F48F819885C816D90608F042C0488397
:1015800059836A837B838B85833039F089E0440FEC
:10159000551F661F771F8A95D1F79A01AB0161E14C
:1015A000CE010E943E0A882389F083E08D83CE011C
:1015B0000E941A0A80E0DF91CF911F910F91FF9056
:1015C000EF90DF90CF90BF90AF9008950E94D1042C
:1015D0005B010E947E088A878F3F69F40E94D104D4
:1015E0006A197B096D327140A0F38FE08D83CE01C3
:1015F0000E941A0ADCCF8E3F89F418861F8281E090
:101600008E838F8198858C159D0550F40E947E08ED
:101610008F819885019698878F83F3CF8DE0E6CFF1
:101620006701E00EF11E0E947E08F60181936F01B2
:10163000EE15FF05C1F78F819885080F191F1887D0
:101640000F838985882319F001151240A0F08E813F
:10165000882389F08F8198859C012F5F3F4F3887C1
:101660002F838230924018F40E947E08F3CFCE017F
:101670000E941A0A1E8281E09ECFCF92DF92EF92E3
:10168000FF920F93CF93DF93EC01690182E1411543
:1016900051056105710599F08B85833039F089E03A
:1016A000440F551F661F771F8A95D1F79A01AB012A
:1016B00068E1CE010E943E0A882319F084E08D8300
:1016C0002DC08EEF0E94770876018EEFD81AF701B1
:1016D00081917F010E947708EC14FD04C1F78FEF20
:1016E0000E9477088FEF0E9477080E947E088A8701
:1016F0008F71853071F4011116C0CE010E941A0A53
:1017000081E0DF91CF910F91FF90EF90DF90CF902C
:10171000089581E18D83CE010E941A0ACE010E94B4
:101720001A0A80E0EECF88E592E00E9481088111DC
:1017300002C085E1C4CF20E030E0A9016DE0CE0118
:101740000E943E0A882311F084E1B9CF0E947E08EE
:101750008111FACFD2CF0F934091C6085091C7089C
:101760006091C8087091C90841155105610571055E
:1017700099F0082F26EF39E08091F60B9091F70B46
:101780000E943D0B882349F01092C6081092C708AA
:101790001092C8081092C90881E00F9108950F9324
:1017A000CF93C82F8091C508811105C0C1E08C2F4F
:1017B000CF910F91089540911002509111026091C4
:1017C0001202709113020C2F26EF39E08091F60B74
:1017D0009091F70B0E943D0B811102C0C0E0E7CF52
:1017E000CC2321F381E00E94AB0B8823B9F3109244
:1017F000C508DDCF8F929F92AF92BF92EF92FF927A
:101800000F931F93CF934B015C01C42F8091100263
:1018100090911102A0911202B091130288159905BE
:10182000AA05BB0551F181E00E94CF0B81110BC0CD
:1018300080E0CF911F910F91FF90EF90BF90AF90FC
:101840009F908F90089586EFE82E89E0F82E00E0B3
:1018500012E030E020E0B501A4018091F60B9091F8
:10186000F70B0E949B0A882319F380921002909232
:101870001102A0921202B09213024091C5084C2BA3
:101880004093C50881E0D5CF8F929F92AF92BF92CF
:10189000CF92DF92EF92FF92CF9327E93CE0309313
:1018A000F70B2093F60B882309F46DC040E060E04D
:1018B00070E0CB010E94FA0B81110BC080E0CF9148
:1018C000FF90EF90DF90CF90BF90AF909F908F9060
:1018D00008958091B40B8F7789F78091C00B909118
:1018E000C10BA091C20BB091C30B84369105A10529
:1018F000B10520F3C090BC0BD090BD0BE090BE0BA7
:10190000F090BF0BC114D104E104F104B9F240E03E
:10191000C701B6010E94FA0B882381F28091010A67
:101920009091020A8115924049F6A091060AAA23D5
:1019300029F26091040A7091050A6115710509F494
:10194000BDCF2091030A222309F4B8CFA093B50C90
:101950002093A70C90E080E030E0E1E0F0E0C82FB9
:10196000AF01082E02C0440F551F0A94E2F7241756
:10197000350769F041E0480F01968930910579F704
:101980004093B00C9BCFC12CD12C7601C0CF80935B
:10199000B00C20910C0A30910D0A50E040E0211566
:1019A000310541F420911A0A30911B0A40911C0A1A
:1019B00050911D0A2093A80C3093A90C4093AA0CB7
:1019C0005093AB0C46015701860E971EA11CB11C0B
:1019D0008092B60C9092B70CA092B80CB092B90C51
:1019E000E091070AF091080AF093BC0CE093BB0C5D
:1019F000B0E00E94D061DC01CB01880D991DAA1DC9
:101A0000BB1D8093BD0C9093BE0CA093BF0CB093F4
:101A1000C00C25E0EE0FFF1F2A95E1F7E150FE4FC5
:101A2000EF2FFF27E6958E0F9F1FA11DB11D8093FD
:101A3000B10C9093B20CA093B30CB093B40C809003
:101A4000090A90900A0AB12CA12C8114910441F446
:101A50008090160A9090170AA090180AB090190A60
:101A6000C81AD90AEA0AFB0AC80CD91CEA1CFB1CD2
:101A700004C0F694E794D794C794CA95D2F7C0925D
:101A8000AC0CD092AD0CE092AE0CF092AF0C85EFA6
:101A9000C8168FE0D806E104F10428F48CE08093A6
:101AA000BA0C81E00CCF80E125EFC2162FEFD206F1
:101AB000E104F104A0F38091220A9091230AA091FD
:101AC000240AB091250A8093BD0C9093BE0CA0937C
:101AD000BF0CB093C00C80E2E2CFCF93DF93EC0158
:101AE0006E857F858889998941E00E94FA0B882359
:101AF00051F08A8920E2829FC00111248A50964FBA
:101B0000DF91CF91089590E080E0FACF4F925F92FD
:101B10006F927F928F929F92AF92BF92CF92DF92FD
:101B2000EF92FF920F931F93CF93DF93EC0142301C
:101B300051056105710590F480E0DF91CF911F910F
:101B40000F91FF90EF90DF90CF90BF90AF909F905C
:101B50008F907F906F905F904F90089589859A85C0
:101B6000AB85BC850196A11DB11D84179507A607FD
:101B7000B70710F3CB88DC88ED88FE888F89803129
:101B800009F042C0BB27A72F962F852F4801590186
:101B90002A013B01C80ED91EEA1EFB1E80911002CD
:101BA00090911102A0911202B0911302C816D906A9
:101BB000EA06FB0699F58F898031C1F5B301A201D0
:101BC000552766277727440F551F4A50564FFA016D
:101BD000918280828091C50881608093C5088A893E
:101BE000823080F08D819E81AF81B8858C0D9D1DE6
:101BF000AE1DBF1D8093C6089093C708A093C80868
:101C0000B093C90881E099CFDB01CA01E7E0B6953E
:101C1000A79597958795EA95D1F7B8CF40E0C7018A
:101C2000B6010E94FA0B8111C6CF86CFB301A20183
:101C30004F77552766277727440F551F440F551FA9
:101C40004A50564FFA0180829182A282B382C2CF5B
:101C50008F929F92AF92BF92CF92DF92EF92FF92BC
:101C60000F931F93CF93DF93FC0181859285A3850A
:101C7000B4850196A11DB11D84179507A607B70766
:101C800070F480E0DF91CF911F910F91FF90EF9062
:101C9000DF90CF90BF90AF909F908F9008958388F2
:101CA0009488A588B6888789803189F5BB27A72FB6
:101CB000962F852FE9016A017B018F01BC01CD01BF
:101CC000680D791D8A1D9B1D809010029090110255
:101CD000A0901202B090130286169706A806B906C5
:101CE00001F5F8018789803111F5DD24EE24FF2408
:101CF000F601EE0FFF1FEA50F64F80819181B0E0B0
:101D0000A0E088839983AA83BB8381E0BBCFDB01FA
:101D1000CA01C7E0B695A79597958795CA95D1F75B
:101D2000C9CF40E00E94FA0B8111DBCFAACFE89423
:101D3000C7F8DD24EE24FF24F601EE0FFF1FEE0F9F
:101D4000FF1FEA50F64F80819181A281B381BF705D
:101D5000D8CF4F925F926F927F92AF92BF92CF9205
:101D6000DF92EF92FF920F931F93CF93DF9300D0F8
:101D70001F92CDB7DEB78C0149835A836B837C8376
:101D80005901C12CD12C7601412C82E0582E612CB6
:101D9000712C49815A816B817C819E012F5F3F4F5D
:101DA000C8010E94280E882339F1F8018585A30116
:101DB000920104C0220F331F441F551F8A95D2F78A
:101DC000DA01C901C80ED91EEA1EFB1E49815A81DB
:101DD0006B817C818789803111F188EF9FEFAFEFB4
:101DE000BFE0481759076A077B0798F2F501C082E0
:101DF000D182E282F38281E00F900F900F900F90DA
:101E0000DF91CF911F910F91FF90EF90DF90CF90D6
:101E1000BF90AF907F906F905F904F90089588EF44
:101E20009FEFA0E0B0E0DDCFCF93DF93FC012581F1
:101E3000222321F080E0DF91CF910895EC01809181
:101E4000BA0C803159F582E08583178A108E118E85
:101E5000128E8091BB0C9091BC0CB0E0A0E025E00C
:101E6000880F991FAA1FBB1F2A95D1F7838B948BCC
:101E7000A58BB68B83EA9CE09C8F8B8F81E08C8353
:101E80001E821F82188619861A861B861C861D864E
:101E90001E861F86188A198A1A8ACDCF803251F67B
:101EA00083E085834091BD0C5091BE0C6091BF0CC6
:101EB0007091C00C478B508F618F728F9F012D5E88
:101EC0003F4F83EA9CE00E94A90E8111D3CFB2CF8D
:101ED0008F929F92AF92BF92CF92DF92EF92FF923A
:101EE0000F931F93CF93DF93EC018D8181110EC06F
:101EF00080E0DF91CF911F910F91FF90EF90DF90E5
:101F0000CF90BF90AF909F908F9008950B891C89C0
:101F10002D893E89041715072607370748F34A011C
:101F20005B01823031F48A869B86AC86BD8681E077
:101F3000E0CF81149104A104B10449F41E821F82F0
:101F4000188619861A861B861C861D86F0CF0A8580
:101F50001B852C853D85EB8DFC8D858590E0099654
:101F6000B901A8014150510961097109082E04C045
:101F700076956795579547950A94D2F77501640150
:101F8000E1E0CE1AD108E108F10804C0F694E79424
:101F9000D794C7948A95D2F7C416D506E606F706F5
:101FA00020F0012B022B032B11F58F89988DA98D21
:101FB000BA8D8E839F83A887B9878E010A5F1F4FD2
:101FC000C114D104E104F10409F4ADCF4E815F8165
:101FD0006885798598018B8D9C8D0E94280E91E0F3
:101FE000C91AD108E108F1088111EACF81CFC41ADA
:101FF000D50AE60AF70AE1CF3F924F925F926F92BD
:102000007F928F929F92AF92BF92CF92DF92EF9288
:10201000FF920F931F93CF93DF93CDB7DEB72C972B
:102020000FB6F894DEBF0FBECDBF5C01DC015B963E
:102030008D909C905C9716964D905D906D907C90E5
:102040001997411451046104710409F468C0BFEF89
:102050004B1A5B0A6B0A7B0A312CF401818592854D
:10206000A385B4859C01AD012F5F3F4F4F4F5F4F5C
:1020700029873A874B875C87730162011D821E8224
:102080001F821886F40181859285A385B4852D81F0
:102090003E814F815885281739074A075B0708F0AA
:1020A00056C089859A85AB85BC858C159D05AE0586
:1020B000BF0550F482E0C82ED12CE12CF12C92E027
:1020C000492E512C612C712C9E012F5F3F4FB7017F
:1020D000A601C4010E94280E8823C9F189819A8132
:1020E000AB81BC81892B8A2B8B2B09F1260137010F
:1020F0009FEF491A590A690A790A2D813E814F8159
:1021000058852F5F3F4F4F4F5F4F2D833E834F8347
:1021100058873FEFC31AD30AE30AF30AB3CFF40197
:1021200040805180628073803324339496CFC414EE
:10213000D504E604F70409F70FEF1FEF2FEF3FE098
:10214000B701A601C4010E94860D811119C080E06B
:102150002C960FB6F894DEBF0FBECDBFDF91CF91A6
:102160001F910F91FF90EF90DF90CF90BF90AF90B5
:102170009F908F907F906F905F904F903F900895C9
:10218000D50116964D915D916D917C9119974115F0
:1021900051056105710539F097018601C4010E945E
:1021A000860D8823A1F2D5011696CD92DD92ED928F
:1021B000FC921997332051F0D701C6010196A11D59
:1021C000B11DF40180839183A283B383F5018789D4
:1021D000908DA18DB28D892B8A2B8B2B39F4848124
:1021E000C78AD08EE18EF28E80688483F501848167
:1021F0008062848381E0ACCF2F923F924F925F92B6
:102200006F927F928F929F92AF92BF92CF92DF9206
:10221000EF92FF920F931F93CF93DF9300D0CDB730
:10222000DEB7FC018581811118C08FEF9FEF0F9001
:102230000F900F90DF91CF911F910F91FF90EF9032
:10224000DF90CF90BF90AF909F908F907F906F90D6
:102250005F904F903F902F900895848180FFE5CF4D
:10226000438954896589768982859385A485B58556
:10227000312C212C481759076A077B0719F02224B3
:102280002394312C6F012101CE0101963C01DF0125
:102290001696BB83AA834114510409F4C5C0F60104
:1022A00042855385648575854A01F1E09F22D601F8
:1022B0005B968D919C915C978A019B01E9E0369534
:1022C000279517950795EA95D1F71596EC91E23089
:1022D000E9F5FC01628D738D848D958D600F711F02
:1022E000821F931FA12C22E0B22EA818B9084A140D
:1022F0005B0408F45201F601248126FD04C0A114F8
:10230000F2E0BF0671F400911002109111022091C9
:10231000120230911302061717072807390709F030
:102320005EC040E00E94FA0B882309F47ECFC4010E
:102330008A50964FD3019C012A0D3B1DFC012E179C
:102340003F0709F46CC041914D93F9CFDC0114961D
:10235000BC90BA94B0228114910479F4B1100DC0EC
:10236000452B462B472B69F5F6018789908DA18D6A
:10237000B28D86839783A087B187D6015B96ED9156
:10238000FC915C9716966D917D918D919C9119971A
:102390006250710981099109258504C0660F771F74
:1023A000881F991F2A95D2F70685178520893189BC
:1023B000600F711F821F931F6B0D711D811D911D79
:1023C00091CFD60116964D915D916D917C911997A3
:1023D0002A813B810E94280E8111CFCF26CF730125
:1023E00085019401AB01BC018091F60B9091F70B34
:1023F0000E949B0A882309F418CF6A0C7B1CF60103
:1024000082859385A485B5858A0D9B1DA11DB11D6F
:1024100082879387A487B5874A185B083CCF281B1F
:10242000390B620E731EEBCF2A94232809F0FDCEE0
:10243000898190E0FCCEFC01818D928D009711F096
:102440000C94FC108FEF9FEF08950F931F93CF9381
:10245000DF93EC01898D9A8D10E000E0009799F0F0
:102460000E94FC108C010F3F100769F0898D9A8D36
:10247000FC01428553856485758541505109610988
:1024800071090E94680FC801DF91CF911F910F91D0
:1024900008951F93CF93DF93FC012581222371F1CF
:1024A000162FEC01848187FF1EC0CF010E946D0DA5
:1024B000FC01892B19F18D81823040F48B899C8934
:1024C000AD89BE89848F958FA68FB78F8F89988DA0
:1024D000938F828F8F89988DA98DBA8DB58BA48BA0
:1024E0008C818F778C83111103C08C818F7E8C83BC
:1024F000812FDF91CF911F910C94CF0B80E0DF9162
:10250000CF911F910895FF920F931F93CF93DF9365
:10251000EC018D81813041F090E080E0DF91CF913E
:102520001F910F91FF9008958C8181FFF5CF82FD5F
:102530001BC00091F60B1091F70BC8010E94280AEE
:102540000E947E08F82EC8010E941A0A8FEFF81226
:10255000E3CF8C8185FF1BC060E0CE010E94491251
:102560008C818F7D8C83D8CF4B895C896D897E89E6
:102570008A859B85AC85BD8584179507A607B70717
:10258000C1F2CE010E94680F8111D3CFC5CF409117
:10259000C6085091C7086091C8087091C908452BBA
:1025A000462B472B21F080E00E94AB0BB5CF80611A
:1025B0008C832A853B85317080E092E0821B930BEF
:1025C000ADCFCF93DF93EC0161E00E9449128823E5
:1025D00011F01D8281E0DF91CF910895FC01818D82
:1025E000928D009719F061E00C94491208952F9292
:1025F0003F924F925F926F927F928F929F92AF9293
:10260000BF92CF92DF92EF92FF920F931F93CF93DF
:10261000DF9300D01F921F92CDB7DEB77C015B0124
:10262000342E5D83DC0115968C911597813009F06D
:10263000CEC014962C9021FECAC022FCB4C0C32C7C
:10264000DD8022947FE027222094B22DB1702B2EC2
:10265000D7011A964D915D916D917C911D97C11492
:10266000D10409F428C15B968D919C915C97FC0183
:1026700074807A948A019B0169E0369527951795B5
:1026800007956A95D1F770228A011170711020C0E8
:1026900001151105E9F416964D915D916D917C91AE
:1026A0001997411551056105710509F099C05796B3
:1026B0008D919D910D90BC91A02D0097A105B10524
:1026C00009F0B0C0C7010E94FC0F882309F47FC045
:1026D00080E092E0801B910B46018C159D0508F46B
:1026E0004C01D7015B964D915C915C9716968D914C
:1026F0009D910D90BC91A02D0297A109B109FA01FD
:10270000258504C0880F991FAA1FBB1F2A95D2F7E1
:102710004685578560897189840F951FA61FB71F4D
:102720009C01AD01270D311D411D511D29013A01AB
:10273000811432E0930609F07BC0809110029091E1
:102740001102A0911202B091130284159505A605FD
:10275000B70559F48FEF9FEFDC018093100290933F
:102760001102A0931202B0931302022D9501B3013E
:10277000A2018091F60B9091F70B0E943D0B8823EC
:1027800031F19EEFB91AC818D908F70182859385EF
:10279000A485B585880D991DA11DB11D82879387DC
:1027A000A487B58755CFF701438954896589768910
:1027B00082859385A485B585481759076A077B07E5
:1027C00009F43DCFC7010E94680F811138CF81E025
:1027D00090E0D70113969C938E93129780E007C0E8
:1027E0009E012F5F3F4F0E94280E811102C090E092
:1027F00079C089819A81AB81BC81F701238D348DA9
:10280000F901278948EF5FEF60E070E0203121F0A7
:1028100048EF5FEF6FEF7FE084179507A607B707D4
:1028200008F050CFF70186839783A087B18750CFF8
:102830000115110599F5D7011A964D915D916D918C
:102840007C911D9753968D919D910D90BC91A02DDB
:10285000481759076A077B0708F181E00E94CF0BF0
:10286000882309F4B4CF4092100250921102609272
:102870001202709213028091C50881608093C5088E
:10288000C8018A50964FD5019C01280D391DFC01C5
:102890002E173F0759F04D914193FACF41E0C30104
:1028A000B2010E94FA0B8111EBCF91CF281B390B9B
:1028B000A20EB31E68CFF70183899489A589B689D2
:1028C00084179507A607B70738F48481438B548B88
:1028D000658B768B80688483F701848183FD1AC0C1
:1028E000832D9D810F900F900F900F900F90DF918F
:1028F000CF911F910F91FF90EF90DF90CF90BF90FD
:10290000AF909F908F907F906F905F904F903F908F
:102910002F90089561E0C7010E944912882309F4AD
:1029200056CFDECFCF93DF931F92CDB7DEB769834B
:1029300041E050E0BE016F5F7F4F0E94F7120F90A1
:10294000DF91CF910895CF93DF93EC01E98DFA8D5C
:10295000309749F481E090E09B838A8390E080E0A7
:10296000DF91CF91089513821282898D9A8D0E94F2
:10297000F712E98DFA8D22813381232B59F7F0CF9D
:10298000FF920F931F93CF93DF93EB01FC01178A04
:10299000168A2A81211109C02B81211106C02C81A0
:1029A000211103C02D81222301F141155105E9F0C8
:1029B0008A01FC01F08C80E591E00E94250AAE01BD
:1029C0004E5F5F4F24E030E06CE070E08F2D0E949E
:1029D0006B09B8018F2D0E947C0981E090E0DF91A6
:1029E000CF911F910F91FF90089580E0F7CFFC01E8
:1029F000848595850895FC0184899589089523E14E
:102A000033E0FC0131832083FB01408951896289D5
:102A10007389FC0142835383648375830895DC01C9
:102A2000ED91FC91048CF58DE02D1994CF93CFB7E7
:102A3000F89480917608811127C0E3EAF3E084914D
:102A4000E9EEF3E09491E82FF0E0EE0FFF1FE65C73
:102A5000FC4FA591B491EC91E92321F461E085E369
:102A60000E94100461E085E30E943E048CB5806101
:102A70008CBD8CB580648CBD61E084E30E943E0413
:102A800061E083E30E943E04809176088F5F80932B
:102A90007608CFBFCF910895CF93C62F91E0909342
:102AA000D20998E69093F4091092D3091092F5098F
:102AB000682F80EE9CE00E9419086C2F80EE9CE04D
:102AC0000E941908CF910C940B0664E670E080E038
:102AD00090E00C949F04CF93DF93EC01888199815F
:102AE000DC01ED91FC910190F081E02D19952A8196
:102AF0003B81820F931F9B838A83DF91CF9108953F
:102B00002F923F924F925F926F927F928F929F92FD
:102B1000AF92BF92CF92DF92EF92FF920F931F93EB
:102B2000CF93DF9300D000D0CDB7DEB71C014A01B0
:102B30005B0186E0D1011A968C9320E836E948E1E2
:102B40005BE4CB01B4010E94296387FD7DC004E1F1
:102B500010E060E2462E512C1E821D82F801EE5ECE
:102B6000FC4F6591759185919491A50194010E9406
:102B70008A6018169CF0F801EE51FD4F25913591B1
:102B800045915491C501B4010E94F0604B015C0174
:102B9000ED81FE81E40DF51DFE83ED835594479490
:102BA000045011090C3FFFEF1F07C1F677247A94F8
:102BB00020E030E0A901C501B4010E942963181684
:102BC0000CF04AC02CEA35EC47E257E3C501B401EA
:102BD0000E948A6018160CF43FC0272D34E02302AF
:102BE00080011124F12CE12CC80186509D4F6C010D
:102BF0000E5E1C4F9FEF791679F1F601EE0DFF1D69
:102C00006591759185919491A50194010E94296324
:102C100018169CF4F801EE0DFF1D25913591459194
:102C20005491C501B4010E94F0604B015C01AD817B
:102C3000BE81A419B509BE83AD83559447947A9497
:102C4000B4E0EB1AF108D6CF30E2432E512C45E028
:102C5000742E1E821D82ACCF2D813E81F101318701
:102C60002087C501B4010E94FA6269837A838B834D
:102C70009C83D1016D937D938D939C9313972B012E
:102C80003C0190E4C92E92E4D92E9FE0E92EF12C6C
:102C9000BAE04B16510461047104C8F0C701B601D3
:102CA0002AE030E040E050E00E94E36169017A01EF
:102CB000F101828581508287C301B2012AE030E0B0
:102CC00040E050E00E94E36129013A01E1CF6981CF
:102CD0007A818B819C810E948F609B01AC01C50130
:102CE000B4010E9414624B015C01C701B6010E944D
:102CF0008F609B01AC01C501B4010E94F0602B0103
:102D00003C010E94FA624B015C010E948F609B01B2
:102D1000AC01C301B2010E9414629B01AC010E948C
:102D200015620E94FA62860E971EA81EB91E8C14A8
:102D30009D04AE04BF0430F5D10114968D929D928E
:102D4000AD92BC9217978AE0C82ED12CE12CF12CC1
:102D5000D10114966D917D918D919C911797A7014A
:102D600096010E94E361672B682B692B89F5F101BD
:102D7000828518166CF524833583468357838150EA
:102D80008287E6CFF101148215821682178289812B
:102D90009A81AB81BC810196A11DB11D8083918375
:102DA000A283B3832D813E812115310561F20A97FB
:102DB000A105B10540F2C90101969187808781E0A4
:102DC00090E0A0E0B0E080839183A283B383BBCF87
:102DD00026960FB6F894DEBF0FBECDBFDF91CF9120
:102DE0001F910F91FF90EF90DF90CF90BF90AF9029
:102DF0009F908F907F906F905F904F903F902F901B
:102E00000895CF93DF93EC0188819981DC01ED91E6
:102E1000FC910280F381E02D19952A813B81820F7C
:102E2000931F9B838A83DF91CF9108958F929F9206
:102E3000AF92BF92CF92DF92EF92FF920F931F93C8
:102E4000CF93DF93CDB7DEB766970FB6F894DEBFAA
:102E50000FBECDBF6C018E01095E1F4F78018AE065
:102E6000882E912CA12CB12CCB01BA01A501940183
:102E70000E94E361942F852F605DF80162938F01BA
:102E8000A901692F782F411551056105710561F779
:102E9000A7014E1B5F0BBF01C6010E94011766967A
:102EA0000FB6F894DEBF0FBECDBFDF91CF911F915B
:102EB0000F91FF90EF90DF90CF90BF90AF909F90D9
:102EC0008F900895EF92FF920F931F93CF93DF930C
:102ED000EC017B0162E20E946B158701F8016191B0
:102EE0008F01662391F0E5E1F3E0F280FF2049F0E5
:102EF000329681816813F9CF6CE5CE010E946B1583
:102F00006F2DCE010E946B15E9CF62E2CE01DF91F9
:102F1000CF911F910F91FF90EF900C946B15803320
:102F20009CF08A3324F08F3524F08B3724F481E031
:102F3000089581344CF08B35D4F393ED980F81E0F4
:102F40009230B0F380E008958B32B9F7F0CFFC01F6
:102F50008685811114C0A185B285838594852FEF64
:102F60003FEFA817B90730F4CD010196928781870A
:102F70002C9130E037FD20E0258781E0868785852C
:102F800008951F93CF93DF93EC01162F0E94A7178C
:102F9000811306C01E8681E0DF91CF911F910895B5
:102FA00080E0FACFCF93DF93EC01CE010E94A71708
:102FB0008B303CF489304CF4882349F081E08887D9
:102FC00010C08D3011F08032C9F71E86EECF888593
:102FD00081110AC081E090E0CF5ADF4F9983888346
:102FE00080E0DF91CF91089582E090E0F5CFEF92FD
:102FF000FF920F931F93CF93DF93DC018D919C91F0
:1030000011970097E9F01296ED91FC9113971496A1
:10301000ED90FC90D701A170BB27309711F4109769
:1030200079F0F594E7948E0D9F1DAB2B41F0EC01E8
:10303000A881B981EA0FFB1F0190F081E02D19955D
:10304000DF91CF911F910F91FF90EF900895DC01D8
:103050002D913C91119721153105F1F01296ED91CA
:10306000FC91139714968D919C91AC01417055275A
:10307000309719F44115510579F095958795820F90
:10308000931F452B41F0DC016D917C91E60FF71FFA
:103090000190F081E02D199460E070E0CB0108957B
:1030A000DC012D913C91119721153105E9F0129623
:1030B000ED91FC91139714968D919C91DC01A17078
:1030C000BB27309711F4109779F095958795820F6B
:1030D000931FAB2B41F0DC012D913C91E20FF31FCC
:1030E0000190F081E02D19940895DC012D913C911F
:1030F000119721153105F1F01296ED91FC9113977E
:1031000014968D919C91AC0141705527309719F41C
:103110004115510579F095958795820F931F452BA1
:1031200041F0DC012D913C91E20FF31F0190F08101
:10313000E02D199490E080E00895DC012D913C9100
:1031400011976217730784F41296ED91FC9190E049
:1031500080E08617970729F00480F581E02D01961D
:10316000F8CF80819181089590E080E00895EF92FA
:10317000FF920F931F93CF93DF938C01DC01ED91AE
:10318000FC91E080F180D0E0C0E0CE15DF059CF43A
:10319000BE01F801808191810E949D18DC01169684
:1031A0006D917C911797AB011A968D919C910E941D
:1031B00050182196EACFDF91CF911F910F91FF9088
:1031C000EF900895CF92DF92EF92FF920F931F93AB
:1031D000CF93DF938C018091C60C882321F081EC82
:1031E0009CE00E94E1121092A20C1092A00C10928E
:1031F0009D0C10929C0C84E080939B0C0E94D10447
:10320000EB0161E080919B0C0E943E0461E08091A3
:103210009B0C0E9410040E94161582E58093950C69
:103220001092960C8091950C9091960C0E94250A14
:103230002AE0F22E8FEF0E947708FA94F110FACF6D
:1032400087E99CE00E94280A20E030E0A90160E0C4
:1032500087E99CE00E943E0AF82E8093A10C81E051
:10326000F816B1F00E94D1046C1B7D0B613D7740D4
:1032700058F381E080939C0C87E99CE0DF91CF912B
:103280001F910F91FF90EF90DF90CF900C941A0A4E
:103290002AEA31E040E050E068E087E99CE00E94E3
:1032A0003E0A82FF2AC0F092A20C8091A20CC12C8F
:1032B000D12C7601823029F4C12CD12CE12C80E470
:1032C000F82E20E030E0A90167E387E99CE00E9446
:1032D0003E0AA701960169E287E99CE00E943E0A46
:1032E0008093A10C8823D1F00E94D1046C1B7D0B2C
:1032F000613D774030F388E0BDCF94E0F92E0E9425
:103300007E088093A10CFA94F110F9CF8A3A11F05B
:1033100082E0B0CF82E08093A20CC7CF8091A20C54
:103320008230D1F420E030E0A9016AE387E99CE033
:103330000E943E0A882311F086E09CCF0E947E08FE
:10334000807C803C19F483E08093A20C0E947E086C
:103350000E947E080E947E0887E99CE00E941A0A6B
:1033600080E58093950C1092960C81E00E94440CAD
:10337000882351F081EC9CE00E94140F882349F0CF
:1033800081E0F801848705C080E00E94440C81112F
:10339000F1CFDF91CF911F910F91FF90EF90DF90D0
:1033A000CF900895CF92DF92EF92FF92CF93DF9369
:1033B000DC015496CC915497D0E06111DC2F5596E6
:1033C0002C91559730E0220F331F28533D4F50E08A
:1033D00040E0F90185919491FC01F080BA0190E000
:1033E00080E0EF2DEC23ED1310C04F5F5F4F5B9635
:1033F000CD90DD90ED90FC905E976C157D058E056F
:103400009F0538F36FEF7FEFCB01DF91CF91FF90F6
:10341000EF90DF90CF9008950F931F93CF93DF939A
:10342000FC010681178182819381019739F4802FF5
:10343000DF91CF911F910F910C941004EB0161E08B
:10344000802F0E943E04209711F460E0F0CFF80135
:10345000FF27E650FC4FE491E150E231B0F7F0E095
:103460008827EA5CF54E8F4F0C945363481A511A23
:10347000561A601A6A1A251A741A7C1A841A8E1A35
:10348000981AA21AB11ABB1A251AC51ACF1AD91A34
:1034900084B5806884BDC7BDDF91CF911F910F9126
:1034A000089584B5806284BDC8BDF6CF8091800048
:1034B000806880938000D0938900C0938800ECCF0F
:1034C00080918000806280938000D0938B00C093B5
:1034D0008A00E2CF80918000886080938000D09342
:1034E0008D00C0938C00D8CF8091B000806880930D
:1034F000B000C093B300D0CF8091B00080628093C1
:10350000B000C093B400C8CF8091900080688093D1
:103510009000D0939900C0939800BECF8091900006
:10352000806280939000D0939B00C0939A00B4CFA8
:1035300080919000886080939000D0939D00C0930C
:103540009C00AACF8091A00080688093A000809109
:10355000A0008F7B8093A000D093A900C093A80007
:103560009BCF8091A00080628093A000D093AB009D
:10357000C093AA0091CF8091A00088608093A000A2
:10358000D093AD00C093AC0087CF809120018068BC
:1035900080932001D0932901C09328017DCF809191
:1035A0002001806280932001D0932B01C0932A01D7
:1035B00073CF80912001886080932001D0932D01EA
:1035C000C0932C0169CFCF93DF93FC012681378113
:1035D00082819381019729F53327F901E650FC4F49
:1035E0008491F901EC54FC4FD491F901E259FC4F5C
:1035F000C491CC23C1F181110E94A903EC2FF0E00A
:10360000EE0FFF1FE853FD4FA591B491EC91ED2310
:1036100031E020E009F430E0832F922FDF91CF9149
:103620000895822F263310F08AEC820F20917B00C0
:10363000982F9870277F922B90937B0087708064DF
:1036400080937C0080917A00806480937A008091DE
:103650007A0086FDFCCF90917800809179008927CF
:1036600098278927DBCF90E080E0D8CFFC018685C2
:1036700097850E94E31A21E030E0892B11F030E0B9
:1036800020E0C9010895FC01828993890E94E31A10
:1036900021E030E0892B11F030E020E0C9010895ED
:1036A000FC01828193810097C1F02481358146819C
:1036B00057812417350740F0138212820190F08160
:1036C000E02D81E080870895A9014F5F5F4F55830A
:1036D0004483820F931FFC01608308959F92AF92F1
:1036E000BF92CF92DF92EF92FF920F931F93CF93EF
:1036F000DF9300D01F921F92CDB7DEB78C010E94DE
:10370000A717D82EF8011686F12CE12C70EFC72EE2
:10371000C8010E94A717F8011686D81609F4C1C07F
:10372000811119C0F801EF5AFF4F82E090E09183B8
:10373000808380E00F900F900F900F900F90DF919B
:10374000CF911F910F91FF90EF90DF90CF90BF909E
:10375000AF909F9008958C3509F09EC0C8010E94DB
:10376000A7178823F9F2E5E1F3E0853709F088C06F
:10377000F801168664E0962EB12CA12CC8010E9497
:10378000A717882379F281344CF48053803148F0B4
:10379000F801EF5AFF4F83E090E0C9CF8F7D875348
:1037A000F5CF54E0AA0CBB1C5A95E1F7A82AF80102
:1037B00016869A949110E2CFC501985D81159440C8
:1037C00020F4750123E0F222A3CFC5019C5D811591
:1037D000944008F5F3E0BF22C701982F8827990F7E
:1037E000990F8A299B29B0E0A0E0119619828038B0
:1037F0009105A105B10598F48A835E0123E0A20E2C
:10380000B11CF50162915F01662309F481CFC80103
:103810000E94501BF6CFC501B0E0A0E0E7CF282FF3
:103820002F7320682A8336E0B695A79597958795DC
:103830003A95D1F78032910538F4806C8B835E0124
:1038400084E0A80EB11CDDCF282F2F7320682B83B6
:1038500026E0969587952A95E1F78031910538F411
:10386000806E8C835E01E5E0AE0EB11CCACF80682D
:103870008C83CD825E01F6E0AF0EB11CC2CF3296D2
:103880009081992309F484CF8913F9CF818188230A
:1038900009F47ECFF8011686682FC8010E94501BDC
:1038A00037CF60E0C8010E94501BF80182819381EC
:1038B000892B29F4EF5AFF4F84E090E038CF81E064
:1038C00039CF4F925F926F927F928F929F92AF9279
:1038D000BF92CF92DF92EF92FF920F931F93CF93FD
:1038E000DF93EC018B0188818B32C9F18D32C1F5F8
:1038F0002196FF24F394888190ED980F9A3018F068
:103900008E3209F04DC160E070E0CB01FE012191E3
:10391000A0ED8A2E820E39E0381520F16A3949E986
:103920007407840749E1940738F5AAE0B0E09B01E9
:10393000AC010E94D061912CB12CA12C2401350145
:103940004094509460947094461657066806790621
:1039500098F0680D791D8A1D9B1DEF01D7CF219628
:10396000F12CC9CF211108C0FF20F1F161307105A0
:10397000810550E89507A0F0E12CEAE08E2E912C0D
:10398000A12CB12C61157105F0E88F079105C0F1EC
:10399000A50194010E94E361CA01B901E394F2CF49
:1039A000F801248120782A6024839B01AC018827B8
:1039B0009927DC01821B930BA40BB50B80839183A9
:1039C000A283B3838F2DDF91CF911F910F91FF9031
:1039D000EF90DF90CF90BF90AF909F908F907F90AF
:1039E0006F905F904F900895F801248120782860AF
:1039F00024836083718382839383FF24F394E2CFD3
:103A0000FE01299130ED320F3A3010F4E394F8CFF3
:103A10002E32F1F4EF012196FE012196208150ED26
:103A2000D52ED20E29E02D1598F06C3C3CEC730796
:103A30003CE08307910580F7AAE0B0E09B01AC0170
:103A40000E94D0616D0D711D811D911DEA94E4CF1E
:103A500020812F7DD0E0C0E0253409F05DC02181B8
:103A60002D32D9F53296CC24C394DF01D0E0C0E0EA
:103A70002E2D0E2C000C330B4AE0B42EFD01DD90F0
:103A800040ED4D0D4A3008F042C0BC9EA001BD9EE5
:103A9000500D1124CD2DDD0CDD0BE097C40FD51F8B
:103AA000AE01420F531F4732510544F3F8018481A0
:103AB000CC20D1F040E050E060E070E8F11003C0AD
:103AC00040E050E0BA0180788C60F8018483408344
:103AD000518362837383FC2C75CF2B3219F031969E
:103AE000C12CC3CF3296FCCF40E050E060E87FEFBE
:103AF000F11004C040E050E060E87FE780788C601F
:103B0000F8018483408351836283738376CFCC2012
:103B100019F0D195C195D1092081211141C0CE0D57
:103B2000D11DE7FCDA950E948F601C161D0604F576
:103B3000E12CC0FF0CC024E0E29EF0011124EE5EF7
:103B4000FC4F25913591459154910E94F060D59597
:103B5000C795E394209769F7F1109058F8012481F4
:103B600020782C602483608371838283938345CF84
:103B7000D195C195D109E12C209771F3C0FF0CC0FC
:103B800044E0E49EF0011124EE51FD4F2591359162
:103B9000459154910E94F060D595C795E394ECCF80
:103BA000F12C10CFCF92DF92EF92FF92CF93DF9361
:103BB00000D01F921F92CDB7DEB7FC0184818F77B2
:103BC0008630B9F028F4843088F590E080E013C0A6
:103BD0008A30E9F08C30B9F18830B9F78081918171
:103BE000A281B381811520E89207A105B10568F78C
:103BF00002C0808190E00F900F900F900F900F9077
:103C0000DF91CF91FF90EF90DF90CF90089580816A
:103C10009181A281B381AC01BD0150586F4F7F4F9C
:103C2000411551056140710580F6E5CF8081918194
:103C30001D82BE016F5F7F4F0E94611CCE01019605
:103C40000E94D21DD8CFC080D180E280F38020E0D6
:103C500030E040E057ECC701B6010E94296387FDC0
:103C6000B4CF20E03EEF4FEF56E4C701B6010E940B
:103C70008A6018160CF4A9CFC701B6010E94F3623E
:103C8000CB01B9CFCF93DF93DC01EB01EC81FD8158
:103C90008A819B810896E817F90740F481E08887BC
:103CA000F0E0E0E0CF01DF91CF9108953897FD83F8
:103CB000EC833097B9F31296CD91DC91139720974E
:103CC00091F0CF018C1B9D0B23E0959587952A954C
:103CD000E1F78D831396FC93EE931297158214826D
:103CE00017821682DFCF1196FC93EE93F3CFCF921B
:103CF000DF92EF92FF927C01FB01309721F08481EB
:103D00009B0185FD02C030E020E0B901C701FF90B2
:103D1000EF90DF90CF900895FC012581222339F0A8
:103D2000F8E02F0290011124820F931F089590E074
:103D300080E00895EF92FF920F931F93CF93DF934C
:103D40006115710519F17B018C01FC01C081D181E4
:103D5000209731F0CE010E948C1EE816F906E9F496
:103D6000C7010E948C1E2097D1F020E0009741F0FF
:103D70009C012C1B3D0B43E0359527954A95E1F7B7
:103D80002D83892B19F4F801D383C283DF91CF915E
:103D90001F910F91FF90EF900895EC01D9CFF8019A
:103DA00091838083EECF0F931F93CF93DF93EC012A
:103DB0008B01BA010E94421EFC01892B61F470E064
:103DC00060E0CE010E949A1E80E090E0DF91CF91EA
:103DD0001F910F91089584818F77848317830683C1
:103DE000CF01F4CFFC01768765870895DC01ED9162
:103DF000FC91068CF78DE02D199591E089270895A7
:103E0000862F089581E08627089521E0FC018485AE
:103E1000883008F020E0822F0895CF93DF93FC01D3
:103E2000EB01A881B98190E030E020E08AE04D917B
:103E3000442311F150ED540F5A3090F4829FB00199
:103E4000839F700D11249B0120533109240F311DD4
:103E500047FD3A952F3F310551F348F380E010C0FC
:103E60004E32E1F79330D1F3EF01C90FD11D2A8310
:103E70009F5F30E020E0DBCF933081F7258381E046
:103E8000DF91CF91089590E080E008958F929F9206
:103E9000AF92BF92CF92DF92EF92FF920F931F9358
:103EA000CF93DF9300D01F92CDB7DEB7FC018581A1
:103EB000813091F080E00F900F900F900F90DF9184
:103EC000CF911F910F91FF90EF90DF90CF90BF9017
:103ED000AF909F908F900895848181FFEBCF83896D
:103EE0009489A589B689892B8A2B8B2B09F45FC00D
:103EF0007F0140E050E0BA01CF010E94680F8823A3
:103F0000C9F2F701C38CD48C8788908CA18CB28CB9
:103F100082E090E0A0E0B0E0F60180839183A2838C
:103F2000B3839E012F5F3F4FB501A401C6010E94DC
:103F3000280E882309F4BECF00E010E09801B501F7
:103F4000A401C6010E94860D882309F4B3CF89809D
:103F50009A80AB80BC80F6018789803119F188EFA7
:103F60009FEFAFEFBFE088169906AA06BB06C8F21E
:103F7000F701178A108E118E128E138A148A158AF1
:103F8000168A84818068848361E0C7010E94491297
:103F9000882309F48FCF40E050E0BA01C7010E94A6
:103FA000680F89CF88EF9FEFA0E0B0E0DCCF81E021
:103FB00082CFCF92DF92EF92FF921F93CF93DF9346
:103FC000EC0180E2689FF0011124EA50F64F9385DE
:103FD000917161F0842F827449F080E0DF91CF917C
:103FE0001F91FF90EF90DF90CF900895142F6A8B70
:103FF0008091100290911102A0911202B0911302CF
:104000008E879F87A88BB98BC488D588F12CE12C2B
:104010007601DD24CC24CF8AD88EE98EFA8E828D6B
:10402000938DB0E0A0E0AC01BD014C295D296E2963
:104030007F294F8B588F698F7A8F83858871B1F470
:10404000848D958DA68DB78D8B8B9C8BAD8BBE8B08
:1040500081E08D831F701C831E821F821886198643
:104060001A861B861C861D8681E0B8CF803109F038
:10407000B4CF9E012D5E3F4F8B8D9C8D0E94A90E6B
:10408000882309F4AACF84E0E4CFCF93DF93EC0137
:1040900060E08E810E94100461E08E810E94100415
:1040A00060E08E810E9410048BE891E00197F1F7A7
:1040B000DF91CF910895CF92DF92EF92FF920F930D
:1040C0001F93CF93DF936C017C0187E0E80EF11C16
:1040D000D0E0C0E0062F10E0B8010C2E02C07595AC
:1040E00067950A94E2F76170F70181917F010E9460
:1040F00010042196C430D10579F7C601DF91CF9124
:104100001F910F91FF90EF90DF90CF900C9445207E
:10411000CF92DF92EF92FF920F931F93CF93DF9393
:10412000EC01F62E642F8C810E9410048D818F3F4C
:1041300019F060E00E9410040F2D10E08F8584FFBD
:1041400025C06E0187E0C80ED11CF12CE12CB8010E
:104150000E2C02C0759567950A94E2F76170F6011E
:1041600081916F010E941004FFEFEF1AFF0A88E0AF
:10417000E816F10461F7CE01DF91CF911F910F9105
:10418000FF90EF90DF90CF900C944520B80184E031
:10419000759567958A95E1F7CE010E945B206F2D9A
:1041A000CE01DF91CF911F910F91FF90EF90DF90A3
:1041B000CF900C945B2041E00E94882081E090E049
:1041C000089540E00C948820EF92FF920F931F9384
:1041D000CF93DF938C017A0188E0689FB0011124AE
:1041E0006064C8010E94E120E701A8E0EA0EF11C2A
:1041F0006991D801ED91FC910190F081E02DC80109
:104200001995CE15DF05A1F7DF91CF911F910F9181
:10421000FF90EF900895FC012389421710F04FEFB3
:10422000420FFC01E40FF11D2489620F60680C94B9
:10423000E12061E00E94E1208BE39FE10197F1F72B
:1042400008950F931F93CF93DF93EC01623019F41D
:104250008F8588608F876B8B1C8A80E48D8B80E1D3
:104260008E8B80E58F8B61E08C810E943E048D8176
:104270008F3F19F061E00E943E0461E08E810E9450
:104280003E048E0198012C1B3D0B8F8584FD0DC0D3
:1042900084E090E00F5F1F4F281739074CF461E06E
:1042A000F80186810E943E04EDCF88E090E0F2CFD5
:1042B0008BE39DE00197F1F760E08C810E94100490
:1042C00060E08E810E9410048D818F3F19F060E0C4
:1042D0000E9410046F8564FD34C063E0CE010E942B
:1042E0005B200BE416E4C8010197F1F763E0CE010F
:1042F0000E945B20C8010197F1F763E0CE010E94A4
:104300005B2083E592E00197F1F762E0CE010E9425
:104310005B206F856062CE010E94E12084E0888B83
:104320006CE0CE010E94E120CE010E94192182E0C2
:10433000898B66E0CE01DF91CF911F910F910C9494
:10434000E1206062CE010E94E1208BE496E40197B7
:10435000F1F76F856062CE010E94E12083E592E073
:104360000197F1F76F856062CE010E94E120D1CF05
:10437000CF93DF93EC0180E098E00E9462639C01A0
:10438000385F009711F430E020E09A8389839C83A2
:104390008B833E832D8338872F8319861E86DF917A
:1043A000CF9108950F931F93CF93DF93EC018B016F
:1043B00086E090E00E946263FC0113821282158203
:1043C0001482118300838A819B81892B71F4FB8382
:1043D000EA83FD83EC8388819981019699838883A0
:1043E000DF91CF911F910F910895AC81BD811596FA
:1043F000FC93EE931497EDCFFB0101900020E9F7B9
:104400003197AF01461B570BDC01ED91FC91028007
:10441000F381E02D19948F929F92AF92BF92EF9209
:10442000FF920F931F93CF93DF93CDB7DEB7A19782
:104430000FB6F894DEBF0FBECDBF7C01FA01CB01F1
:1044400019A2223008F42AE08E010F5D1F4F822E40
:10445000912CB12CA12CBF01A50194010E94E36114
:10446000F901CA016A300CF5605DD8016E938D01C7
:10447000232B242B252B79F790E080E0109721F057
:10448000BD01C7010E94FC21A1960FB6F894DEBFC2
:104490000FBECDBFDF91CF911F910F91FF90EF9095
:1044A000BF90AF909F908F900895695CDECFCF92C0
:1044B000DF92EF92FF92CF93DF936C01990FEE089A
:1044C000FF08F7FE1BC06DE288EF9BE00E946E02C2
:1044D000EC0144275527BA014C195D096E097F0983
:1044E0002AE088EF9BE00E940B228C0F9D1FDF913A
:1044F000CF91FF90EF90DF90CF9008952AE0B70121
:10450000A60188EF9BE0DF91CF91FF90EF90DF90C5
:10451000CF900C940B228F929F92AF92BF92CF922A
:10452000DF92EF92FF920F931F93CF93DF937C0163
:104530008B016C0182E0C80ED11C4701E5E08E0EB4
:10454000911CD0E0C0E0F60141916F0150E070E0B5
:1045500060E02AE0C8010E940B225C016EE2C80103
:104560000E946E028A0D9B1DC80FD91FC814D90462
:1045700051F7F701458150E070E060E02AE0C801A2
:104580000E940B228C0F9D1FDF91CF911F910F91E5
:10459000FF90EF90DF90CF90BF90AF909F908F9063
:1045A0000895CF93DF93BC0188EF9BE00E94FC212C
:1045B000EC0164E077E088EF9BE00E94FC218C0F27
:1045C0009D1FDF91CF910895CF93DF93EC0186E299
:1045D00093E00E94D1228F859889DC01ED91FC91B6
:1045E0000190F081E02D199562E08D859E850E94F5
:1045F000212148E052E060E08D859E850E94E42004
:1046000040E052E061E08D859E850E94E4208D852A
:104610009E850E9419218D859E85FC016089262F2B
:104620002460208B6C600E94E1206EE170E08F8539
:1046300098890E940C1ADF91CF910C946515CF9246
:10464000DF92EF92FF9287E393E00E94D1221092D3
:104650003C0910923B091092D3091092F5090E946F
:10466000CC0581EC97E090939E0880939D0882ECA6
:1046700097E09093A2088093A10864E08EE00E94E6
:104680004C1581E08093D20988E68093F40910925A
:10469000D3091092F5096FE080EE9CE00E941908A2
:1046A0000E940B060E94D1046B017C010E94D10480
:1046B0006C197D098E099F09643671058105910584
:1046C00088F461E088E60E94F20610923C0980932B
:1046D0003B09813089F062E070E080E090E00E9468
:1046E0009F04E4CF80E0682F68608FE0FF90EF9038
:1046F000DF90CF900C944C1580EE9CE00E94D20786
:10470000F2CFCF93DF93FC014481558160817181A9
:1047100088EF9BE00E947502EC0164E077E088EF8F
:104720009BE00E94FC218C0F9D1FDF91CF9108958B
:10473000CF93DF9368EF7BE00E948B22EC0164E073
:1047400077E088EF9BE00E94FC218C0F9D1FDF919A
:10475000CF9108952F923F924F925F926F927F92E6
:104760008F929F92AF92BF92CF92DF92EF92FF9281
:104770001F93CF93DF93EC016A017B01722EAB0193
:104780009601CB01B6010E942E6365E573E08111AD
:1047900026C046015701E894B7F82FEF3FEF4FE7E7
:1047A0005FE7C501B4010E942E6381110CC02FEF99
:1047B0003FEF4FE75FE7C501B4010E948A6069E5FA
:1047C00073E0181664F02FEF3FEF4FE75FE4C70187
:1047D000B6010E9429631816B4F46DE573E0CE01AA
:1047E000DF91CF911F91FF90EF90DF90CF90BF901E
:1047F000AF909F908F907F906F905F904F903F9081
:104800002F900C94FC212FEF3FEF4FE75FECC70197
:10481000B6010E948A6087FDE0CF20E030E0A90168
:10482000C701B6010E948A60312C212C87FF09C084
:104830006DE2CE010E946E021C01F7FAF094F7F8C7
:10484000F09410E060E070E080E09FE3711641F0CA
:1048500020E030E040E251E40E9481621F5FF6CF29
:10486000A70196010E9415622B013C010E94FA6289
:104870004B015C012AE0BC01A401CE010E940B2285
:104880007C01E20CF31C1123C1F1C501B4010E94AB
:104890008F609B01AC01C301B2010E9414624B0105
:1048A0005C016EE2CE010E946E02E80EF91E11500C
:1048B00020F120E030E040E251E4C501B4010E9463
:1048C000F0602B013C010E94FA624B01B12CA12C3B
:1048D0002AE0B501A401CE010E940B22E80EF91EC8
:1048E000C501B4010E948F609B01AC01C301B201FC
:1048F0000E9414624B015C01DACFC701DF91CF91B6
:104900001F91FF90EF90DF90CF90BF90AF909F905E
:104910008F907F906F905F904F903F902F90089571
:10492000CF92DF92EF92FF920F931F93CF93DF937B
:104930007901DC011496CD91DC9140E06AE08D852F
:104940009E850E940B218D859E85DC01ED91FC9159
:104950000190F081E02D60E0199560E28D859E85E3
:104960000E946E0220E0B701A8018D859E850E94FD
:10497000AA236FED8D859E850E946E0263E48D856E
:104980009E85DF91CF911F910F91FF90EF90DF9067
:10499000CF900C946E02CF92DF92EF92FF920F9322
:1049A0001F93CF93DF937901DC011496CD91DC91B5
:1049B00041E06BE08D859E850E940B218D859E8553
:1049C000DC01ED91FC910190F081E02D61E0199501
:1049D00060E28D859E850E946E0220E0B701A801ED
:1049E0008D859E850E94AA2365E28D859E85DF9137
:1049F000CF911F910F91FF90EF90DF90CF900C948B
:104A00006E026115710511F00C94FC2190E080E0BC
:104A10000895EF92FF920F931F93CF93DF93EC01D2
:104A20008B017A01888199810E94192161E673E0E6
:104A3000888199810E94012540E063E08881998105
:104A40000E940B21888199816EEB77E00115110599
:104A500011F46EEF77E00E94012501301105A9F4F1
:104A6000EA94EF2891F440E065E0888199810E9402
:104A70000B2164E673E088819981DF91CF911F91CA
:104A80000F91FF90EF900C940125DF91CF911F9132
:104A90000F91FF90EF900895EF92FF920F931F9365
:104AA000CF93DF938C017B01EA0168E673E088EF26
:104AB0009BE00E940125C7010E9457226FE973E025
:104AC00088EF9BE00E940125CE010E94572264E0FE
:104AD00077E088EF9BE00E94FC21F80180859185BA
:104AE000FC01C130D105F1F4D287C18761E070E0EB
:104AF0000E940C1AF801E480F580828993890E9453
:104B0000E31A41E050E0892B11F050E040E0BE0193
:104B1000C7010D96DF91CF911F910F91FF90EF90FC
:104B20000C9409251286118670E060E0E1CFCF93E6
:104B3000DF93EC01888199810E94192168E773E075
:104B4000888199810E94012541E060E088819981F6
:104B50000E940B2161E873E0888199810E94012500
:104B6000DF91CF910C946515CF93DF93EC01888191
:104B700099810E94192140E060E0888199810E941A
:104B80000B2161E673E088819981DF91CF910C94CC
:104B90000125EF92FF921F93CF93DF93EC017B01EE
:104BA0008885811110C06DE873E088EF9BE00E945A
:104BB00001258E819F810E94572262E973E088EF70
:104BC0009BE00E940125FD82EC8281E0E816F10461
:104BD000B9F068F082E0E816F104D9F0612F8E8117
:104BE000DF91CF911F91FF90EF900C943E04888548
:104BF000811104C084EA93E00E94D12210E0EECF3C
:104C00008885811104C08BEA93E00E94D12212E0D2
:104C1000E5CF8885811104C089EB93E00E94D12201
:104C200011E0DCCF8F929F92AF92BF92CF92DF9232
:104C3000EF92FF920F931F93CF93DF93CDB7DEB721
:104C4000C054D1400FB6F894DEBF0FBECDBF8C016B
:104C50000E94D104F801C788D08CE18CF28C9B01B2
:104C6000AC012C193D094E095F0969017A0130ED4B
:104C7000C31637E0D306E104F104D0F4668970E08E
:104C800090E080E00E948F60C05CDE4F0FB6F89429
:104C9000DEBF0FBECDBFDF91CF911F910F91FF906F
:104CA000EF90DF90CF90BF90AF909F908F9008953E
:104CB000678B708F818F928F128A118A108A178664
:104CC000168661E070E0C8010E94C92561E070E0CD
:104CD00080E090E00E949F0462E070E0C8010E94C2
:104CE000C92570E060E0C8010E940C1AF8018285B5
:104CF00093850297029738F58BE291E10197F1F7DE
:104D000061E070E0C8010E94C925F801838990E044
:104D10008230910538F0880F991F880F991F0597E9
:104D20000197F1F7F89460E0C8010E94D2196F3F33
:104D30007F4F8F4F9F4F71F4F801168A60E070E04B
:104D4000CB017894A1CF64E170E080E090E00E9414
:104D50009F04D6CF61E0C8010E94D2196F3F7F4FF8
:104D60008F4F9F4F49F39E012F5F3F4F79015E01A7
:104D70003FEBA31A3EEFB30A670160E0C8010E944F
:104D8000D219F601608371838283938361E0C80145
:104D90000E94D219F6016483758386839783F8E0B5
:104DA000CF0ED11CAC14BD0441F730E020E0F70178
:104DB00080809180A280B380448155816681778113
:104DC000FFEF8F169F06AF06BF0609F4B5CF4F3F22
:104DD0008FEF58076807780709F4AECFF90183E031
:104DE000F595E7958A95E1F7E00FF11F8685880F25
:104DF00084169506A606B70618F186872F5F3F4FE3
:104E000098E0E90EF11C2832310589F6F801428953
:104E100026858785280F3327331F8089280F311D6A
:104E20008189820F932F911D99274817190609F040
:104E300083CF81E0868B60E070E080E89FE381CFE4
:104E40008160DBCFCF92DF92EF92FF92CF93DF931F
:104E5000FC01C08DD18DCE010E94122620E030E0F1
:104E6000A9010E948A608823C1F18A859B858230CE
:104E7000910590F0049788F56E857F8576276727E2
:104E8000762790E080E00E948F602DEC3CEC4CECAB
:104E90005DE30E94F0601AC06F8570E090E080E0F2
:104EA0000E9491602DEC3CEC4CEC5DE30E94F060C4
:104EB0006B017C016E8570E090E080E00E94916063
:104EC0009B01AC01C701B6010E941562DF91CF9131
:104ED000FF90EF90DF90CF90089560E070E080EC5D
:104EE0009FE7F4CFCF92DF92EF92FF921F93CF9381
:104EF000DF93FC01C08DD18DCE010E94122620E0EF
:104F000030E0A9010E948A60882309F47BC08A8569
:104F10009B858130910509F457C0B8F0049708F0DB
:104F200071C01889612F70E0762F662766277F771A
:104F30008989682B90E080E00E948F602DEC3CEC2A
:104F40004CEC5DE30E94F06059C0688970E090E02D
:104F500080E00E948F606B017C01198917FF0AC0F5
:104F6000AC019B0160E070E080E89FEB0E9414625E
:104F70006B017C011F70612F70E090E080E00E9467
:104F800091602DEC3CEC4CEC5DE30E94F060A701DD
:104F900096010E9415622C853D852130310561F412
:104FA00020E030E040E052E40E94146226E838E35A
:104FB0004EE05FE30E94F060DF91CF911F91FF9080
:104FC000EF90DF90CF9008951889612F70E090E006
:104FD00080E00E948F606B017C0169896F7070E0D6
:104FE00090E080E00E9491602DEC3CEC4CEC5DE3A5
:104FF0000E94F060A70196010E94156217FFCBCFB7
:105000009058C9CF60E070E080EC9FE7D5CFCF9398
:10501000DF93EC016C817D810E94C92581E0888746
:10502000DF91CF910895CF93DF93EC018E819F8123
:10503000FC01EC54FC4FE491EC8BFC01E259FC4F79
:10504000E491ED8B80E89EE3A0E0B0E08B8F9C8F35
:10505000AD8FBE8F0E94D104605D774081099109B8
:105060006F8B788F898F9A8F89858B8BCE01DF919B
:10507000CF910C940728EF92FF920F931F93CF9339
:10508000DF938C017B01EA0161EC73E088EF9BE028
:105090000E940125C7010E9457226FE973E088EF43
:1050A0009BE00E940125CE010E94572264E077E038
:1050B00088EF9BE00E94FC21F80182859385FC012A
:1050C000C130D105F1F4D287C18761E070E00E9460
:1050D0000C1AF801E480F580868597850E94E31A12
:1050E00061E070E0892B11F070E060E0AE01C70173
:1050F0000D96DF91CF911F910F91FF90EF900C943F
:1051000009251286118670E060E0E1CFFB01019075
:105110000020E9F73197AF01461B570B0C9401179C
:105120000F931F93CF938C01C0E0F8018481C817BF
:1051300038F46FEC73E0C8010E948628CF5FF5CF8A
:10514000CF911F910F9108954F925F926F927F922E
:105150008F929F92AF92BF92CF92DF92EF92FF9287
:105160000F931F93CF93DF93CDB7DEB7A1970FB601
:10517000F894DEBF0FBECDBFFC018B0194819F77F9
:10518000963009F46CC150F4923090F0943008F0ED
:105190002BC14281538160817181E5C09C3009F44B
:1051A00043C048F4983009F455C19A3009F43BC122
:1051B00066ED73E035C0903209F4D9C09034C1F780
:1051C000E080F1806FED73E0E114F10449F16BEDE3
:1051D00073E0C8010E948628F80184818F5F848370
:1051E000C8010E949028B801C7010E94A428C701E5
:1051F0000E948C1E7C0162ED73E0892B11F464E047
:1052000077E0C8010E948628E114F10449F7F8010B
:10521000848181508483C8010E94902860EE73E0ED
:10522000C8010E948628E5C080809180A280B3805A
:10523000A5019401C501B4010E948A608111B8CF13
:1052400020E030E0A901C501B4010E948A608823F2
:1052500079F0A5019401C501B4010E9415629B017A
:10526000AC01C501B4010E948A60882309F4A0CF73
:1052700020E030E0A901C501B4010E948A6087FFE7
:1052800008C06DE2C8010E946B15B7FAB094B7F878
:10529000B0946E0127E1C20ED11CB501A401C60174
:1052A0000E9480154F89588D698D7A8DC8010E94A2
:1052B0001617F9A0FF2091F16B8D7C8D8D8D9E8D41
:1052C0004E01E1E18E0E911CEF2C54012AE0422E9A
:1052D000512C612C712CEA94FFEFEF1659F0A301C9
:1052E00092010E94E361605DF40162934F01B90194
:1052F000CA01F1CF8F2D90E0BC0160957095F5014A
:10530000E81BF90B31978EE2808344275527461B13
:10531000570B6A0D7B1DC8010E9401178F8D98A144
:10532000892B09F466C065E6C8010E946B15EF8CF5
:10533000F8A0C701F7FE08C06DE2C8010E946B1516
:10534000882799278E199F09F6012AE030E0B901D4
:105350000E943F63805D8293CB010097C1F7A60155
:105360004E1B5F0BBF01C8010E94011742C0E080C5
:10537000F18066EE73E0E114F10409F451CF62EEBE
:1053800073E0C8010E948628F80184818F5F8483BE
:10539000C8010E949028F70166817781C8010E94A8
:1053A000621763E776E0C8010E948628B801C7014A
:1053B0000E94A428C7010E948C1E7C0162ED73E04C
:1053C000892B11F464E077E0C8010E948628E1147B
:1053D000F104F1F6F801848181508483C8010E94B0
:1053E000902867EE73E01CCF60817181C8010E9434
:1053F0006217F80182819381A1960FB6F894DEBFFF
:105400000FBECDBFDF91CF911F910F91FF90EF9015
:10541000DF90CF90BF90AF909F908F907F906F90D4
:105420005F904F900895C080D180E280F380B701F3
:10543000A601F7FE0BC06DE2C8010E946B15442760
:105440005527BA014C195D096E097F09C8010E94F0
:105450001617CFCF4081518162817381F7CF808150
:1054600069EE73E08111DCCE6EEE73E0D9CECF939E
:10547000DF93EC0188819981009711F00E94FE630F
:10548000198218821D821C821B821A82DF91CF91A1
:105490000895FC0180819181009711F00C94FE63C6
:1054A0000895CF93DF93EC01898D9A8D009741F099
:1054B0000E94E112898D9A8D0E94FE631A8E198EC8
:1054C000DF91CF910895FC0181819281009711F0C5
:1054D0000C94FE630895DC0183E193E08D939D932A
:1054E00084E0FB0101900D928A95E1F70895EF9217
:1054F000FF920F931F93CF93DF93EC017B018A01FF
:105500001B821A8288EE93E0A0E0B0E08C839D833A
:10551000AE83BF8381ED92E0998388838DE190E033
:105520000E9462639A8F898F009779F02DE1F701CD
:10553000DC0101900D922A95E1F74CE050E0B801B2
:10554000CE010C960E94AE65188EDF91CF911F910F
:105550000F91FF90EF900895CF93DF93EC01A88116
:10556000B981EB01E881F9811097F1F03097B1F43E
:10557000EC018C819D81892BC9F08C9190E00BC04E
:10558000DB0114968D919C91892B81F0808190E0B4
:10559000919581959109DF91CF910895BF01CD013A
:1055A000DF91CF910C949065309751F790E080E0B7
:1055B000F2CF8617970739F0009741F06115710512
:1055C00041F00C94906590E080E008958FEF9FEF9C
:1055D000089581E090E00895EF92FF920F931F935A
:1055E000CF93DF937B01FC01C081D18102811381C4
:1055F000C017D10760F4BE01F701808191810E943C
:10560000D92A892B31F089918111FDCFF1CFD0E0DA
:10561000C0E0CE01DF91CF911F910F91FF90EF90ED
:105620000895CF92DF92EF92FF920F931F93CF9343
:10563000DF93FB01C080D180C114D104E1F07C0173
:105640000E94EC2AEC01892B31F5F6010190002033
:10565000E9F731978F010C191D09F701C281D38138
:10566000C80101968C0F9D1F2481358128173907A9
:1056700028F481E08087D0E0C0E00DC0938382836E
:10568000209749F0A801B601CE010E947565FE0180
:10569000E00FF11F1082CE01DF91CF911F910F918A
:1056A000FF90EF90DF90CF9008950F931F93CF93CB
:1056B000DF938B01EC01892B59F06E817F81C8014A
:1056C0000E94D92A892B21F0CE010E948C1EF2CF94
:1056D000CE01DF91CF911F910F9108954F925F926C
:1056E0006F927F928F929F92AF92BF92CF92DF92F2
:1056F000EF92FF920F931F93CF93DF931F921F920E
:10570000CDB7DEB78C017B01D42E0E94D217582E64
:10571000811115C0512C852D0F900F90DF91CF91E5
:105720001F910F91FF90EF90DF90CF90BF90AF90BF
:105730009F908F907F906F905F904F900895C801D9
:105740000E94A717873209F44BC11CF5823209F475
:1057500047C1C8010E94A717C82E5801B1E1AB0E7E
:10576000B11CD12C45018C2D0E948F17882309F480
:105770007CC1EFE3DE1609F478C1D8011E961C92B5
:10578000D394F501C1925F01C8010E94A717C82EEA
:10579000EACF8B3509F464C08B37D9F6F7018481E1
:1057A0008078806284831182108213821282DD20CD
:1057B00009F468C0D8011E961C92C8010E94D21735
:1057C000882309F4A7CF6DE7C8010E94C117811192
:1057D000A2CF44244A944D0CD801ED91FC9111972D
:1057E0008281938113969C938E93129784819581E5
:1057F00022813381821B930B17969C938E9316976D
:1058000015961C921E921497C8010E94A717873202
:1058100009F47EC0823209F47BC0C8010E94A71738
:10582000D82E0E948F17882309F46CC0F8011686C1
:105830006D2DC8010E94501BC8010E94A717D82EC9
:105840000E948F178111F2CF60E0C8010E94501BA7
:10585000D80112968D919C91892B09F05FC032C0BE
:10586000D70114968C9114978078806414968C9349
:10587000149711961C921E9213961C921E921297C8
:10588000D11008C0F801EF5AFF4F85E090E09183F6
:10589000808340CFF8011686C8010E94D217882362
:1058A00009F438CF6DE5C8010E94C117811133CFCB
:1058B000DA94D8011F966D917C91C7010E94421E17
:1058C000009731F4F801EF5AFF4F84E090E0DFCF0A
:1058D0004D2DBC01C8010E946E2B882309F41ACFFC
:1058E000C8010E94D217882309F414CF6DE5C801BE
:1058F0000E94C11781110FCF6CE2C8010E94C1172D
:105900008111D7CFF801EF5AFF4F83E090E0BFCF6E
:10591000C8010E946E1B882309F4FCCEC8010E94B6
:10592000D217882309F4F6CE6AE3C8010E94C11792
:10593000882341F3F80162817381D7018D919C9195
:105940000E94552BBC01892B59F5F80160807180AC
:1059500084809580D3011296AD90BC90BA82A982C2
:10596000BE016F5F7F4FC3010E94EC2A6C01892B3F
:1059700031F48A0C9B1CF301938282826501D80169
:105980001F966D917C91C7010E94421EFC01892BDC
:1059900009F498CF848180688483D782C682BF014E
:1059A000442DC8010E946E2B882309F4B3CEC80190
:1059B0000E94D217882309F4ADCE6DE7C8010E947A
:1059C000C1178111A8CE6CE2C8010E94C1178823BB
:1059D00009F498CFC8010E94D2178111FDCE9ACE4A
:1059E000D801ED91FC9111978281938113969C933C
:1059F0008E9312978481958122813381821B930B30
:105A000017969C938E93169715961C921E92149738
:105A1000C8010E946E1B582E882309F47BCEF80122
:105A2000C080D18004811581D6011296AD90BC90C2
:105A3000BA82A982BE016F5F7F4FC6010E94EC2A25
:105A40009C01892B31F40A0D1B1DF601138302837F
:105A50009501D70114969C911497907895601496AF
:105A60009C9314972D933C9356CEF801ED0DF11DA8
:105A7000118AD80151968C91843789F4F701848179
:105A800080788660848381E08083F4E0DF1609F407
:105A900042CEF801EF5AFF4F82E090E0F8CE863612
:105AA00071F4D70114968C911497807886601496BF
:105AB0008C9314971C92B5E0DB12EBCF2CCE8E3674
:105AC00021F4E4E0DE12E5CF26CEB701C4010E9446
:105AD000611C882309F416CF1ECE0F931F93CF931A
