:100000000C9474010C94A5010C94A5010C94A50109
:100010000C94A5010C94A5010C94A5010C94A501C8
:100020000C94A5010C94A5010C94A5010C94A501B8
:100030000C94A5010C94A5010C94A5010C94A501A8
:100040000C94A5010C94A5010C94A5010C94A50198
:100050000C94A5010C94A5010C94A5010C948C0B97
:100060000C94A5010C94560B0C942C0B0C94A5012C
:100070000C94A5010C94A5010C94A5010C94A50168
:100080000C94A5010C94A5010C94A5010C94A50158
:100090000C94A5010C94A5010C94A5010C94D60B0D
:1000A0000C94A5010C94A5010C94A5010C94A50138
:1000B0000C94A5010C94A5010C94A5010C94A50128
:1000C0000C94A5010C94A5010C94A5010C94A50118
:1000D0000C94A5010C94A5010C94A5010C94A50108
:1000E0000C94A5010C94D7010C9496070C94A207CC
:1000F0000C9402030C94AB070C9408020C94CC07EC
:100100000C9441030C94B4070C948D020C940108D8
:100110000C9421030C944B070C9440020C94741320
:100120000C941B030C948A070C94FC020C94150786
:100130000C9419080C947C090C94E6060C94900617
:100140000C94AA010C9433030C94FA0C0C942E0A10
:100150000C94B2060C94D8070C94C0070C94690355
:100160000C947E070C94E6010C94A9010C941703DF
:100170000C94B9060C94FA010C9429030C94A70171
:100180000C94E9070C9406030C9437030C940A03AF
:100190000C942F030C943D030C940D080C949F06B3
:1001A0000C940E030C948F060C9478070C943C036B
:1001B0000C9411030C94F5070C94A8010C942503DE
:1001C0000C946E0700002100240027002A002D0057
:1001D0003000330001010000040107010A010000A2
:1001E0002200250028002B002E00310034000201DF
:1001F0000000050108010B0100002000230026007B
:1002000029002C002F00320000010000030106012C
:10021000090105050505070508080808020202028C
:100220000A0A080804040404010101010101010192
:100230000303030303030303040707070C0C0C0C5D
:100240000C0C0C0C02020202060606060606060646
:100250000B0B0B0B0B0B0B0B0102102020080810D3
:100260002040102040800201020108040201010226
:1002700004081020408080402010080402018004FF
:10028000020180402010080402010804020101025A
:100290000408102040800102040810204080000063
:1002A0000A0B02090C0D0E080703040100000000F0
:1002B000000000000000000000000000000000003E
:1002C00000000000000000000000121110000000FB
:1002D000000000000000000000000000000000001E
:1002E00000000000FA0C741311241FBECFEFD1E2FE
:1002F000DEBFCDBF00E00CBF24E0AEE6B3E001C03E
:100300001D92A43FB207E1F713E0A0E0B2E0EAE6F5
:10031000F1E300E00BBF02C007900D92AE36B107CB
:10032000D9F711E0C3E7D1E000E006C02197010949
:10033000802FFE010E94A613C237D10780E0080774
:10034000A9F70E94510D0C94A3180C940000089575
:1003500008950895AF92BF92CF92DF92EF92FF92ED
:100360000F931F93CF93DF936C017B018B01040FDD
:10037000151FEB015E01AE18BF08C017D10759F079
:100380006991D601ED91FC910190F081E02DC601BB
:100390001995892B79F7C501DF91CF911F910F91A5
:1003A000FF90EF90DF90CF90BF90AF900895FC0149
:1003B000538D448D252F30E0842F90E0821B930BCA
:1003C000541710F0CF96089501970895FC01918D70
:1003D000828D981761F0A28DAE0FBF2FB11D5D9673
:1003E0008C91928D9F5F9F73928F90E008958FEF15
:1003F0009FEF0895FC01918D828D981731F0828DC9
:10040000E80FF11D858D90E008958FEF9FEF08951F
:10041000FC01918D228D892F90E0805C9F4F821B83
:1004200091098F739927089581E394E00E9408024F
:1004300021E0892B09F420E0822F0895FC01A48D8E
:10044000A80FB92FB11DA35ABF4F2C91848D90E0F6
:1004500001968F739927848FA689B7892C93A089D9
:10046000B1898C91837080648C93938D848D981363
:1004700006C00288F389E02D80818F7D80830895F6
:10048000EF92FF920F931F93CF93DF93EC0181E0E4
:10049000888F9B8D8C8D98131AC0E889F98980818B
:1004A00085FF15C09FB7F894EE89FF896083E889BE
:1004B000F98980818370806480839FBF81E090E0B0
:1004C000DF91CF911F910F91FF90EF900895F62E3D
:1004D0000B8D10E00F5F1F4F0F731127E02E8C8DD7
:1004E0008E110CC00FB607FCFACFE889F98980811C
:1004F00085FFF5CFCE010E941E02F1CFEB8DEC0FF0
:10050000FD2FF11DE35AFF4FF0829FB7F8940B8F38
:10051000EA89FB8980818062CFCFCF93DF93EC01A2
:10052000888D8823B9F0AA89BB89E889F9898C91DB
:1005300085FD03C0808186FD0DC00FB607FCF7CF97
:100540008C9185FFF2CF808185FFEDCFCE010E9497
:100550001E02E9CFDF91CF91089580E090E0892BD2
:1005600029F00E94140281110E94000080E090E0B6
:10057000892B49F080E090E0892B29F00E9400004F
:1005800081110E94000080E090E0892B49F080E01A
:1005900090E0892B29F00E94000081110E94000048
:1005A00080E090E0892B49F080E090E0892B29F0F1
:1005B0000E94000081110C94000008958150823146
:1005C00008F05AC0E82FF0E08827E651FD4F8F4F22
:1005D0000C94A6130A030E03FC02020306033C0359
:1005E000110317031B032103250329032F033303DF
:1005F0003C0337033D034103809180008F77809354
:1006000080000895809180008F7DF9CF80918000D7
:10061000877FF5CF84B58F7784BD089584B58F7DAE
:10062000FBCF8091B0008F778093B00008958091C8
:10063000B0008F7DF9CF809190008F7780939000EC
:100640000895809190008F7DF9CF80919000877FF1
:10065000F5CF8091A0008F778093A00008958091BE
:10066000A0008F7DF9CF8091A000877FF5CF80918A
:1006700020018F77809320010895809120018F7D44
:10068000F9CF80912001877FF5CFCF93DF93EAEAFE
:10069000F2E08491E4E6F2E0D491EEE1F2E0C4917C
:1006A000CC23A1F081110E94DE02EC2FF0E0EE0FCE
:1006B000FF1FE850FE4FA591B491EC91ED2381E02E
:1006C00090E009F480E0DF91CF91089580E090E020
:1006D000FACF0C9445031F93CF93DF93282F30E07C
:1006E000F901E256FD4F8491F901E85AFD4FD4918A
:1006F000F901EE5EFD4FC491CC23A9F0162F8111B4
:100700000E94DE02EC2FF0E0EE0FFF1FE252FE4FE0
:10071000A591B4918FB7F894EC91111108C0D095C0
:10072000DE23DC938FBFDF91CF911F910895DE2BE5
:10073000F8CFCF93DF9390E0FC01E85AFD4F24916E
:100740008E5E9D4FFC0184918823C9F090E0880F54
:10075000991FFC01EC53FE4FA591B491FC01E252AC
:10076000FE4FC591D49161110DC09FB7F8948C9143
:10077000209582238C938881282328839FBFDF9133
:10078000CF910895623051F49FB7F8943C91822F35
:10079000809583238C93E8812E2BEFCF8FB7F8942D
:1007A000EC912E2B2C938FBFEACF3FB7F89480911A
:1007B000B7039091B803A091B903B091BA0326B5DD
:1007C000A89B05C02F3F19F00196A11DB11D3FBF89
:1007D000BA2FA92F982F8827BC01CD01620F711D58
:1007E000811D911D42E0660F771F881F991F4A9552
:1007F000D1F708958F929F92AF92BF92CF92DF92DE
:10080000EF92FF924B015C010E94D5036B017C01CA
:100810000E94D5036C197D098E099F09683E7340BB
:1008200081059105A8F321E0821A9108A108B10879
:1008300088EEC80E83E0D81EE11CF11C81149104DF
:10084000A104B10429F7FF90EF90DF90CF90BF9003
:10085000AF909F908F9008952FB7F8946091B30355
:100860007091B4038091B5039091B6032FBF0895A2
:100870000F931F930E942C046093390470933A04E1
:1008800080933B0490933C0481E394E00E94E60152
:1008900097FF1DC00E942C040091390410913A0466
:1008A00020913B0430913C04601B710B820B930B35
:1008B00000913504109136042091370430913804AA
:1008C0006017710782079307F8F28FEF9FEF1F9170
:1008D0000F91089520918F03260F3327331F213264
:1008E0003105ECF420910704FC0190E080E0243015
:1008F00069F082E00895A0918F032191AC014159E4
:100900005C4FA40FB52FB11D2C930196861798F359
:1009100080918F03680F60938F0380E0089581E0DA
:1009200008951092070481E0809306041092E10379
:1009300061E084E10E946B0361E085E10E946B034A
:10094000E9EBF0E080818E7F808380818D7F8083E2
:1009500088E48093B80085E48093BC000895CF9329
:10096000DF9391E090936E038823B9F0C091B800B3
:10097000D091BA008091BC008A7B8093BC0060E07B
:1009800084E10E946B0360E085E10E946B030E949A
:100990009104D093BA00C093B800DF91CF9108952D
:1009A0008F929F92AF92BF92CF92DF92EF92FF927F
:1009B0000F931F93CF93DF93D0913004D13208F07F
:1009C000D7C0182FC0912F040E94D5036B017C0162
:1009D0008091070481116BC082E08093070410931B
:1009E00006048FEF8093050410920404D09303044F
:1009F000AFE0B4E0E3EEF3E080E0D81391C01092F2
:100A0000E2038091E203CC0FC82BC093E2038091F4
:100A1000E103813009F088C01092E1030E94D50300
:100A20006B017C018091E2038093BB0080910904FB
:100A300090910A04A0910B04B0910C04892B8A2B8D
:100A40008B2BA1F00E94D5030091090410910A0498
:100A500020910B0430910C046C197D098E099F09BB
:100A6000061717072807390708F442C08091BC0011
:100A700083FDD8CF85EC8093BC000E94D5036B0129
:100A80007C0180910704823009F450C080910504F4
:100A90008F3F09F46FC080910504803209F46CC067
:100AA00080910504803309F469C084E026C08091F8
:100AB000090490910A04A0910B04B0910C04892BB5
:100AC0008A2B8B2B09F484CF0E94D50380900904D4
:100AD00090900A04A0900B04B0900C046C197D094E
:100AE0008E099F0986169706A806B90608F070CFEA
:100AF000809108040E94AF0485E010920E041092C9
:100B0000300410920D04DF91CF911F910F91FF904F
:100B1000EF90DF90CF90BF90AF909F908F9008950F
:100B20009D9191938F5F69CF85EEA5CF8091090448
:100B300090910A04A0910B04B0910C04892B8A2B8C
:100B40008B2B09F49ECF0E94D503009109041091CC
:100B50000A0420910B0430910C046C197D098E0954
:100B60009F09061717072807390708F08ACFC0CF53
:100B700081E0C3CF80E0C1CF82E0BFCF83E0BDCFB3
:100B8000CF92DF92EF92FF920F931F93CF93DF9359
:100B9000D82FC62F613208F098C00E94D5036B0190
:100BA0007C018091070481116BC081E08093070470
:100BB000809306049FEF90930504109204049C0F09
:100BC000909303048093E2038091E203DD0FD82B1E
:100BD000D093E2038091E103813009F078C0109254
:100BE000E1030E94D5036B017C018091E2038093B5
:100BF000BB008091090490910A04A0910B04B0916C
:100C00000C04892B8A2B8B2BA1F00E94D503009119
:100C1000090410910A0420910B0430910C046C1902
:100C20007D098E099F09061717072807390708F459
:100C300048C08091BC0083FDD8CF85EC8093BC0078
:100C40000E94D5036B017C0180910704813009F477
:100C500040C0809104048C1710F4C0910404E3EEAA
:100C6000F3E0A1ECB3E080E08C1355C08C2FDF9152
:100C7000CF911F910F91FF90EF90DF90CF9008954B
:100C80008091090490910A04A0910B04B0910C0486
:100C9000892B8A2B8B2B09F484CF0E94D5030091DA
:100CA000090410910A0420910B0430910C046C1972
:100CB0007D098E099F09061717072807390708F0CD
:100CC00070CF809108040E94AF04C0E0CFCF85EEC2
:100CD000B5CF8091090490910A04A0910B04B091C2
:100CE0000C04892B8A2B8B2B09F4AECF0E94D503E1
:100CF0000091090410910A0420910B0430910C0416
:100D00006C197D098E099F090617170728073907EF
:100D100008F09ACFD6CF91919D938F5FA5CF08957C
:100D2000E091C0038091BF03E81730F4F0E0EF5387
:100D3000FC4F808190E008958FEF9FEF0895909190
:100D4000C0038091BF032FEF3FEF981748F4E92FBE
:100D5000F0E0EF53FC4F208130E09F5F9093C003A1
:100D6000C90108958091BF039091C003891B990B1D
:100D70000895CF92DF92EF92FF920F931F93CF933C
:100D8000DF937C01CB018A0120910D04222389F09D
:100D9000EB016B01C40ED51ECC15DD0569F0699120
:100DA000D701ED91FC910190F081E02DC7011995DB
:100DB000F3CF642F0E946A04C801DF91CF911F9185
:100DC0000F91FF90EF90DF90CF900895CF93DF9336
:100DD0001F92CDB7DEB7698320910D042223F9F06D
:100DE00020913004203258F021E030E0FC013383C0
:100DF000228390E080E00F90DF91CF910895809161
:100E00000E04E82FF0E0E15FFB4F998190838F5F44
:100E100080930E048093300481E090E0ECCF61E099
:100E2000CE0101960E946A04F7CF90E080E0089519
:100E3000CF93C62F91E090930D0498E690932F04E2
:100E400010920E0410923004682F8EEC94E00E94F1
:100E5000E6066C2F8EEC94E00E94E60681E0CF91CE
:100E60000C94D0040F931F93CF93DF93FC01C481A4
:100E7000D58180819181019739F48C2FDF91CF91B9
:100E80001F910F910C946B038B0161E08C2F0E94DA
:100E90009903012B11F460E0F0CFFE01FF27E25629
:100EA000FD4FE491E150E231B0F7F0E08827E45AD9
:100EB000F84F8F4F0C94A6136E0778077E078A07AA
:100EC00096074B07A207AB07B407C007CC07D807A4
:100ED000E907F5074B0701080D08190884B5806874
:100EE00084BD81E087BDDF91CF911F910F9108955F
:100EF00084B5806284BD81E088BDF5CF809180009B
:100F000080688093800081E090E0909389008093D6
:100F10008800E9CF8091800080628093800081E02A
:100F200090E090938B0080938A00DDCF80918000C9
:100F300088608093800081E090E090938D008093A2
:100F40008C00D1CF8091B00080688093B00081E0A8
:100F50008093B300C8CF8091B00080628093B000CE
:100F600081E08093B400BFCF80919000806880932F
:100F7000900081E090E09093990080939800B3CF27
:100F80008091900080628093900081E090E0909347
:100F90009B0080939A00A7CF8091900088608093F7
:100FA000900081E090E090939D0080939C009BCF07
:100FB0008091A00080688093A0008091A0008F7B2A
:100FC0008093A00081E090E09093A9008093A80016
:100FD0008ACF8091A00080628093A00081E090E0A1
:100FE0009093AB008093AA007ECF8091A000886090
:100FF0008093A00081E090E09093AD008093AC00DE
:1010000072CF8091200180688093200181E090E080
:10101000909329018093280166CF809120018062FE
:101020008093200181E090E090932B0180932A012E
:101030005ACF8091200188608093200181E090E068
:1010400090932D0180932C014ECF0F931F93CF933C
:10105000DF93EC018B0186E090E00E94AE13FC016F
:101060001382128215821482118300838A819B81EC
:10107000892B71F4FB83EA83FD83EC83888199815A
:10108000019699838883DF91CF911F910F910895E5
:10109000AC81BD811596FC93EE931497EDCF61154D
:1010A000710579F0FB0101900020E9F73197AF015C
:1010B000461B570BDC01ED91FC910280F381E02D82
:1010C000199490E080E008958F929F92AF92BF9222
:1010D0000F931F93CF93DF93CDB7DEB7A1970FB6D2
:1010E000F894DEBF0FBECDBF19A2423008F44AE02B
:1010F0008E010F5D1F4F842E912CB12CA12CA501C8
:1011000094010E948413E62FB901CA01EA30E4F485
:10111000E05DD801EE938D01232B242B252B79F74D
:10112000BD0181E394E00E944F08A1960FB6F894A8
:10113000DEBF0FBECDBFDF91CF911F910F91BF904A
:10114000AF909F908F900895E95CE3CFCF92DF92AC
:10115000EF92FF92CF93DF936B017C016DE281E30D
:1011600094E00E944002EC0166277727CB016C19BE
:101170007D098E099F094AE00E9464088C0F9D1F1B
:10118000DF91CF91FF90EF90DF90CF90089542E0F4
:1011900050E066E372E081E394E00C94AA01CF93FF
:1011A000DF93BC0181E394E00E944F08EC010E94B0
:1011B000C7088C0F9D1FDF91CF910895FC0180819E
:1011C0009181009711F00C944A140895CF93DF9306
:1011D000EC0160E08E810E946B0361E08E810E94D1
:1011E0006B0360E08E810E946B038BE891E00197B6
:1011F000F1F7DF91CF910895CF92DF92EF92FF92B6
:101200000F931F93CF93DF936C017C0187E0E80E6F
:10121000F11CD0E0C0E0062F10E0B8010C2E02C097
:10122000759567950A94E2F76170F70181917F01E6
:101230000E946B032196C430D10579F7C601DF9176
:10124000CF911F910F91FF90EF90DF90CF900C9472
:10125000E608CF92DF92EF92FF920F931F93CF9306
:10126000DF93EC01F62E642F8C810E946B038D813D
:101270008F3F19F060E00E946B030F2D10E08F8507
:1012800084FF25C06E0187E0C80ED11CF12CE12C33
:10129000B8010E2C02C0759567950A94E2F761704B
:1012A000F60181916F010E946B03FFEFEF1AFF0AB5
:1012B00088E0E816F10461F7CE01DF91CF911F912C
:1012C0000F91FF90EF90DF90CF900C94E608B8015B
:1012D00084E0759567958A95E1F7CE010E94FC0838
:1012E0006F2DCE01DF91CF911F910F91FF90EF9065
:1012F000DF90CF900C94FC0841E00E94290981E026
:1013000090E0089540E00C942909FC0123896217BC
:1013100010F06FEF620FFC01E60FF11D6489606849
:101320000C9482090F931F93CF93DF93EC016230EB
:1013300019F48F8588608F876B8B1C8A80E48D8B76
:1013400080E18E8B80E58F8B61E08C810E94990318
:101350008D818F3F19F061E00E94990361E08E81D9
:101360000E9499038E0198012C1B3D0B8F8584FDF3
:101370000DC084E090E00F5F1F4F281739074CF431
:1013800061E0F80186810E949903EDCF88E090E04A
:10139000F2CF8BE39DE00197F1F760E08C810E9432
:1013A0006B0360E08E810E946B038D818F3F19F08B
:1013B00060E00E946B036F8564FD39C063E0CE017D
:1013C0000E94FC080BE416E4C8010197F1F763E002
:1013D000CE010E94FC08C8010197F1F763E0CE013D
:1013E0000E94FC0883E592E00197F1F762E0CE01EC
:1013F0000E94FC086F856062CE010E94820984E031
:10140000888B6CE0CE010E94820961E0CE010E94CF
:1014100082098BE39FE10197F1F782E0898B66E017
:10142000CE01DF91CF911F910F910C9482096062E0
:10143000CE010E9482098BE496E40197F1F76F8553
:101440006062CE010E94820983E592E00197F1F784
:101450006F856062CE010E948209CCCFEF92FF922D
:101460000F931F93CF93DF937C01EB018A0169E314
:1014700072E081E394E00E944F08BE01DD0F880B0B
:10148000990B97FF26C00E94A60869E472E081E3E9
:1014900094E00E944F08B801012E000C880B990BB4
:1014A00097FF1BC00E94A6080E94C708F70184810D
:1014B0009581FC0101301105A1F41783068361E0D9
:1014C00070E0DF91CF911F910F91FF90EF900C94FE
:1014D00032074AE00E946408D8CF4AE00E946408BC
:1014E000E3CF1782168270E060E0EBCF0F931F937B
:1014F000CF93DF93EC0188819981009759F02A817D
:101500003B812617370730F081E0DF91CF911F91A3
:101510000F9108958B016F5F7F4F0E94D314009746
:1015200059F0998388831B830A832C813D81232B67
:1015300059F7FC011082E8CF80E0E7CFEF92FF92ED
:101540000F931F93CF93DF93EC017B018A01BA01C4
:101550000E94760A28813981811114C02115310534
:1015600019F0C9010E944A14198218821D821C8236
:101570001B821A82CE01DF91CF911F910F91FF90B4
:10158000EF9008951D830C83B701C9010E94C61511
:10159000F1CFFB0101900020E9F73197AF01461B25
:1015A000570B0C949E0ACF93DF93EC01FB01861737
:1015B000970749F0608171816115710541F044819F
:1015C00055810E949E0ACE01DF91CF9108958881B6
:1015D0009981009711F00E944A14198218821D8285
:1015E0001C821B821A82EFCF85ED8093BC00809114
:1015F000090490910A04A0910B04B0910C04079681
:10160000A11DB11D23E0B695A795979587952A95BD
:10161000D1F72091BC0024FD03C010920704089567
:101620004091090450910A0460910B0470910C04DC
:10163000452B462B472B69F30097A105B10541F0D7
:1016400025E32A95F1F700000197A109B109E1CF3F
:10165000809108040C94AF041F920F920FB60F9262
:1016600011240BB60F922F933F934F935F936F9379
:101670007F938F939F93AF93BF93EF93FF9381E3F8
:1016800094E00E941E02FF91EF91BF91AF919F9154
:101690008F917F916F915F914F913F912F910F901B
:1016A0000BBE0F900FBE0F901F9018951F920F92B8
:1016B0000FB60F9211240BB60F922F938F939F9317
:1016C000EF93FF93E0914104F09142048081E09117
:1016D0004704F091480482FD1DC0908180914A0426
:1016E0008F5F8F7320914B04821741F0E0914A0481
:1016F000F0E0EF5CFB4F958F80934A04FF91EF91F0
:101700009F918F912F910F900BBE0F900FBE0F9056
:101710001F9018958081F2CF1F920F920FB60F92F3
:1017200011242F933F938F939F93AF93BF938091F7
:10173000B3039091B403A091B503B091B603309177
:10174000B20323E0230F2D3758F50196A11DB11DDB
:101750002093B2038093B3039093B403A093B50393
:10176000B093B6038091B7039091B803A091B903E9
:10177000B091BA030196A11DB11D8093B703909358
:10178000B803A093B903B093BA03BF91AF919F91EF
:101790008F913F912F910F900FBE0F901F90189532
:1017A00026E8230F0296A11DB11DD2CF1F920F92E2
:1017B0000FB60F9211240BB60F922F933F934F93B6
:1017C0005F936F937F938F939F93AF93BF93EF93A9
:1017D000FF938091B900887F803609F44DC008F0EE
:1017E00040C0883209F4A9C028F5803109F49DC0B1
:1017F000C8F4882309F4FBC0883009F496C0FF912F
:10180000EF91BF91AF919F918F917F916F915F9178
:101810004F913F912F910F900BBE0F900FBE0F90E5
:101820001F901895883109F488C0803241F7809361
:10183000050414C0803409F49DC040F48033B9F32A
:101840008833E9F68093050485ECB0C0803509F44F
:1018500085C0883509F496C0883489F60E94F40A58
:10186000CECF883909F48CC038F5883729F050F488
:10187000883611F0803719F683E0809307041092C0
:10188000B10357C0883809F47BC0803919F080381B
:1018900009F0B5CF8091B103803208F071C0E091BA
:1018A000B10381E08E0F8093B1038091BB00F0E023
:1018B000EF56FC4F80833DC0803B39F0E0F4803A26
:1018C00009F479C0883A09F09ACF84E0809307043C
:1018D0001092900310928F03E091BD03F091BE032C
:1018E000199580918F0381110FC081E080938F0340
:1018F00010926F0309C0803C09F4A6CF883C09F41C
:10190000A3CF883B09F07BCFE091900381E08E0F5D
:1019100080939003F0E0E159FC4F80818093BB00FD
:101920009091900380918F0329C08091E20380936E
:10193000BB0085EC8093BC0062CF90910404809141
:101940000304981758F5E091040481E08E0F80930A
:101950000404F0E0ED51FC4F8081E9CFE0910404F4
:1019600081E08E0F809304048091BB00F0E0ED5184
:10197000FC4F808390910404809103049817C8F26F
:1019800085E8D8CFE091040481E08E0F80930404B1
:101990008091BB00F0E0ED51FC4F80838091060404
:1019A00081115CCF81E08093E10384EA8093BC00E5
:1019B0001092070424CF85EC8093BC00109207049A
:1019C0008091B103803230F4E091B103F0E0EF5642
:1019D000FC4F10826091B10370E0E091BB03F09185
:1019E000BC0381E993E019951092B10308CF1092DE
:1019F000050434CFE1E3F4E01382128288EE93E031
:101A0000A0E0B0E084839583A683B78326E132E02B
:101A10003183208325EC30E03587248724EC30E0C7
:101A20003787268720EC30E0318B208B21EC30E0AB
:101A3000338B228B22EC30E0358B248B26EC30E08C
:101A4000378B268B118E128E138E148EEEECF4E0F3
:101A50001382128284839583A683B78388E292E0FF
:101A60009183808386E090E00E94AE13DC011396A0
:101A70001C921E92129715961C921E9214971D92FC
:101A80001C92EAEDF4E091838083118A108A138A14
:101A9000128A158A148A68E372E08AEE94E00C9444
:101AA000C90ACF93DF93CDB7DEB72E970FB6F89460
:101AB000DEBF0FBECDBF789484B5826084BD84B58F
:101AC000816084BD85B5826085BD85B5816085BD39
:101AD00080916E00816080936E00109281008091F1
:101AE0008100826080938100809181008160809379
:101AF0008100809180008160809380008091B1009E
:101B000084608093B1008091B00081608093B000C8
:101B1000809191008260809391008091910081601A
:101B200080939100809190008160809390008091DB
:101B3000A10082608093A1008091A10081608093C8
:101B4000A1008091A00081608093A000809121017C
:101B50008260809321018091210181608093210125
:101B60008091200181608093200180917A008460BF
:101B700080937A0080917A00826080937A008091CD
:101B80007A00816080937A0080917A0080688093E7
:101B90007A001092C100E0914104F091420482E089
:101BA0008083E0913D04F0913E041082E0913F0477
:101BB000F09140048FEC808310924904E091450439
:101BC000F091460486E08083E0914304F091440460
:101BD000808180618083E0914304F091440480819E
:101BE00088608083E0914304F091440480818068A0
:101BF0008083E0914304F091440480818F7D808351
:101C000088E190E00E94AE138C01DC0113961C92D7
:101C10001E9212978AE092E011969C938E9384E331
:101C200014968C9314978FEF15968C93159783E3E6
:101C300016968C93169782E317968C93179781E3E9
:101C400018968C93189780E319968C9319978FE2C6
:101C50001A968C931A971B961C921B971C961C9293
:101C60001C971D961C921D971E961C921E971F96E0
:101C70001C9261E0C8010E9492091093DD04009358
:101C8000DC0462E0C8010E94920961E08091DC04FA
:101C90009091DD040E9482098BE39FE10197F1F7A7
:101CA00061E085E30E94990360E085E30E946B0395
:101CB0008EE492E00E94CF0860E08091DC04909175
:101CC000DD040E9485096EE572E08091DC0490914C
:101CD000DD040E944F0861E08091DC049091DD04F6
:101CE0000E9485096EE672E08091DC049091DD042B
:101CF0000E944F0888E090E00E94AE137C018DE0C6
:101D000090E0F7019583848301E010E01183008364
:101D1000138302831782168270E060E0C7010E947D
:101D20003207B7018091DA049091DB040E94250804
:101D3000F092DF04E092DE0488E090E00E94AE13AF
:101D40007C0183E090E0D70115969C938E931497C5
:101D500011961C930E9313961C930E93129717963D
:101D60001C921E92169770E060E0C7010E94320735
:101D7000B7018091DA049091DB040E942508F0926B
:101D8000E104E092E00488E090E00E94AE137C0160
:101D900084E090E0F70195838483118300831383AB
:101DA00002831782168270E060E0C7010E9432074A
:101DB000B7018091DA049091DB040E942508F0922B
:101DC000E304E092E20488E090E00E94AE137C011C
:101DD00082E090E0D70115969C938E93149711960C
:101DE0001C930E9313961C930E93129717961C92A6
:101DF0001E92169770E060E0C7010E943207B7019B
:101E00008091DA049091DB040E942508F092E504A9
:101E1000E092E40481E090E00E94AE138C01BC01EA
:101E20008091DA049091DB040E9425081093E90464
:101E30000093E8046FE772E081E394E00E944F08AA
:101E40001092C0031092BF0310920E04109230043F
:101E50000E94910487EA91E09093BE038093BD03B2
:101E600088EA91E09093BC038093BB0364E08EE02A
:101E70000E94180781E080930D0488E680932F0468
:101E800010920E04109230046FE08EEC94E00E94E9
:101E9000E60681E00E94D0040E942C046B017C01C4
:101EA0000E942C046C197D098E099F096436710506
:101EB0008105910590F461E088E60E94C0051092CA
:101EC000C0038093BF03813009F4F9C362E070E07E
:101ED00080E090E00E94FA03E3CF80E0682F686022
:101EE0008FE00E9418070AED14E08091DE049091C3
:101EF000DF0421E030E0FC013783268361E070E0FD
:101F00000E94320761E08BE00E94990362E08CE05E
:101F10000E94990362E08AE00E94990360E08DE0EC
:101F20000E94990361E082E00E946B0361E084E01B
:101F30000E946B0361E08BE00E946B0361E0809183
:101F4000DC049091DD040E9485096DE972E08091C6
:101F5000DC049091DD040E944F086AEF70E080E09D
:101F600090E00E94FA0360E083E00E946B0360E06F
:101F700082E00E946B0360E084E00E946B0361E0FA
:101F80008091DC049091DD040E9485096EEA72E084
:101F90008091DC049091DD040E944F0882E090E083
:101FA0000E94AE134C0186E090E00E94AE13FC014B
:101FB000138212821582148211821082D4018D93B1
:101FC0009C939092E7048092E60486E090E00E9461
:101FD000AE136C01FC01118300838EE29AE09383BF
:101FE00082831582148286E090E00E94AE135C0129
:101FF000DC0111961C930E9389E693E013969C9353
:102000008E93129715961C921E9214971A86198613
:102010001C861B861E861D866FEB72E0CE0109961C
:102020000E94C90AD401ED91FC9160807180F12C6D
:10203000E12CF40100811181E614F7040CF056C084
:10204000D8018D919C91119770E060E0E816F90637
:102050007CF41296ED91FC9190E080E0E816F90690
:1020600029F00480F581E02D0196F8CF608171811F
:102070001A8219821C821B821E821D82CE01019649
:102080000E94D30A2D813E818D859E8528173907B0
:10209000E9F489819A8169857A85009749F061150B
:1020A0007105F9F4232B01F1DC018C9190E00BC058
:1020B00061157105C9F0232BB9F0FB01808190E017
:1020C00091958195910911E0892B09F010E0CE01DD
:1020D00001960E94DE0811115AC0BFEFEB1AFB0AED
:1020E000A8CF0E94BD15EFCF11E0F1CF1A8219825F
:1020F0001C821B821E821D82BE01675F7F4FCE0144
:1021000001960E94D30A8CE090E00E94AE137C01FD
:10211000FC0111821082138212821582148268E3FC
:1021200072E00E94C90ABE016F5F7F4FC7010E9423
:10213000D30AD7011996BC92AE9218971B96DC92DF
:10214000CE921A9786E090E00E94AE13FC011382B3
:10215000128215821482F182E082D80112968D914A
:102160009C911397892B09F06BC01396FC93EE9307
:1021700012971596FC93EE931497F8018081918144
:10218000019691838083CE0101960E94DE08CE01E4
:1021900009960E94DE0861E08091DC049091DD04E4
:1021A0000E94850969EC72E08091DC049091DD0465
:1021B0000E944F0860ED77E080E090E00E94FA0313
:1021C00018E6212E0AE0302E84E5482E83E0582EB2
:1021D00066246394712C81E394E00E94080218162F
:1021E00019060CF0B2C01A8219821C821B821E8250
:1021F0001D8250E040E068E372E0CE0101960E944B
:102200009E0A0E94380497FD25C089871A860D8191
:102210001E810F5F1F4FB801CE0101960E94760A02
:10222000882379F329813A818D819E81BE01675F80
:102230007F4F820F931F0E94C6151E830D83E1CF2F
:1022400014968D919C91DC011596FC93EE93149756
:10225000D8018FCF8091EA049091EB04009709F4A4
:102260009EC069817A816115710509F496C040911B
:10227000EC045091ED042D813E814217530708F480
:102280008CC00E94C6158D819E819093EF0480932F
:10229000EE041E821D82CE0101960E94DE08C090CF
:1022A000EA04D090EB04C114D10449F00091EE048B
:1022B0001091EF0476010115110509F088C0809195
:1022C000EE049091EF04892BE9F06AED72E08091C1
:1022D000EA049091EB040E94BD15892B99F40E94A9
:1022E0004503019709F0AFC043E150E06FED72E0A4
:1022F00081E394E00E94AA0164E670E080E090E04F
:102300000E94FA038091EE049091EF04892BE9F08A
:102310006EE073E08091EA049091EB040E94BD1599
:10232000892B99F40E944503892B09F0ACC044E144
:1023300050E064E173E081E394E00E94AA0168EE5A
:1023400073E080E090E00E94FA038090E6049090B1
:10235000E704D401ED91FC91A080B180D12CC12C77
:10236000CA14DB040CF01AC1D401ED91FC918081F8
:102370009181F12CE12CC816D9060CF0AAC002807C
:10238000F381E02D90E080E0C816D90609F49FC0E3
:102390000480F581E02D0196F7CF0E944A148981CF
:1023A0009A819093EB048093EA048B819C819093B3
:1023B000ED048093EC048D819E819093EF048093D3
:1023C000EE041A8219821C821B8263CF75015701A9
:1023D000FFEFAF1ABF0AD7018C91082E000C990BA2
:1023E0000E947813892B91F7015011090C0D1D1DC6
:1023F000F8018081082E000C990B0E947813892B1C
:1024000031F00E151F0518F001501109F1CF0F5FC3
:102410001F4FA8014E195F095093EF044093EE043B
:10242000CE14DF0420F4B701C6010E94B415E09178
:10243000EA04F091EB048091EE049091EF04E80F30
:10244000F91F10823CCF4EE050E063EF72E081E371
:1024500094E00E94AA0160E08BE00E946B030E945E
:102460004503892B39F462E370E080E090E00E943C
:10247000FA03F5CF61E08BE00E946B0382E093E00A
:102480000E94CF083FCF89E293E00E94CF0860E02E
:102490008BE00E946B034EE050E069E373E081E360
:1024A00094E00E94AA010E944503019739F462E377
:1024B00070E080E090E00E94FA03F5CF61E08BE0ED
:1024C0000E946B0388E493E00E94CF083ECFE08037
:1024D000F180F701A085B185109709F45BC0828572
:1024E0009385892B09F456C08D919C91119710E02A
:1024F00000E00097F9F01296ED91FC911397149675
:102500002D913C91890101701127309719F4011523
:10251000110581F035952795820F931F012B41F00E
:10252000DC012D913C91E20FF31F0190F081E02D31
:1025300019958C01F701668177816017710751F158
:10254000A285B3854D915C91119741155105F9F024
:102550001296ED91FC91139714968D919C919C018C
:1025600021703327309719F42115310581F09595A5
:102570008795840F951F232B41F0DC012D913C9111
:10258000E20FF31F0190F081E02DA8011995F701EA
:1025900017830683FFEFCF1ADF0AE2CE81E0809334
:1025A0000D0420922F0410920E041092300460E06B
:1025B0008EEC94E00E94E60681E00E94D0040E9426
:1025C0002C046B017C010E942C046C197D098E097E
:1025D0009F09643671058105910508F075C067E0B3
:1025E00088E60E94C0051092C0038093BF03873025
:1025F00039F062E070E080E090E00E94FA03E3CFFF
:102600008E010F5F1F4FD12C78018EEC94E00E9459
:102610009F0695E0D91649F0982F92959F708F707C
:10262000939D800D1124D8018C93D3940F5F1F4F7D
:10263000B7E0DB12EACFD9800A811B8161E080918B
:10264000DC049091DD040E9485091F92DF921F92A5
:102650000F931F921F935F924F92FF92EF920E94EF
:10266000CD15B7018091DC049091DD040E944F08E4
:102670000FB6F894DEBF0FBECDBF8091DE049091FF
:10268000DF04DC0116962D913C911797232B89F4DA
:1026900017967C926E92169761E070E00E94320766
:1026A00064EF71E080E090E00E94FA030E94AD02C6
:1026B00092CDFC011782168270E060E0EFCF8EECC5
:1026C00094E00E949F060ACC61E08091DC04909126
:1026D000DD040E9485096DE573E08091DC04909132
:1026E000DD040E944F08C9CF8AEE94E00C94DE0806
:1026F00091110C948113803219F089508550C8F7DC
:102700000895992788270895A1E21A2EAA1BBB1BBA
:10271000FD010DC0AA1FBB1FEE1FFF1FA217B307AD
:10272000E407F50720F0A21BB30BE40BF50B661FC3
:10273000771F881F991F1A9469F760957095809587
:1027400090959B01AC01BD01CF010895EE0FFF1FD5
:10275000881F8BBF0790F691E02D19940F931F935C
:10276000CF93DF938230910510F482E090E0E09106
:10277000F204F091F30430E020E0B0E0A0E0309704
:1027800099F42115310509F44AC0281B390B24306E
:102790003105D8F58A819B816115710589F1FB01AD
:1027A00093838283FE0111C0408151810281138194
:1027B00048175907E0F04817590799F4109761F046
:1027C00012960C93129713961C933296CF01DF91B9
:1027D000CF911F910F9108950093F2041093F30489
:1027E000F4CF2115310551F04217530738F0A901F4
:1027F000DB019A01BD01DF01F801C1CFEF01F9CF83
:102800009093F3048093F204CDCFFE01E20FF31F07
:10281000819391932250310939832883D7CF209116
:10282000F0043091F104232B41F420910202309105
:1028300003023093F1042093F004209100023091C0
:1028400001022115310541F42DB73EB74091040234
:1028500050910502241B350BE091F004F091F10436
:10286000E217F307A0F42E1B3F0B2817390778F067
:10287000AC014E5F5F4F2417350748F04E0F5F1FC6
:102880005093F1044093F004819391939FCFF0E033
:10289000E0E09CCFCF93DF930097E9F0FC01329703
:1028A00013821282A091F204B091F304ED0130E0A2
:1028B00020E01097A1F420813181820F931F209195
:1028C000F0043091F1042817390709F061C0F09342
:1028D000F104E093F004DF91CF910895EA01CE175F
:1028E000DF07E8F54A815B819E0141155105B1F78B
:1028F000E901FB83EA8349915991C40FD51FEC1775
:10290000FD0761F4808191810296840F951FE90192
:1029100099838883828193819B838A83F0E0E0E0BE
:1029200012968D919C9113970097B9F52D913C913A
:102930001197CD010296820F931F2091F0043091E0
:10294000F1042817390739F6309751F51092F3043E
:102950001092F204B093F104A093F004BCCFD3839F
:10296000C28340815181840F951FC817D90761F434
:102970004E5F5F4F88819981480F591F5183408373
:102980008A819B81938382832115310509F0B0CF21
:10299000F093F304E093F2049ECFFD01DC01C0CF7D
:1029A00013821282D7CF4F925F926F927F928F9253
:1029B0009F92AF92BF92CF92DF92EF92FF920F93CE
:1029C0001F93CF93DF938C01009799F4CB01DF9194
:1029D000CF911F910F91FF90EF90DF90CF90BF901C
:1029E000AF909F908F907F906F905F904F900C94DE
:1029F000AE13FC01E60FF71F9C0122503109E217CC
:102A0000F30708F4AEC0D901CD91DC911197C61738
:102A1000D70720F1C530D10578F0CE01049786178D
:102A2000970750F0C61BD70B2297C193D1936D9394
:102A30007C93CF010E944A14C801DF91CF911F916E
:102A40000F91FF90EF90DF90CF90BF90AF909F904D
:102A50008F907F906F905F904F9008955B01AC1ABC
:102A6000BD0A4C018C0E9D1EA091F204B091F3049E
:102A7000512C412CF12CE12C109731F58091F00470
:102A80009091F1048815990509F05CC04616570627
:102A900008F058C08091000290910102009741F423
:102AA0008DB79EB74091040250910502841B950B8F
:102AB000E817F90708F055C0F093F104E093F0042B
:102AC000F90171836083B8CF8D919C911197129613
:102AD0006C90129713967C901397A815B90559F529
:102AE0006C0142E0C40ED11CCA14DB0420F1AC011D
:102AF0004A195B09DA011296159780F06282738297
:102B000051834083D9016D937C93E114F10471F0FA
:102B1000D7011396FC93EE9312978ECF22968C0FCB
:102B20009D1FF90191838083F301EFCFF093F304AC
:102B3000E093F20481CF4816590608F42C017D0178
:102B4000D3019ACFCB010E94AE137C01009749F0CC
:102B5000AE01B8010E94B415C8010E944A14870151
:102B60006BCF10E000E068CFFB01DC0102C00190F8
:102B70000D9241505040D8F70895FB01DC018D9132
:102B8000019080190110D9F3990B0895FB01DC0124
:102B900001900D920020E1F708950F931F93CF93BA
:102BA000DF93CDB7DEB72E970FB6F894DEBF0FBE1A
:102BB000CDBF0E891F8986E08C831A8309838FEF2E
:102BC0009FE79E838D83AE01465E5F4F688D798D52
:102BD000CE0101960E94FD152F813885020F131F2B
:102BE000F80110822E960FB6F894DEBF0FBECDBF4F
:102BF000DF91CF911F910F9108952F923F924F92A5
:102C00005F926F927F928F929F92AF92BF92CF927C
:102C1000DF92EF92FF920F931F93CF93DF9300D039
:102C200000D000D01F921F92CDB7DEB77C013B01D0
:102C30008A01FC0117821682838181FFDDC1CE01EA
:102C400001965C01F7019381F30193FD859193FF58
:102C500081913F01882309F453C1853239F493FDF2
:102C6000859193FF81913F01853229F4B70190E06E
:102C70000E941518E7CF912C212C312CFFE1F31580
:102C800038F08B3211F190F4803209F1833229F15E
:102C900037FC3CC020ED280F2A3050F536FE20C00E
:102CA0008AE0989E200D1124922E06C08D3291F05C
:102CB000803371F7689430F8F30193FD859193FFA9
:102CC00081913F018111DACF21C0689431F8689475
:102CD00032F8F2CF689433F8EFCF689434F8ECCF41
:102CE000EAE02E9E200D1124222E689435F8E4CFC0
:102CF0008E3229F436FC04C1689436F8DDCF8C3668
:102D000019F4689437F8D8CF8836B1F2982F9F7DA0
:102D100095549330E0F08336A1F18337C1F18335C8
:102D200009F063C02801F2E04F0E511CF801C08089
:102D3000D180692D70E036FC02C06FEF7FEFC601D5
:102D40000E94FF174C01689437F882010AC00C5F9B
:102D50001F4FFFE3F98388248394912C6501E89445
:102D600037F833FE2DC0522C8114910471F5552093
:102D700009F468CFB70180E290E00E9415185A94D8
:102D8000F6CFF801808189830E5F1F4FE4CF2801C1
:102D9000F2E04F0E511CF801C080D180692D70E027
:102DA00036FC02C06FEF7FEFC6010E940A184C018B
:102DB0008201D5CFB70180E290E00E9415182A94D5
:102DC0002814190409F0B0F7CECFF60137FC85912D
:102DD00037FE81916F01B70190E00E9415185110E4
:102DE0005A94F1E08F1A9108BFCF843619F08936D2
:102DF00009F077C0F80137FE6BC060817181828174
:102E000093810C5F1F4FF32DFF763F2E97FF09C074
:102E100090958095709561957F4F8F4F9F4F6894E7
:102E200037F82AE030E0A5010E944518C82ECA18DC
:102E30008C2C432C36FE0CC0E89440F8C91440F4A6
:102E400034FE05C032FC03C0F32DFE7E4F2E892CCC
:102E500044FEAAC0FE01EC0DF11D8081803309F013
:102E60009CC0242D297E422E842D8870582E43FC30
:102E7000AAC040FEA4C09C2C821418F42C0C922CE6
:102E8000981844FEA6C0B70180E390E00E94151890
:102E900042FE09C088E790E041FE02C088E590E06C
:102EA000B7010E941518C91408F49FC0CA94D12C08
:102EB0009FEFC91AD90ACA0CDB1CF60182916F0177
:102EC000B70190E00E941518AC14BD04B1F74FCFC4
:102ED00060817181072E000C880B990B0E5F1F4FCC
:102EE00092CFD32CE894D4F82AE030E08537E1F192
:102EF000232D297FD22E8F36A9F1F0F4883551F198
:102F0000F701868197812B960FB6F894DEBF0FBE2E
:102F1000CDBFDF91CF911F910F91FF90EF90DF9088
:102F2000CF90BF90AF909F908F907F906F905F9069
:102F30004F903F902F900895803749F0883701F7E0
:102F4000D4FE02C06894D2F820E130E00DC068944D
:102F5000D4F8F6CF34FE03C0822F8660D82E20E14D
:102F600032E002C028E030E0F801D7FE0FC06081F7
:102F70007181828193810C5F1F4FA5010E944518CA
:102F8000C82ECA183D2CE89437F852CF6081718161
:102F900090E080E00E5F1F4FF0CF42FC02C08394B0
:102FA00063CF8394839460CF842D867809F45CCFBB
:102FB000F6CFB70180E290E00E9415188394821446
:102FC000C0F3512C5ECF522C5818821408F459CFFC
:102FD000F8CF842D867809F466CF8BE241FE80E23B
:102FE00047FC8DE2B70190E05CCFB70180E390E051
:102FF0000E9415189A9457CF8FEF9FEF84CFFC0152
:103000000590615070400110D8F7809590958E0F13
:103010009F1F0895FC016150704001900110D8F786
:10302000809590958E0F9F1F08950F931F93CF93B8
:10303000DF93182F092FEB018B8181FD09C01FEF52
:103040000FEF812F902FDF91CF911F910F91089556
:1030500082FF14C02E813F818C819D812817390702
:103060003CF4E881F981CF0101969983888310832C
:103070008E819F8101969F838E83E3CFE885F985BA
:10308000812F1995892BA1F3DACFFA01AA272830CD
:1030900051F1203181F1E8946F936E7F6E5F7F4F25
:1030A0008F4F9F4FAF4FB1E03ED0B4E03CD0670FA1
:1030B000781F891F9A1FA11D680F791F8A1F911DF4
:1030C000A11D6A0F711D811D911DA11D20D009F444
:1030D00068943F912AE0269F11243019305D319386
:1030E000DEF6CF010895462F4770405D4193B3E06F
:1030F0000FD0C9F7F6CF462F4F70405D4A3318F016
:10310000495D31FD4052419302D0A9F7EACFB4E0C6
:10311000A6959795879577956795BA95C9F700977E
:103120006105710508959B01AC010A2E069457951F
:10313000479537952795BA95C9F7620F731F841F76
:10314000951FA01D089511E0C3E7D1E000E006C07F
:10315000802FFE010E94A6132196011DC437D107BE
:0A31600080E00807A9F7F894FFCFFC
:10316A000000F4048000000000007C09AA01150791
:10317A00A901000000004002AA01D7018D0208023D
:10318A00E601FA0100000000E606B90615078F06F7
:10319A00B2069F0690060D0A00506F776572204CA2
:1031AA0065642066726F6D200020746F2000496E7E
:1031BA00697469616C697A696E672E2E2E003D3DCD
:1031CA003D4154582050616E656C3D3D3D00496E4D
:1031DA00697469616C697A696E672E2E2E2E0049B0
:1031EA006E697469616C697A696E67204453333217
:1031FA00333120636F6D706F6E656E74002020200E
:10320A00436F6D706F6E656E7473202020002020EE
:10321A0053742E204D616368696E657320200050D7
:10322A004F5745525F4C4544002020496E697469E6
:10323A00616C697A656421202000505F4F4E00411D
:10324A006C726561647920706F7765726564206F4E
:10325A006E2100506F776572696E67206F6E2E2E31
:10326A002E00506F7765726564206F6E2100505F83
:10327A004F464600416C726561647920706F7765CC
:10328A00726564206F66662100506F776572696E99
:10329A0067206F66662E2E2E00506C65617365205E
:1032AA00776169742E2E2E00506F776572656420DF
:1032BA006F66660025643A25643A256400436C6F9C
:0E32CA00636B204D6F642E204572726F720090
:00000001FF
