:100000000C94AC010C94DD010C94DD010C94DD0129
:100010000C94DD010C94DD010C94DD010C94DD01E8
:100020000C94DD010C94DD010C94DD010C94DD01D8
:100030000C94DD010C94DD010C94DD010C94DD01C8
:100040000C94DD010C94DD010C94DD010C94DD01B8
:100050000C94DD010C94DD010C94DD010C94F8226C
:100060000C94DD010C94C2220C9498220C94DD01B6
:100070000C94DD010C94DD010C94DD010C94DD0188
:100080000C94DD010C94DD010C94DD010C94DD0178
:100090000C94DD010C94DD010C94DD010C944223E1
:1000A0000C94DD010C94DD010C94DD010C94DD0158
:1000B0000C94DD010C94DD010C94DD010C94DD0148
:1000C0000C94DD010C94DD010C94DD010C94DD0138
:1000D0000C94DD010C94DD010C94DD010C94DD0128
:1000E0000C94DD010C9454030C9489030C9492023B
:1000F0000C9404120C94F3080C94BC060C945A0251
:100100000C94C40A0C94F90A0C944E140C944E20CE
:100110000C94030B0C9463030C9481030C940B0953
:100120000C9477030C94BB1C0C94721B0C945C0312
:100130000C94A10B0C94771D0C9442200C94F61C8B
:100140000C94950F0C94DA1A0C94170B0C94E70688
:100150000C948C080C948D130C945D1F0C94E00A85
:100160000C948E030C94FC010C9469030C94940B76
:100170000C9458030C94331B0C947B030C94CC0A02
:100180000C94990A0C94AD1F0C94F4010C949E0AE3
:100190000C944D120C9493030C9476200C94140739
:1001A0000C94BC0A0C94BB060C946D030C94DF02F7
:1001B0000C94A2080C94F7080C948F030C947924E7
:1001C0000C9412090C94570F0C94A80A0C94B20AC0
:1001D0000C94DF300C94BE060C94210B0C94640F2D
:1001E0000C9438020C940D0B0C9423120C94730392
:1001F0000C94900A0C94BD100C946D0A0C94290276
:100200000C94D60A0C94EA0A0C94CD060C94440C77
:100210000C94A7080C94BD060C9460030C94FB0886
:100220000C9485030C944C020C94E0060C944E0341
:100230000C94C812000020002300260029002C0086
:100240002F00320000010000030106010901000037
:100250002100240027002A002D0030003300010176
:100260000000040107010A01000022002500280007
:100270002B002E00310034000201000005010801AE
:100280000B0105050505070508080808020202021A
:100290000A0A080804040404010101010101010122
:1002A0000303030303030303040707070C0C0C0CED
:1002B0000C0C0C0C020202020606060606060606D6
:1002C0000B0B0B0B0B0B0B0B010210202008081063
:1002D00020401020408002010201080402010102B6
:1002E000040810204080804020100804020180048F
:1002F00002018040201008040201080402010102EA
:1003000004081020408001020408102040800000F2
:100310000A0B02090C0D0E0807030401000000007F
:1003200000000000000000000000000000000000CD
:10033000000000000000000000001211100000008A
:1003400000000000000000000000000000000000AD
:10035000000000007924DF3011241FBECFEFD1E26E
:10036000DEBFCDBF00E00CBF16E0A0E0B2E0ECE0E5
:10037000FDE600E00BBF02C007900D92AA32B10764
:10038000D9F728E0AAE2B6E001C01D92AF3AB20761
:10039000E1F711E0CBEAD1E000E006C021970109C6
:1003A000802FFE010E943234CA3AD10780E008074C
:1003B000A9F70E940D250C9474360C9400008CBD96
:1003C0009DBD089520E3FC0120833296862F8295FF
:1003D0008F706F706A3030F4605D6293682F8111A6
:1003E000F5CF0895695CF9CF0895DC01ED91FC919A
:1003F0000190F081E02D1994AF92BF92CF92DF92DD
:10040000EF92FF920F931F93CF93DF936C017B01C9
:100410008B01040F151FEB015E01AE18BF08C0175A
:10042000D10759F06991D601ED91FC910190F081CD
:10043000E02DC6011995892B79F7C501DF91CF9180
:100440001F910F91FF90EF90DF90CF90BF90AF90F2
:100450000895FC01538D448D252F30E0842F90E0CA
:10046000821B930B541710F0CF96089501970895AF
:10047000FC01918D828D981761F0A28DAE0FBF2F78
:10048000B11D5D968C91928D9F5F9F73928F90E0CE
:1004900008958FEF9FEF0895FC01918D828D98173D
:1004A00031F0828DE80FF11D858D90E008958FEF7A
:1004B0009FEF0895FC01918D228D892F90E0805C43
:1004C0009F4F821B91098F739927089584E997E0C4
:1004D0000E945A0221E0892B09F420E0822F08951E
:1004E000FC01A48DA80FB92FB11DA35ABF4F2C91A9
:1004F000848D90E001968F739927848FA689B789A0
:100500002C93A089B1898C91837080648C93938D96
:10051000848D981306C00288F389E02D80818F7D39
:1005200080830895EF92FF920F931F93CF93DF93F1
:10053000EC0181E0888F9B8D8C8D98131AC0E8891F
:10054000F989808185FF15C09FB7F894EE89FF89EE
:100550006083E889F98980818370806480839FBF8C
:1005600081E090E0DF91CF911F910F91FF90EF908C
:100570000895F62E0B8D10E00F5F1F4F0F7311279C
:10058000E02E8C8D8E110CC00FB607FCFACFE889D7
:10059000F989808185FFF5CFCE010E947002F1CFED
:1005A000EB8DEC0FFD2FF11DE35AFF4FF0829FB74B
:1005B000F8940B8FEA89FB8980818062CFCFCF933B
:1005C000DF93EC01888D8823B9F0AA89BB89E8897B
:1005D000F9898C9185FD03C0808186FD0DC00FB621
:1005E00007FCF7CF8C9185FFF2CF808185FFEDCF9F
:1005F000CE010E947002E9CFDF91CF91089580E093
:1006000090E0892B29F00E94660281110E9400006F
:1006100080E090E0892B49F080E090E0892B29F080
:100620000E94000081110E94000080E090E0892B70
:1006300049F080E090E0892B29F00E9400008111B0
:100640000E94000080E090E0892B49F080E090E07B
:10065000892B29F00E94000081110C94000008955C
:100660008150823108F05AC0E82FF0E08827E45C1E
:10067000FC4F8F4F0C9432345C0360034E035403E1
:1006800058038E03630369036D03730377037B03CE
:10069000810385038E0389038F0393038091800078
:1006A0008F77809380000895809180008F7DF9CFAF
:1006B00080918000877FF5CF84B58F7784BD0895C2
:1006C00084B58F7DFBCF8091B0008F778093B00091
:1006D00008958091B0008F7DF9CF809190008F7741
:1006E000809390000895809190008F7DF9CF809144
:1006F0009000877FF5CF8091A0008F778093A00036
:1007000008958091A0008F7DF9CF8091A000877F10
:10071000F5CF809120018F778093200108958091FB
:1007200020018F7DF9CF80912001877FF5CF1F9326
:10073000CF93DF93282F30E0F901E25FFC4F8491E3
:10074000F901E853FD4FD491F901EE57FD4FC491E3
:10075000CC23A9F0162F81110E943003EC2FF0E07A
:10076000EE0FFF1FE859FD4FA591B4918FB7F89494
:10077000EC91111108C0D095DE23DC938FBFDF917F
:10078000CF911F910895DE2BF8CFCF93DF9390E0A8
:10079000FC01E853FD4F24918E579D4FFC0184913D
:1007A0008823C9F090E0880F991FFC01E25BFD4FA0
:1007B000A591B491FC01E859FD4FC591D491611107
:1007C0000DC09FB7F8948C91209582238C938881DB
:1007D000282328839FBFDF91CF910895623051F481
:1007E0009FB7F8943C91822F809583238C93E88166
:1007F0002E2BEFCF8FB7F894EC912E2B2C938FBF2D
:10080000EACF3FB7F89480917C0690917D06A09145
:100810007E06B0917F0626B5A89B05C02F3F19F034
:100820000196A11DB11D3FBFBA2FA92F982F882770
:10083000BC01CD01620F711D811D911D42E0660F4B
:10084000771F881F991F4A95D1F708958F929F921D
:10085000AF92BF92CF92DF92EF92FF924B015C0179
:100860000E9401046B017C010E9401046C197D0946
:100870008E099F09683E734081059105A8F321E028
:10088000821A9108A108B10888EEC80E83E0D81E2C
:10089000E11CF11C81149104A104B10429F7FF901B
:1008A000EF90DF90CF90BF90AF909F908F90089582
:1008B0002FB7F894609178067091790680917A0646
:1008C00090917B062FBF08950F931F930E945804A9
:1008D00060939C0770939D0780939E0790939F075A
:1008E00084E997E00E94380297FF1DC00E945804D7
:1008F00000919C0710919D0720919E0730919F07C2
:10090000601B710B820B930B009198071091990754
:1009100020919A0730919B07601771078207930710
:10092000F8F28FEF9FEF1F910F91089520915206DB
:10093000260F3327331F21323105ECF420916A074B
:10094000FC0190E080E0243069F082E00895A091FD
:1009500052062191AC01405D594FA40FB52FB11D36
:100960002C930196861798F380915206680F609336
:10097000520680E0089581E0089510926A0781E0B0
:10098000809369071092440761E084E10E94970315
:1009900061E085E10E949703E9EBF0E080818E7FC2
:1009A000808380818D7F808388E48093B80085E494
:1009B0008093BC000895CF93DF9391E090932F062E
:1009C0008823B9F0C091B800D091BA008091BC00E2
:1009D0008A7B8093BC0060E084E10E94970360E022
:1009E00085E10E9497030E94BD04D093BA00C09392
:1009F000B800DF91CF9108958F929F92AF92BF92EE
:100A0000CF92DF92EF92FF920F931F93CF93DF93DA
:100A1000D0919307D13208F0D7C0182FC091920718
:100A20000E9401046B017C0180916A0781116BC0F7
:100A300082E080936A07109369078FEF80936807BD
:100A400010926707D0936607A2E7B7E0E6E4F7E005
:100A500080E0D81391C01092450780914507CC0FD4
:100A6000C82BC093450780914407813009F088C0A6
:100A7000109244070E9401046B017C01809145079C
:100A80008093BB0080916C0790916D07A0916E07D9
:100A9000B0916F07892B8A2B8B2BA1F00E94010448
:100AA00000916C0710916D0720916E0730916F07D0
:100AB0006C197D098E099F09061717072807390742
:100AC00008F442C08091BC0083FDD8CF85EC8093B0
:100AD000BC000E9401046B017C0180916A07823096
:100AE00009F450C0809168078F3F09F46FC080916E
:100AF0006807803209F46CC080916807803309F47C
:100B000069C084E026C080916C0790916D07A09128
:100B10006E07B0916F07892B8A2B8B2B09F484CF3A
:100B20000E94010480906C0790906D07A0906E0762
:100B3000B0906F076C197D098E099F09861697067C
:100B4000A806B90608F070CF80916B070E94DB04FD
:100B500085E0109271071092930710927007DF9151
:100B6000CF911F910F91FF90EF90DF90CF90BF90AA
:100B7000AF909F908F9008959D9191938F5F69CFD3
:100B800085EEA5CF80916C0790916D07A0916E07BF
:100B9000B0916F07892B8A2B8B2B09F49ECF0E9473
:100BA000010400916C0710916D0720916E07309140
:100BB0006F076C197D098E099F090617170728070B
:100BC000390708F08ACFC0CF81E0C3CF80E0C1CF22
:100BD00082E0BFCF83E0BDCFCF92DF92EF92FF9252
:100BE0000F931F93CF93DF93D82FC62F613208F056
:100BF00098C00E9401046B017C0180916A078111F9
:100C00006BC081E080936A07809369079FEF9093A0
:100C10006807109267079C0F9093660780934507BB
:100C200080914507DD0FD82BD0934507809144076D
:100C3000813009F078C0109244070E9401046B01D2
:100C40007C01809145078093BB0080916C07909157
:100C50006D07A0916E07B0916F07892B8A2B8B2BA4
:100C6000A1F00E94010400916C0710916D07209182
:100C70006E0730916F076C197D098E099F09061761
:100C800017072807390708F448C08091BC0083FD86
:100C9000D8CF85EC8093BC000E9401046B017C01DD
:100CA00080916A07813009F440C0809167078C17F2
:100CB00010F4C0916707E6E4F7E0A4E2B7E080E053
:100CC0008C1355C08C2FDF91CF911F910F91FF9006
:100CD000EF90DF90CF90089580916C0790916D0711
:100CE000A0916E07B0916F07892B8A2B8B2B09F48B
:100CF00084CF0E94010400916C0710916D07209130
:100D00006E0730916F076C197D098E099F090617D0
:100D100017072807390708F070CF80916B070E94EA
:100D2000DB04C0E0CFCF85EEB5CF80916C0790910A
:100D30006D07A0916E07B0916F07892B8A2B8B2BC3
:100D400009F4AECF0E94010400916C0710916D0769
:100D500020916E0730916F076C197D098E099F09EC
:100D6000061717072807390708F09ACFD6CF9191B1
:100D70009D938F5FA5CF089508950895E091EA06A9
:100D80008091E906E81730F4F0E0EC5DF84F8081DF
:100D900090E008958FEF9FEF08959091EA0680917B
:100DA000E9062FEF3FEF981748F4E92FF0E0EC5DEC
:100DB000F84F208130E09F5F9093EA06C9010895C3
:100DC0008091E9069091EA06891B990B0895CF92CC
:100DD000DF92EF92FF920F931F93CF93DF937C01EB
:100DE000CB018A0120917007222389F0EB016B016E
:100DF000C40ED51ECC15DD0569F06991D701ED91C2
:100E0000FC910190F081E02DC7011995F3CF642F7B
:100E10000E949604C801DF91CF911F910F91FF901E
:100E2000EF90DF90CF900895CF93DF931F92CDB7CF
:100E3000DEB76983209170072223F9F02091930790
:100E4000203258F021E030E0FC013383228390E02F
:100E500080E00F90DF91CF91089580917107E82F86
:100E6000F0E0EE58F84F998190838F5F809371077F
:100E70008093930781E090E0ECCF61E0CE01019692
:100E80000E949604F7CFFC0120812EBD9B012150CA
:100E9000310941F051810DB407FEFDCF4EB55EBD65
:100EA0004193F5CF61507109860F971F0DB407FE6E
:100EB000FDCF2EB5FC0120830895E0912B06F09123
:100EC0002C06808190912A06892B80830895E091D9
:100ED0002B06F0912C06908180912A06809589231B
:100EE000808308958EBD00000DB407FEFDCF8EB542
:100EF0000895AF92BF92CF92DF92EF92FF920F933D
:100F00001F93CF93DF9300D000D01F921F92CDB7D5
:100F1000DEB78C017B016A01809123078333E1F402
:100F20005801A40EB51EA016B10609F46FC00E94A8
:100F3000670780EF0E947207812F0E947207802F3F
:100F40000E9472070F5F1F4FF70181917F010E947E
:100F500072070E945D07E7CF5B01A40EB51E8433C4
:100F6000C1F40E94670719830A838D2D80688B83E3
:100F7000CC8264E070E0CE0101960E944307AE147B
:100F8000BF0409F441C0F70181917F010E947207FB
:100F9000F6CF0E9467070F3F110509F028F4198268
:100FA0000A8384E08B830CC017FD17C019820A8363
:100FB00033E0169507953A95E1F7007E0C600B83B8
:100FC00086E0C816D104A0F5F701DE011496EA15F3
:100FD000FB0599F081918D93FACFC80126E0969593
:100FE00087952A95E1F7807E19830A830115104CB5
:100FF00010F48461D7CF8C61D5CFB6016D5F7F4F80
:10100000CE0101960E9443070E945D07C601289603
:101010000FB6F894DEBF0FBECDBFDF91CF911F9109
:101020000F91FF90EF90DF90CF90BF90AF90089519
:1010300063E070E0CE0101960E944307F7018191C1
:101040007F010E947207AE14BF04C1F7DDCFCF93BA
:10105000DF931F92CDB7DEB7898341E050E0BE0138
:101060006F5F7F4F90E080E00E9479070F90DF91E3
:10107000CF91089590E020912307233339F40C9603
:10108000982F990F990F990F80E008954896F8CFFF
:10109000DA01E0912E06F0E0FE2FEE27E60FF71FB3
:1010A00090E0982F8827A901BD018E0F9F1F0C94F7
:1010B0007907CF93DF931F921F92CDB7DEB7798365
:1010C0006A8322E030E0AE014F5F5F4F64E070E082
:1010D0000E9448080F900F90DF91CF910895CF9311
:1010E000DF931F92CDB7DEB720912E0630E0322F6E
:1010F0002227260F371F90E0982F8827498341E049
:1011000050E0BE016F5F7F4F820F931F0E947907EF
:101110000F90DF91CF910895CF93DF931F92CDB7BA
:10112000DEB76983DC01ED91FC910280F381E02D53
:1011300041E050E0BE016F5F7F4F19950F90DF9146
:10114000CF910895FC01818D928D08950895DF92CD
:10115000EF92FF920F931F93CF93DF931F921F92F3
:10116000CDB7DEB7FB01DC0157961C921E92569755
:101170002281211109C02381211106C0248121115E
:1011800003C02581222369F14115510551F17A01EE
:101190008F01FC01D08C80E591E00E94DF01A80165
:1011A0004E5F5F4F24E030E06CE070E08D2D0E94D8
:1011B0004808F982EA8222E030E0AE014F5F5F4FDB
:1011C00060E170E08D2D0E94480881E090E00F9072
:1011D0000F90DF91CF911F910F91FF90EF90DF90D3
:1011E000089580E0F3CFFC01848595850895FC0186
:1011F0008489958908952BEA32E0FC0131832083AC
:10120000FB014089518962897389FC0142835383C0
:10121000648375830895DC01ED91FC91048CF58D58
:10122000E02D199490E080E00895CF93C62F91E0CF
:101230009093700798E6909392071092710710921E
:101240009307682F81E398E00E9414076C2F81E3D5
:1012500098E00E94140781E0CF910C94FC04EF9277
:10126000FF920F931F93CF93DF93DC018D919C919D
:1012700011970097E9F01296ED91FC91139714964F
:10128000ED90FC90D701A170BB27309711F4109717
:1012900079F0F594E7948E0D9F1DAB2B41F0EC0196
:1012A000A881B981EA0FFB1F0190F081E02D19950B
:1012B000DF91CF911F910F91FF90EF900895DC0186
:1012C0002D913C91119721153105F1F01296ED9178
:1012D000FC91139714968D919C91AC014170552708
:1012E000309719F44115510579F095958795820F3E
:1012F000931F452B41F0DC016D917C91E60FF71FA8
:101300000190F081E02D199460E070E0CB01089528
:10131000DC012D913C91119721153105E9F01296D0
:10132000ED91FC91139714968D919C91DC01A17025
:10133000BB27309711F4109779F095958795820F18
:10134000931FAB2B41F0DC012D913C91E20FF31F79
:101350000190F081E02D19940895DC012D913C91CC
:10136000119721153105F1F01296ED91FC9113972B
:1013700014968D919C91AC0141705527309719F4CA
:101380004115510579F095958795820F931F452B4F
:1013900041F0DC012D913C91E20FF31F0190F081AF
:1013A000E02D199490E080E00895DC012D913C91AE
:1013B00011976217730784F41296ED91FC9190E0F7
:1013C00080E08617970729F00480F581E02D0196CB
:1013D000F8CF80819181089590E080E00895EF92A8
:1013E000FF920F931F93CF93DF938C01DC01ED915C
:1013F000FC91E080F180D0E0C0E0CE15DF059CF4E8
:10140000BE01F801808191810E94D509DC01169608
:101410006D917C911797AB011A968D919C910E94CA
:1014200088092196EACFDF91CF911F910F91FF900C
:10143000EF900895CF92DF92EF92FF92CF93DF93D8
:10144000DC015496CC915497D0E06111DC2F559675
:101450002C91559730E0220F331F2C5C3D4F50E00C
:1014600040E0F90185919491FC01F080BA0190E08F
:1014700080E0EF2DEC23ED1310C04F5F5F4F5B96C4
:10148000CD90DD90ED90FC905E976C157D058E05FE
:101490009F0538F36FEF7FEFCB01DF91CF91FF9086
:1014A000EF90DF90CF9008950F931F93CF93DF932A
:1014B000FC010681178182819381019739F4802F85
:1014C000DF91CF911F910F910C949703EB0161E095
:1014D000802F0E94C503209711F460E0F0CFF8013F
:1014E000FF27E25FFC4FE491E150E231B0F7F0E01A
:1014F0008827E258F54F8F4F0C943234900A990A9E
:101500009E0AA80AB20A6D0ABC0AC40ACC0AD60A04
:10151000E00AEA0AF90A030B6D0A0D0B170B210BFF
:1015200084B5806884BDC7BDDF91CF911F910F91B5
:10153000089584B5806284BDC8BDF6CF80918000D7
:10154000806880938000D0938900C0938800ECCF9E
:1015500080918000806280938000D0938B00C09344
:101560008A00E2CF80918000886080938000D093D1
:101570008D00C0938C00D8CF8091B000806880939C
:10158000B000C093B300D0CF8091B0008062809350
:10159000B000C093B400C8CF809190008068809361
:1015A0009000D0939900C0939800BECF8091900096
:1015B000806280939000D0939B00C0939A00B4CF38
:1015C00080919000886080939000D0939D00C0939C
:1015D0009C00AACF8091A00080688093A000809199
:1015E000A0008F7B8093A000D093A900C093A80097
:1015F0009BCF8091A00080628093A000D093AB002D
:10160000C093AA0091CF8091A00088608093A00031
:10161000D093AD00C093AC0087CF8091200180684B
:1016200080932001D0932901C09328017DCF809120
:101630002001806280932001D0932B01C0932A0166
:1016400073CF80912001886080932001D0932D0179
:10165000C0932C0169CF21E030E0FC013287218763
:1016600061E070E00C94540AFC0121853285232B43
:1016700011F40C942B0B1286118670E060E00C9430
:10168000540ACF93DF93FC012681378182819381B5
:10169000019729F53327F901E25FFC4F8491F901A5
:1016A000E853FD4FD491F901EE57FD4FC491CC237F
:1016B000C1F181110E943003EC2FF0E0EE0FFF1F0B
:1016C000EC5CFD4FA591B491EC91ED2331E020E06D
:1016D00009F430E0832F922FDF91CF910895822F6C
:1016E000263310F08AEC820F20917B00982F98709F
:1016F000277F922B90937B008770806480937C007F
:1017000080917A00806480937A0080917A0086FDCF
:10171000FCCF9091780080917900892798278927BC
:10172000DBCF90E080E0D8CFFC01848595850E94D6
:10173000410B21E030E0892B11F030E020E0C901BD
:101740000895FC01808991890E94410B21E030E0DD
:10175000892B11F030E020E0C9010895CF93DF9389
:10176000EC0160E08E810E94970361E08E810E940F
:10177000970360E08E810E9497038BE891E00197C8
:10178000F1F7DF91CF910895CF92DF92EF92FF9220
:101790000F931F93CF93DF936C017C0187E0E80EDA
:1017A000F11CD0E0C0E0062F10E0B8010C2E02C002
:1017B000759567950A94E2F76170F70181917F0151
:1017C0000E9497032196C430D10579F7C601DF91B5
:1017D000CF911F910F91FF90EF90DF90CF900C94DD
:1017E000AE0BCF92DF92EF92FF920F931F93CF93A6
:1017F000DF93EC01F62E642F8C810E9497038D817C
:101800008F3F19F060E00E9497030F2D10E08F8545
:1018100084FF25C06E0187E0C80ED11CF12CE12C9D
:10182000B8010E2C02C0759567950A94E2F76170B5
:10183000F60181916F010E949703FFEFEF1AFF0AF3
:1018400088E0E816F10461F7CE01DF91CF911F9196
:101850000F91FF90EF90DF90CF900C94AE0BB801FA
:1018600084E0759567958A95E1F7CE010E94C40BD7
:101870006F2DCE01DF91CF911F910F91FF90EF90CF
:10188000DF90CF900C94C40B41E00E94F10B81E0FB
:1018900090E0089540E00C94F10BEF92FF920F93CB
:1018A0001F93CF93DF938C017A0188E0689FB0018A
:1018B00011246064C8010E944A0CE701A8E0EA0E06
:1018C000F11C6991D801ED91FC910190F081E02D1E
:1018D000C8011995CE15DF05A1F7DF91CF911F91B2
:1018E0000F91FF90EF900895FC012389421710F0AB
:1018F0004FEF420FFC01E40FF11D2489620F606875
:101900000C944A0C61E00E944A0C8BE39FE1019722
:10191000F1F708950F931F93CF93DF93EC0162309B
:1019200019F48F8588608F876B8B1C8A80E48D8B80
:1019300080E18E8B80E58F8B61E08C810E94C503F6
:101940008D818F3F19F061E00E94C50361E08E81B7
:101950000E94C5038E0198012C1B3D0B8F8584FDD1
:101960000DC084E090E00F5F1F4F281739074CF43B
:1019700061E0F80186810E94C503EDCF88E090E028
:10198000F2CF8BE39DE00197F1F760E08C810E943C
:10199000970360E08E810E9497038D818F3F19F03D
:1019A00060E00E9497036F8564FD34C063E0CE0160
:1019B0000E94C40B0BE416E4C8010197F1F763E041
:1019C000CE010E94C40BC8010197F1F763E0CE017C
:1019D0000E94C40B83E592E00197F1F762E0CE012B
:1019E0000E94C40B6F856062CE010E944A0C84E0A5
:1019F000888B6CE0CE010E944A0CCE010E94820CC2
:101A000082E0898B66E0CE01DF91CF911F910F912B
:101A10000C944A0C6062CE010E944A0C8BE496E45E
:101A20000197F1F76F856062CE010E944A0C83E551
:101A300092E00197F1F76F856062CE010E944A0C37
:101A4000D1CFCF93DF93EC0188819981009711F07A
:101A50000E94DD34198218821D821C821B821A8228
:101A6000DF91CF910895FC0180819181009711F061
:101A70000C94DD340895DC018BEA92E08D939D9304
:101A800084E0FB0101900D928A95E1F70895CF93D0
:101A9000DF93EC01A881B981EB01E881F98110970E
:101AA000F1F03097B1F4EC018C819D81892BC9F064
:101AB0008C9190E00BC0DB0114968D919C91892B49
:101AC00081F0808190E0919581959109DF91CF918E
:101AD0000895BF01CD01DF91CF910C94643630970A
:101AE00051F790E080E0F2CFAF92BF92CF92DF92B9
:101AF000EF92FF920F931F93CF93DF9300D01F922B
:101B0000CDB7DEB78C016B017A0180912307833357
:101B1000E9F45B016801C40ED51EC016D106A9F117
:101B20000E9467078FE00E947207812F0E94720750
:101B3000802F0E9472070F5F1F4F80E00E94720784
:101B4000F50181935F010E945D07E7CF843369F55A
:101B50000E94670719830A838F2D8F778B83EC820E
:101B600064E070E0CE0101960E944307A70170E097
:101B700060E0C6010E945D36E114F10421F0B70176
:101B8000C6010E9443070E945D07C7010F900F9096
:101B90000F900F90DF91CF911F910F91FF90EF90D9
:101BA000DF90CF90BF90AF9008950E9467070F3FDE
:101BB000110509F030F419820A831B8263E070E09A
:101BC000D1CF17FD0BC019820A8333E01695079514
:101BD0003A95E1F7007E08600B83F0CFC80126E05C
:101BE000969587952A95E1F7807E19830A830115DA
:101BF000104C18F480618B83E1CF8861FCCFCF93C8
:101C0000DF931F92CDB7DEB741E050E0BE016F5FBA
:101C10007F4F0E94740D89810F90DF91CF910895BD
:101C200090E080E00C94FF0DCF93DF93C4E1D0E00F
:101C30000E94100E882361F061E070E080E090E087
:101C40000E9426042197A1F780E0DF91CF910895AB
:101C500081E0FBCF1F93CF93DF931F921F92CDB7ED
:101C6000DEB760E372E080E090E00E9426041FB7D8
:101C7000F89480912D06811127C0E7EBF2E0849162
:101C8000EDEFF2E09491E82FF0E0EE0FFF1FE25B42
:101C9000FD4FA591B491EC91E92321F461E085E336
:101CA0000E94970361E085E30E94C5038CB58061C3
:101CB0008CBD8CB580648CBD61E084E30E94C5035B
:101CC00061E083E30E94C50380912D068F5F8093BE
:101CD0002D061FBFECE8F2E0E491F0E0EE0FFF1FED
:101CE000E859FD4F8591949190932C0680932B0693
:101CF000E2EDF2E0E491E0932A0661E08AE00E94DE
:101D0000C5030E945D0780E591E00E94DF0184E346
:101D10008093230780E80E9427080E94140E8823DE
:101D200091F188E00E9427080E94100E883059F532
:101D300080E10E9427080E94100E803121F580E08A
:101D40000E9427080E94100E182F81111CC08FE1DD
:101D500090E00E94FF0D8330B1F480E480932E0662
:101D600042E06EE170E0812F0E946F0842E06FE177
:101D700070E0812F0E946F081F5F183089F781E0A3
:101D80008093800664C087E38093230780E80E94E5
:101D900027080E94140E8823F9F088E00E94270883
:101DA0000E94100E8830C1F480E10E9427080E9432
:101DB000100E182F803181F480E00E9427080E94C5
:101DC000100E811109C089E390E00E94FF0D84305C
:101DD00019F410932E06D3CF83E38093230780E872
:101DE0000E9427080E94140E882371F180E10E944E
:101DF00027080E94100E803139F582E10E942708E1
:101E00000E94100E823101F580E00E9427080E9496
:101E1000100E811119C084E080932E0615E51A83F7
:101E200041E050E0BE016E5F7F4F8BE190E00E9489
:101E30007907198341E050E0BE016F5F7F4F8AE16F
:101E400090E00E9479079BCF1092230780E00F90CB
:101E50000F90DF91CF911F91089520912E0630E0D1
:101E6000322F2227620F731F90E0982F8827860F4A
:101E7000971F0C94FF0DCF93C82F462F61E070E0A1
:101E80000E946F0861E070E08C2F0E942D0F81117D
:101E9000F9CFCF910895CF93C82F80E591E00E94AC
:101EA000DF0160E170E08C2FCF910C943B0FCF935A
:101EB000DF93EC01888D883020F40E944B0F88E07E
:101EC000888FDF91CF910895CF93FC01C08D80E57D
:101ED00091E00E94DF0160E270E08C2F0E943B0FD6
:101EE00062E070E08C2F0E942D0F84FD16C062E02E
:101EF00070E08C2F0E942D0F83FF0AC048E162E042
:101F000070E08C2F0E946F0880E090E0CF910895E0
:101F100080E591E00E94DF01E3CF40E162E070E004
:101F20008C2F0E946F0881E0F0CF1F93CF93DF9337
:101F30001F92CDB7DEB7FC01108D183020F5818DD2
:101F4000928D892B01F180E591E00E94DF01812FC4
:101F50000E943A0827E0129FF0011124E551F94F41
:101F600022813381377041E050E0BE016F5F7F4FC7
:101F7000820F931F0E94740D898190E00F90DF9172
:101F8000CF911F9108958FEF9FEFF8CFDA01E09185
:101F90002E06F0E0FE2FEE27E60FF71F90E0982FB9
:101FA0008827A901BD018E0F9F1F0C94740D8F927D
:101FB0009F92AF92BF92CF92DF92EF92FF920F93D8
:101FC0001F93CF93DF93CDB7DEB760970FB6F8942A
:101FD000DEBF0FBECDBF7C0190912307911115C0CC
:101FE00018E0812F60960FB6F894DEBF0FBECDBF0C
:101FF000DF91CF911F910F91FF90EF90DF90CF90E5
:10200000BF90AF909F908F90089508E0933309F4AC
:1020100004E06B0180E591E00E94DF019E012F5FEB
:102020003F4F5901490110E063E070E0812F0E94A9
:102030002D0FF40181934F018823C1F01F5F01131D
:10204000F3CF00E0F50181915F018D3149F08831D6
:1020500039F08A51823020F00F5F1013F3CFC0CFD8
:1020600060E170E0802F0E943B0F102FA12EB12C59
:1020700083EE93E00197F1F742E870E060E0812F92
:102080000E946F084FEF62E070E0812F0E946F089E
:10209000B601C114D10491F48091160290911702F7
:1020A00001968115F0EC9F0708F464C09093170225
:1020B000809316026091160270911702812F0E9480
:1020C000590886E0E2E2F2E0DE01199601900D92F5
:1020D0008A95E1F7F70183818F778C8784818D87DB
:1020E00085818E87A7014E5F5F4F24E030E06CE072
:1020F00070E0812F0E944808DF86C88A22E030E025
:10210000AE01415F5F4F60E170E0812F0E9448089F
:1021100026E030E0AE01475F5F4F66E070E0812F60
:102120000E94480861E070E0812F0E943B0F27E089
:102130002A9DC0012B9D900D11249C012551394FE2
:102140007901F9011182108222E030E0AE01415F95
:102150005F4F68E270E0812F0E94C60F8F859889DB
:10216000982789279827F7019383828316821582FF
:10217000148237CF80E090EC99CFCF92DF92EF922C
:10218000FF920F931F93CF93DF9300D000D0CDB772
:10219000DEB78C016B017A01FC01808D883010F470
:1021A0000E944B0F8BEA92E09A838983F601828129
:1021B0009381A481B5818B839C83AD83BE83B7015A
:1021C000CE0101960E94D70FF801808F8830A0F4CD
:1021D000F586E486128E118E81E026960FB6F8946D
:1021E000DEBF0FBECDBFDF91CF911F910F91FF904A
:1021F000EF90DF90CF90089580E0EFCFFF920F93A4
:102200001F93CF93DF931F921F92CDB7DEB7F82EA7
:1022100022E030E0AE014F5F5F4F66E270E00E9467
:10222000C60F09811A8110270127102722E030E00C
:10223000AE014F5F5F4F66E270E08F2D0E94C60FC8
:1022400089819A819827892798270817190749F4BF
:10225000C8010F900F90DF91CF911F910F91FF90C8
:1022600008958C01E3CF4F925F927F928F929F925D
:10227000AF92BF92CF92DF92EF92FF920F931F9394
:10228000CF93DF931F921F92CDB7DEB7782E6B01ED
:102290004A01A82EB12C27E0829FC0011124FC0125
:1022A000E551F94F7F010081118180E591E00E94A5
:1022B000DF010815190554F4872D0E94FE10F7015F
:1022C00026818C01021B1109118300830115110560
:1022D00029F563E070E0872D0E942D0F843159F0BD
:1022E000882349F001E010E08C3111F410E000E0A7
:1022F000119501951109C8010F900F90DF91CF91B1
:102300001F910F91FF90EF90DF90CF90BF90AF9013
:102310009F908F907F905F904F90089580169106C8
:102320000CF4840187E08A9DF0018B9DF00D11244F
:10233000E551F94FE280F380C114D10451F1270136
:10234000F7E05F22872D0E943A08840D951D2091A9
:102350002307273309F453C09801240D351D21307C
:10236000384008F44CC020E038E049018418950852
:10237000A401B6010E94740D2601480C591C680185
:10238000C818D908872D0E943A08A601B2010E94F8
:10239000740DE00EF11E87E08A9DF0018B9DF00D1B
:1023A0001124E551F94FF382E28220813181201B13
:1023B000310B318320838681800F912F911D8A3FBD
:1023C000910510F4232BF1F487E08A9DF0018B9D99
:1023D000F00D1124E551F94F1682F982EA8222E0CC
:1023E00030E0AE014F5F5F4F68E270E0872D0E94E2
:1023F000480860E470E0872D0E943B0F7CCFA80165
:10240000B601C5CF868377CFCF93DF93FC01218DB3
:10241000328D2115310529F48FEF9FEFDF91CF9198
:102420000895EC01808D4217530708F0A9010E941E
:1024300033111816190684F7298D3A8D281B390B8C
:102440003A8F298FEBCF0F931F93CF93DF931F9278
:10245000CDB7DEB7FC01218D328D232B41F48FEFF8
:102460009FEF0F90DF91CF911F910F9108958C01F5
:1024700041E050E0BE016F5F7F4FFC01808D0E9404
:102480003311181619065CF7F801818D928D0197AA
:10249000928F818F898190E0E4CFDF92EF92FF925B
:1024A0000F931F93CF93DF9300D000D01F921F9202
:1024B000CDB7DEB78C01D80159964D915C915A97F2
:1024C0004115510551F0ED91FC91048CF58DE02DF5
:1024D00070E060E0C8011995EECFF801D08CF7E00C
:1024E000DF9EC00111249C012551394F7901D9018A
:1024F0008D919C91892B59F148E050E0BE016F5FAE
:102500007F4FF801808D0E9433111816190694F53B
:10251000D801509684E0FE01319601900D928A9583
:10252000E1F78D8190E0982F88272E81820F911DF1
:10253000F801958B848B8F81282F30E0322F222752
:102540008885820F932F911D928F818F13C080E514
:1025500091E00E94DF018D2D0E94FE10D70116969A
:102560002C911697821B91098D939C93892B21F6B0
:1025700090E080E028960FB6F894DEBF0FBECDBF86
:10258000DF91CF911F910F91FF90EF90DF90089511
:102590003F924F925F926F927F928F929F92AF92F3
:1025A000BF92CF92DF92EF92FF920F931F93CF9340
:1025B000DF931F921F92CDB7DEB75C014B01342E23
:1025C000452EFC0166887788508C80E591E00E945A
:1025D000DF0122E030E0AE014F5F5F4F60E270E06C
:1025E000852D0E94C60FC980DA80DC24CD24DC242E
:1025F00022E030E0AE014F5F5F4F60E270E0852D7A
:102600000E94C60F89819A81982789279827C81622
:10261000D90609F079C0E52CF12C67E0569EF0014F
:102620001124E551F94FD582C482032D142DC01613
:10263000D10608F4860122E030E0AE014F5F5F4F23
:1026400064E270E0852D0E94C60F89819A819827E7
:1026500089279827680E791E9301377040912307C8
:10266000433309F053C088E0E80EF11CFE2CEE2441
:10267000FF0CFF0CFF0CC9018E0D9F1D473309F4A1
:1026800049C0A901400F511F4130584008F442C0D1
:1026900060E078E06B01C21AD30AA601B4010E947F
:1026A0007907A8014C195D09B4016C0D7D1DC701A6
:1026B0000E947907600E711E79826A8222E030E002
:1026C000AE014F5F5F4F64E270E0852D0E944808C5
:1026D000F50186899789800F911F978B868BC8019A
:1026E0000F900F90DF91CF911F910F91FF90EF907E
:1026F000DF90CF90BF90AF909F908F907F906F9022
:102700005F904F903F9008956C0172CFE0E1EE0E24
:10271000F11CACCFA801B401CBCF8F929F92AF92A6
:10272000BF92CF92DF92EF92FF920F931F93CF93BE
:10273000DF9300D000D000D01F92CDB7DEB76C0180
:102740005B01FC01808D883010F40E944B0F80915A
:102750002307811117C088E0F601808F80E02A9658
:102760000FB6F894DEBF0FBECDBFDF91CF911F91A2
:102770000F91FF90EF90DF90CF90BF90AF909F9020
:102780008F90089508E0833309F404E080E591E038
:102790000E94DF019E012F5F3F4F4901790110E048
:1027A00063E070E0812F0E942D0FF70181937F017C
:1027B0008823C1F01F5F0113F3CFF12CF401819145
:1027C0004F018D3149F0883139F08A51823020F043
:1027D000F3941F11F3CFBFCF60E170E08F2D0E9403
:1027E0003B0F1F2DE12EF12C83EE93E00197F1F7C3
:1027F00042E070E060E0812F0E946F084FEF62E0DE
:1028000070E0812F0E946F08B501A114B10489F412
:10281000809116029091170201968115F0EC9F07A6
:10282000D0F1909317028093160260911602709176
:102830001702812F0E94590861E070E0812F0E94E9
:102840003B0F27E02E9DC0012F9D900D11249C0170
:102850002551394F7901F9011182108222E030E0CF
:10286000AE01475F5F4F68E270E0812F0E94C60FA4
:1028700089859A85982789279827F70193838283EA
:10288000168215821482F601108FB586A486128EE8
:10289000118E81E064CF80E090ECC3CF6F927F9285
:1028A0008F929F92AF92BF92CF92DF92EF92FF9260
:1028B0000F931F93CF93DF93CDB7DEB7EC970FB68F
:1028C000F894DEBF0FBECDBF4C018B013A018BEAFD
:1028D00092E09A8389831C861B8648EE53E060E071
:1028E00070E04D875E876F87788B2DE532E03A8701
:1028F0002987988F8F8B198E1A8E1B8E1C8E28E03D
:1029000029A399AB88AB1AAA1BAA1CAA1DAA80915D
:102910005D0890915E08A0915F08B09160088EA359
:102920009FA3A8A7B9A78B839C83AD83BE8318867A
:102930001F82F80120E090E080E06AE031913323CB
:1029400009F47AC040ED430F4A3008F064C0689F34
:10295000A001699F500D1124CA01C097830F911DDA
:1029600037FD9A958F3F910549F340F34B815C8188
:102970006D817E818091690890916A08A0916B08B1
:10298000B0916C08481759076A077B0709F428C2F9
:102990000E9458046F7077277C5FCE0109960E94D1
:1029A0008D13813009F01FC28BEA92E09DA38CA3A6
:1029B0008B819C81AD81BE818EA39FA3A8A7B9A75F
:1029C00045E350E0BE016C5D7F4FCE0109960E9449
:1029D000A708892B09F04EC010E000E0CE0109964F
:1029E0000E94570F0130110559F1C801EC960FB63E
:1029F000F894DEBF0FBECDBFDF91CF911F910F9135
:102A0000FF90EF90DF90CF90BF90AF909F908F900E
:102A10007F906F9008953E3209F0A8CF233009F4DB
:102A2000A5CFA2E3B0E0AC0FBD1FA20FB11D8C93E8
:102A30002F5F90E080E082CF233009F097CF8DABFD
:102A4000D401ED91FC910488F589E02D8BEA92E0A8
:102A50009DA38CA38AA99BA9ACA9BDA98EA39FA362
:102A6000A8A7B9A7A301BE016C5D7F4FC40119954A
:102A70008C01BBCF0E94580478876F8342E050E0FE
:102A8000BE01695F7F4FCE0109960E94C81281E0A6
:102A900090E09DA38CA342E050E0BE016C5D7F4FAF
:102AA000CE0109960E94C81280E091E09DA38CA3FC
:102AB00042E050E0BE016C5D7F4FCE0109960E945E
:102AC000C8121DA21CA242E050E0BE016C5D7F4F07
:102AD000CE0109960E94C81242E050E0BE016C5D32
:102AE0007F4FCE0109960E94C81242E050E0BE011D
:102AF0006C5D7F4FCE0109960E94C8127801D80103
:102B00008C91882311F18701F80181916F0188234D
:102B100011F08E32C1F45801AE18BF081A141B040C
:102B200084F4AEAA41E050E0BE016A5C7F4FCE0162
:102B300009960E94C812A501B701CE0109960E940C
:102B4000C8127601DCCF8601DFCF1EAA41E050E03B
:102B5000BE016A5C7F4FCE0109960E94C81200E058
:102B600011E01DA30CA342E050E0BE016C5D7F4F5D
:102B7000CE0109960E94C8121DA30CA342E050E0AA
:102B8000BE016C5D7F4FCE0109960E94C812CE0136
:102B900009960E94640F892B09F41ECF83E0E82E6A
:102BA000F12CD7C04B815C816D817E81898D9A8D9E
:102BB000AB8DBC8D481759076A077B0709F00AC11E
:102BC0008D8D9E8DC59709F005C18AA19BA10DEF42
:102BD0001FEF0C970CF4B4C04CE050E0BE016C5DEC
:102BE0007F4FCE0109960E9404128EA19FA19827C3
:102BF000892798279BAF8AAF4F8158852CA13DA18B
:102C00004217530709F0E9C097FFE7C08F70927031
:102C10000BEF1FEF892B09F093C0AAA4BBA4BA2421
:102C2000AB24BA240AEF1FEFA114B10409F488C041
:102C300010E000E088A599A598278927982708170C
:102C4000190708F541E050E0BE016A5C7F4FCE01F4
:102C500009960E9404124EA9442339F050E070E016
:102C600060E0CE0109960E9404128EA98111EACF7C
:102C700044E050E070E060E0CE0109960E9404124A
:102C80000F5F1F4FD7CFD12CC12C41E050E0BE01C8
:102C9000645C7F4FCE0109960E9404124CAD842FD4
:102CA000807C09F074C0442339F050E070E060E0AB
:102CB000CE0109960E9404128CAD8111E6CF42E04C
:102CC00050E0BE01685C7F4FCE0109960E9404125D
:102CD00042E050E0BE016A5C7F4FCE0109960E943F
:102CE000041244E050E070E060E0CE0109960E94DA
:102CF000041242E050E0BE01665C7F4FCE010996AF
:102D00000E94041288AD99AD4AAD5BAD811591402A
:102D100009F047C00EA91FA910270127102701306D
:102D2000110509F03EC04115544009F04DC044E082
:102D300050E0BE016E5C7F4FCE0109960E940412E6
:102D4000F1E0EF1AF10809F449CE0F3F100709F03E
:102D500045CE0E9458045B016C01CE0109960E9489
:102D60004D12181619060CF41DCF0E9458046A194A
:102D70007B098C099D09693873418105910538F5F6
:102D800062E370E080E090E00E942604E6CF41E03C
:102D900050E070E060E0CE0109960E9404121CAE83
:102DA0008BCF54274527542770E060E0CE01099669
:102DB0000E940412EFEFCE1ADE0AAC14BD0409F033
:102DC00064CF06EF1FEFBCCF07EF1FEFB9CF0FEFB8
:102DD0001FEFB6CF0EEF1FEFB3CF0CEF1FEFB0CF4B
:102DE0000EEF1FEF02CE10E000E0FFCD7F928F923A
:102DF0009F92AF92BF92CF92DF92EF92FF920F938A
:102E00001F93CF93DF93CDB7DEB7A6970FB6F89495
:102E1000DEBF0FBECDBF8C01762E942E852E20E214
:102E2000A22ECE0101967C01DC01EA2D1D92EA95CD
:102E3000E9F76801F3E4CF0ED11C8BEA92E09AA384
:102E400089A38FEF8BA38CA38DA38EA343E450E0C3
:102E5000BE016F5D7F4FC6010E94A708019609F46D
:102E6000BFC081E089838A8386E0B82EBB821C8242
:102E7000D80114966D917D918D919C9117970E9428
:102E80003A346D837E838F83988789869A8680E81B
:102E900090E09C878B874CE150E0B701C6010E940F
:102EA000C812FE0137968AE1DF011D928A95E9F783
:102EB0004801B8E08B0E911CF401D70101900D92EE
:102EC000BA94E1F740E150E0B701C6010E94C81290
:102ED000F7011192AA94E9F796E0A92EB12C40E2ED
:102EE00050E0B701C6010E94C812F1E0AF1AB10864
:102EF000B1F783E6898392E89A8393E59B838C8379
:102F000085E38D8381E08E837F829DE3988797E0C0
:102F100099878A8786E0F401DE011B9601900D9265
:102F20008A95E1F78CE0898B8A8B6DEA72E0CE019D
:102F300043960E946D36D8011B966C91CE0149963E
:102F40000E94E201F8016485CE014B960E94E201E5
:102F5000D8011D966C91CE014D960E94E2014EE182
:102F600050E0B701C6010E94C812B3E07B121EC038
:102F700082E3898384E08A83F80196859B83978521
:102F80009C8390899D8391899E8396E39F83888704
:102F9000828D8987838D8A87848D8B87858D8C87A9
:102FA0004CE050E0B701C6010E94C81287E3898354
:102FB00086E08A8391E09B8393E09C838D838FE0FE
:102FC0008E838AE38F838BE388878FEF898749E03D
:102FD00050E0B701C6010E94C812C6010E94640FEA
:102FE000A6960FB6F894DEBF0FBECDBFDF91CF918E
:102FF0001F910F91FF90EF90DF90CF90BF90AF9017
:103000009F908F907F9008950F931F93CF93DF939E
:10301000EC018B0186E090E00E944134FC011382B8
:10302000128215821482118300838A819B81892BED
:1030300071F4FB83EA83FD83EC8388819981019697
:1030400099838883DF91CF911F910F910895AC816F
:10305000BD811596FC93EE931497EDCF0F931F93BC
:10306000CF93DF93EC0188819981009759F02A81F1
:103070003B812617370730F081E0DF91CF911F9118
:103080000F9108958B016F5F7F4F0E946635009707
:1030900059F0998388831B830A832C813D81232BDC
:1030A00059F7FC011082E8CF80E0E7CFEF92FF9262
:1030B0000F931F93CF93DF93EC018617970781F04F
:1030C000FB01008111810115110539F0E480F580C3
:1030D000B7010E942E1881110BC0CE010E94210D54
:1030E000CE01DF91CF911F910F91FF90EF90089546
:1030F000FD82EC82B801888199810E946D36F0CF03
:10310000EF92FF920F931F93CF93DF93EC017B011C
:10311000198218821B821A821D821C82FB01019077
:103120000020E9F731978F01061B170BB8010E94A9
:103130002E18811109C0CE01DF91CF911F910F91FF
:10314000FF90EF900C94210D1D830C83B7018881B3
:103150009981DF91CF911F910F91FF90EF900C9487
:103160006D364F925F926F927F928F929F92AF9245
:10317000BF92CF92DF92EF92FF920F931F93CF9364
:10318000DF9300D000D0CDB7DEB73C016B014A0120
:103190005901DC01ED91FC914080518010E000E08C
:1031A000F301E080F18004151505ECF5D7018D9150
:1031B0009C91119770E060E0081719077CF4129653
:1031C000ED91FC9190E080E00817190729F0048048
:1031D000F581E02D0196F8CF608171811A82198204
:1031E0001C821B821E821D82CE0101960E945618EF
:1031F0002D813E81F601848195812817390749F494
:10320000B601CE0101960E94470DFF24F394892B4D
:1032100009F0F12CCE0101960E94330DF11059C036
:103220000F5F1F4FBDCF1A8219821C821B821E8224
:103230001D82B601CE0101960E9456188EE090E0E4
:103240000E9441346C0166EB72E00E948018BE015E
:103250006F5F7F4FC6010E945618D6011B969C9245
:103260008E921A971D96BC92AE921C97C4010E9432
:103270005F09AB01BC01F601468357836087718704
:103280008A019C01C5010E942F0986E090E00E94FE
:103290004134FC011382128215821482D182C082D1
:1032A000D70112968D919C911397892B49F513960E
:1032B000FC93EE9312971596FC93EE931497F701F7
:1032C00080819181019691838083CE0101960E9435
:1032D000330D26960FB6F894DEBF0FBECDBFDF913B
:1032E000CF911F910F91FF90EF90DF90CF90BF9003
:1032F000AF909F908F907F906F905F904F900895C8
:1033000014968D919C91DC011596FC93EE93149785
:10331000D701D1CF4F925F926F927F928F929F92FF
:10332000AF92BF92CF92DF92EF92FF920F931F93D3
:10333000CF93DF9300D000D0CDB7DEB73C016B0157
:103340004A015901DC01ED91FC9140805180F12C42
:10335000E12CF30100811181E414F5045CF5B7015F
:10336000C8010E94D5091A8219821C821B821E8202
:103370001D82BC01CE0101960E9456182D813E810E
:10338000D60114968D919C912817390741F4B60106
:10339000CE0101960E94470D11E0892B09F010E043
:1033A000CE0101960E94330D111154C0BFEFEB1AEC
:1033B000FB0ACFCF1A8219821C821B821E821D82B9
:1033C000B601CE0101960E9456188CE090E00E9452
:1033D00041347C0166EB72E00E948018BE016F5F91
:1033E0007F4FC7010E945618F70191868086B386E9
:1033F000A286C4010E94AD09D70117969C938E93B3
:103400001697AC01BC01C5010E94880986E090E0D6
:103410000E944134FC011382128215821482F182CF
:10342000E082D80112968D919C911397892B49F5D2
:103430001396FC93EE9312971596FC93EE931497C4
:10344000F80180819181019691838083CE0101965C
:103450000E94330D26960FB6F894DEBF0FBECDBF87
:10346000DF91CF911F910F91FF90EF90DF90CF9060
:10347000BF90AF909F908F907F906F905F904F9094
:10348000089514968D919C91DC011596FC93EE9312
:103490001497D801D1CFFB0101900020E9F73197B3
:1034A000AF01461B570BDC01ED91FC910280F381CB
:1034B000E02D19948F929F92AF92BF92EF92FF925C
:1034C0000F931F93CF93DF93CDB7DEB7A1970FB6BE
:1034D000F894DEBF0FBECDBF7C01FA01CB0119A26B
:1034E000223008F42AE08E010F5D1F4F822E912CAE
:1034F000B12CA12CBF01A50194010E94E932F90170
:10350000CA016A300CF5605DD8016E938D01232BE2
:10351000242B252B79F790E080E0109721F0BD0156
:10352000C7010E944B1AA1960FB6F894DEBF0FBEDA
:10353000CDBFDF91CF911F910F91FF90EF90BF9082
:10354000AF909F908F900895695CDECFCF92DF920D
:10355000EF92FF92CF93DF936C01990FEE08FF0873
:10356000F7FE1BC06DE284E997E00E94F501EC01D3
:1035700044275527BA014C195D096E097F092AE0D5
:1035800084E997E00E945A1A8C0F9D1FDF91CF911A
:10359000FF90EF90DF90CF9008952AE0B701A60149
:1035A00084E997E0DF91CF91FF90EF90DF90CF908B
:1035B0000C945A1A8F929F92AF92BF92CF92DF9241
:1035C000EF92FF920F931F93CF93DF937C018B01B8
:1035D0006C0182E0C80ED11C4701E5E08E0E911C03
:1035E000D0E0C0E0F60141916F0150E070E060E092
:1035F0002AE0C8010E945A1A5C016EE2C8010E94CA
:10360000F5018A0D9B1DC80FD91FC814D90451F7A5
:10361000F701458150E070E060E02AE0C8010E94B7
:103620005A1A8C0F9D1FDF91CF911F910F91FF9020
:10363000EF90DF90CF90BF90AF909F908F900895C4
:10364000CF93DF93BC0184E997E00E944B1AEC0111
:1036500064EB72E084E997E00E944B1A8C0F9D1F87
:10366000DF91CF910895CF93DF93EC0187EB92E048
:103670000E94201B8F859889DC01ED91FC910190BF
:10368000F081E02D199562E08D859E850E948A0C5F
:1036900048E052E060E08D859E850E944D0C40E040
:1036A00052E061E08D859E850E944D0C8D859E8542
:1036B0000E94820C8D859E85FC016089262F2460E6
:1036C000208B6C600E944A0C6EE170E08F859889B7
:1036D0000E94540A62E370E080E090E0DF91CF91B5
:1036E0000C942604CF92DF92EF92FF9288EC92E046
:1036F0000E94201B1092EA061092E90610927107B0
:10370000109293070E94BD048BEB96E090935106B4
:10371000809350068CEB96E0909355068093540668
:1037200064E08EE00E94150981E08093700788E6CE
:103730008093920710927107109293076FE081E3D4
:1037400098E00E94140781E00E94FC040E94580443
:103750006B017C010E9458046C197D098E099F0938
:10376000643671058105910588F461E088E60E9460
:10377000EC051092EA068093E906813089F062E058
:1037800070E080E090E00E942604E4CF80E0682FA3
:1037900068608FE0FF90EF90DF90CF900C94150958
:1037A00081E398E00E94CD06F2CF2F923F924F9294
:1037B0005F926F927F928F929F92AF92BF92CF92C1
:1037C000DF92EF92FF921F93CF93DF93EC016A0198
:1037D0007B01722EAB019601CB01B6010E942D3404
:1037E00066EE72E0811126C046015701E894B7F8F1
:1037F0002FEF3FEF4FE75FE7C501B4010E942D3483
:1038000081110CC02FEF3FEF4FE75FE7C501B40117
:103810000E9490316AEE72E0181664F02FEF3FEFCD
:103820004FE75FE4C701B6010E9428341816B4F4CC
:103830006EEE72E0CE01DF91CF911F91FF90EF907D
:10384000DF90CF90BF90AF909F908F907F906F90C0
:103850005F904F903F902F900C944B1A2FEF3FEFBB
:103860004FE75FECC701B6010E94903187FDE0CFC2
:1038700020E030E0A901C701B6010E949031312C4F
:10388000212C87FF09C06DE2CE010E94F5011C01C9
:10389000F7FAF094F7F8F09410E060E070E080E060
:1038A0009FE3711641F020E030E040E251E40E94D5
:1038B00087331F5FF6CFA70196010E941B332B01B0
:1038C0003C010E94F9334B015C012AE0BC01A401D8
:1038D000CE010E945A1A7C01E20CF31C1123C1F1A3
:1038E000C501B4010E9495319B01AC01C301B20135
:1038F0000E941A334B015C016EE2CE010E94F50179
:10390000E80EF91E115020F120E030E040E251E4D1
:10391000C501B4010E94F6312B013C010E94F9332C
:103920004B01B12CA12C2AE0B501A401CE010E94CB
:103930005A1AE80EF91EC501B4010E9495319B0187
:10394000AC01C301B2010E941A334B015C01DACF12
:10395000C701DF91CF911F91FF90EF90DF90CF9043
:10396000BF90AF909F908F907F906F905F904F909F
:103970003F902F900895CF92DF92EF92FF920F9396
:103980001F93CF93DF937901DC011296CD91DC91E7
:1039900040E06AE08D859E850E94740C8D859E8531
:1039A000DC01ED91FC910190F081E02D60E0199532
:1039B00060E28D859E850E94F50120E0B701A80197
:1039C0008D859E850E94D51B6FED8D859E850E94FD
:1039D000F50163E48D859E85DF91CF911F910F9155
:1039E000FF90EF90DF90CF900C94F501CF92DF9293
:1039F000EF92FF920F931F93CF93DF937901DC0136
:103A00001296CD91DC9141E06BE08D859E850E9400
:103A1000740C8D859E85DC01ED91FC910190F08107
:103A2000E02D61E0199560E28D859E850E94F5018B
:103A300020E0B701A8018D859E850E94D51B65E217
:103A40008D859E85DF91CF911F910F91FF90EF9013
:103A5000DF90CF900C94F5016115710511F00C9475
:103A60004B1A90E080E00895EF92FF920F931F931E
:103A7000CF93DF93EC018B017A01888199810E94B9
:103A8000820C62EF72E0888199810E942C1D40E0D7
:103A900063E0888199810E94740C8881998164E730
:103AA00075E00115110511F464EB75E00E942C1D01
:103AB00001301105A9F4EA94EF2891F440E065E0A3
:103AC000888199810E94740C65EF72E088819981E8
:103AD000DF91CF911F910F91FF90EF900C942C1DCF
:103AE000DF91CF911F910F91FF90EF900895EF928A
:103AF000FF920F931F93CF93DF93EC017B018A0119
:103B00008C819D810E94340B69EF72E084E997E01B
:103B10000E942C1DC7010E94A61A69E373E084E984
:103B200097E00E942C1DC8010E94A61A64EB72E067
:103B300084E997E00E944B1A8E819F810130110524
:103B4000C9F40E942B0BEA80FB80888999890E9426
:103B5000410B41E050E0892B11F050E040E0B8010A
:103B6000C7010D96DF91CF911F910F91FF90EF90BC
:103B70000C94341DFC011286118670E060E00E94F6
:103B8000540AE1CFCF93DF93EC01888199810E94A1
:103B9000820C69E073E0888199810E942C1D41E0CC
:103BA00060E0888199810E94740C62E173E08881F1
:103BB00099810E942C1D60ED77E080E090E0DF911C
:103BC000CF910C942604CF93DF93EC0188819981E7
:103BD0000E94820C40E060E0888199810E94740C10
:103BE00062EF72E0888199810E942C1D41E060E0C3
:103BF000888199810E94740C6EE173E088819981BB
:103C0000DF91CF910C942C1DEF92FF921F93CF93D5
:103C1000DF93EC017B018885811110C067E273E0BE
:103C200084E997E00E942C1D8E819F810E94A61A34
:103C30006CE273E084E997E00E942C1DFD82EC8227
:103C400081E0E816F104B9F068F082E0E816F104CA
:103C5000D9F0612F8E81DF91CF911F91FF90EF906E
:103C60000C94C5038885811104C08EE393E00E9403
:103C7000201B10E0EECF8885811104C085E493E01D
:103C80000E94201B12E0E5CF8885811104C083E5E6
:103C900093E00E94201B11E0DCCF8F929F92AF92A5
:103CA000BF92CF92DF92EF92FF920F931F93CF9329
:103CB000DF93CDB7DEB7C054D1400FB6F894DEBF66
:103CC0000FBECDBF8C010E945804F801C788D08C6C
:103CD000E18CF28C9B01AC012C193D094E095F0966
:103CE00069017A0130EDC31637E0D306E104F1042F
:103CF000D0F4668970E090E080E00E949531C05C6D
:103D0000DE4F0FB6F894DEBF0FBECDBFDF91CF916F
:103D10001F910F91FF90EF90DF90CF90BF90AF90E9
:103D20009F908F900895678B708F818F928F128AEA
:103D3000118A108A1786168661E070E0C8010E9419
:103D4000041E61E070E080E090E00E94260462E0E2
:103D500070E0C8010E94041E70E060E0C8010E948B
:103D6000540AF801828593850297029738F58BE211
:103D700091E10197F1F761E070E0C8010E94041E33
:103D8000F801838990E08230910538F0880F991FFF
:103D9000880F991F05970197F1F7F89460E0C80123
:103DA0000E941A0A6F3F7F4F8F4F9F4F71F4F801A7
:103DB000168A60E070E0CB017894A1CF64E170E0F6
:103DC00080E090E00E942604D6CF61E0C8010E9406
:103DD0001A0A6F3F7F4F8F4F9F4F49F39E012F5F0E
:103DE0003F4F79015E013FEBA31A3EEFB30A670133
:103DF00060E0C8010E941A0AF60160837183828321
:103E0000938361E0C8010E941A0AF60164837583F6
:103E100086839783F8E0CF0ED11CAC14BD0441F724
:103E200030E020E0F70180809180A280B38044815F
:103E3000558166817781FFEF8F169F06AF06BF061B
:103E400009F4B5CF4F3F8FEF58076807780709F49B
:103E5000AECFF90183E0F595E7958A95E1F7E00F9C
:103E6000F11F8685880F84169506A606B70618F1F9
:103E700086872F5F3F4F98E0E90EF11C283231050D
:103E800089F6F801428926858785280F3327331F55
:103E90008089280F311D8189820F932F911D9927C9
:103EA0004817190609F083CF81E0868B60E070E047
:103EB00080E89FE381CF8160DBCFCF92DF92EF92EA
:103EC000FF92CF93DF93FC01C689D789CE010E9470
:103ED0004D1E20E030E0A9010E9490318823C1F1FD
:103EE0008A859B858230910590F0049788F56E85D0
:103EF0007F8576276727762790E080E00E949531BE
:103F00002DEC3CEC4CEC5DE30E94F6311AC06F8561
:103F100070E090E080E00E9497312DEC3CEC4CEC9E
:103F20005DE30E94F6316B017C016E8570E090E0EC
:103F300080E00E9497319B01AC01C701B6010E944D
:103F40001B33DF91CF91FF90EF90DF90CF900895DA
:103F500060E070E080EC9FE7F4CFCF92DF92EF92C9
:103F6000FF921F93CF93DF93FC01C689D789CE01BF
:103F70000E944D1E20E030E0A9010E94903188236C
:103F800009F47BC08A859B858130910509F457C06F
:103F9000B8F0049708F071C01889612F70E0762F8F
:103FA000662766277F778989682B90E080E00E94EA
:103FB00095312DEC3CEC4CEC5DE30E94F63159C0A0
:103FC000688970E090E080E00E9495316B017C018F
:103FD000198917FF0AC0AC019B0160E070E080E81E
:103FE0009FEB0E941A336B017C011F70612F70E000
:103FF00090E080E00E9497312DEC3CEC4CEC5DE3CE
:104000000E94F631A70196010E941B332C853D8545
:104010002130310561F420E030E040E052E40E94BC
:104020001A3326E838E34EE05FE30E94F631DF9171
:10403000CF911F91FF90EF90DF90CF900895188956
:10404000612F70E090E080E00E9495316B017C016F
:1040500069896F7070E090E080E00E9497312DECEC
:104060003CEC4CEC5DE30E94F631A70196010E9406
:104070001B3317FFCBCF9058C9CF60E070E080ECC6
:104080009FE7D5CFCF93DF93EC016C817D810E94B8
:10409000041E81E08887DF91CF910895CF93DF934D
:1040A000EC018E819F81FC01E853FD4FE491EC8B84
:1040B000FC01EE57FD4FE491ED8B80E89EE3A0E01C
:1040C000B0E08B8F9C8FAD8FBE8F0E945804605DD7
:1040D0007740810991096F8B788F898F9A8F8985B5
:1040E0008B8BCE01DF91CF910C944220EF92FF9207
:1040F0000F931F93CF93DF93EC017B018A018C8197
:104100009D810E94340B6BE573E084E997E00E9487
:104110002C1DC7010E94A61A69E373E084E997E0A9
:104120000E942C1DC8010E94A61A64EB72E084E96B
:1041300097E00E944B1A8885998501301105C9F4D2
:104140000E942B0BEA80FB808C859D850E94410B91
:1041500061E070E0892B11F070E060E0A801C70118
:104160000D96DF91CF911F910F91FF90EF900C94DE
:10417000341DFC011286118670E060E00E94540A32
:10418000E1CF85ED8093BC0080916C0790916D0725
:10419000A0916E07B0916F070796A11DB11D23E096
:1041A000B695A795979587952A95D1F72091BC004C
:1041B00024FD03C010926A07089540916C07509146
:1041C0006D0760916E0770916F07452B462B472B4B
:1041D00069F30097A105B10541F025E32A95F1F7B0
:1041E00000000197A109B109E1CF80916B070C9400
:1041F000DB043F924F925F926F927F928F929F92D9
:10420000AF92BF92CF92DF92EF92FF920F931F93E4
:10421000CF93DF93CDB7DEB7EA970FB6F894DEBF42
:104220000FBECDBF7C012A013B0169010E945804E9
:104230004B015C0187010D5B1F4FC8010E944D12AD
:10424000181619069CF00E945804681979098A0901
:104250009B09461657066806790608F466C162E3AC
:1042600070E080E090E00E942604E7CF42E250E058
:10427000BE016F5F7F4FC8010E94041289818230A6
:10428000D1F0312C832DEA960FB6F894DEBF0FBE25
:10429000CDBFDF91CF911F910F91FF90EF90DF90F5
:1042A000CF90BF90AF909F908F907F906F905F90D6
:1042B0004F903F900895F801848995898334910542
:1042C00001F76D817E818F8198850E943A344B0180
:1042D0005C01F60180829182A282B38246E050E0C6
:1042E000B701685F7F4FCE014D960E944736892BFC
:1042F00041F6F70180819181A281B38188169906E8
:10430000AA06BB0608F4BDCF84819581A681B7813A
:1043100088159905AA05BB0508F4B3CF89899A8940
:10432000AB89BC8986879787A08BB18B4EEC50E018
:1043300070E060E0C8010E940412312CC70182962F
:1043400098AB8FA7F701B696FAABE9AB08969CAB92
:104350008BAB67019AE1C90ED11CBD96FEABEDABEC
:10436000C701429698AF8FABFD97FAAFE9AF47010F
:10437000FEE18F0E911CF801818D928D18161906A1
:104380000CF080CFC8010E9423128333910509F4F9
:10439000B2C014F58130910509F464C044F4892B4E
:1043A00051F3C8010E942312AC01552775C0833018
:1043B000910509F462C00697A1F7C8010E94231273
:1043C000B82E44E050E0B401C8010E940412EB2D65
:1043D000E450FF0BAF0160C08A33910509F45FC060
:1043E00084F585339105B1F1C697D9F6C8010E94CD
:1043F00023125C01B601CE0189960E943B0D8BA56C
:104400009CA5ADA5BEA5892B8A2B8B2BB1F0EDA960
:10441000FEA94080518062807380B601CE018396F0
:104420000E943B0D8DA19EA1AFA1B8A5A501481684
:1044300059066A067B0609F0B8CF44E050E0B601A1
:1044400018C08B33910509F440C08F3F910509F4E2
:1044500092CFA7CFC8010E942312C8010E94231245
:10446000382E89CFC8010E94231244E050E06FA982
:1044700078ADC8010E9404127ECFC8010E942312A9
:10448000B82E44E050E069AD7AADC8010E94041234
:104490008B2D8450990BAC0170E060E0EACFC8012D
:1044A0000E94231244E050E069A97AA9C8010E9441
:1044B0000412F70166A177A180A591A50E943A3464
:1044C00066A377A380A791A756CFC8010E942312A5
:1044D00044E050E06BA97CA9C8010E940412F701D6
:1044E00062A573A584A595A50E943A3462A773A717
:1044F00084A795A740CFC8010E94231244E050E052
:104500006FA578A9C8010E940412F70162A173A1E6
:1045100084A195A10E943A3462A373A384A395A3B6
:1045200066A777A780AB91AB26CF33243A94AACE67
:104530001F920F920FB60F9211240BB60F922F936A
:104540003F934F935F936F937F938F939F93AF931B
:10455000BF93EF93FF9384E997E00E947002FF916D
:10456000EF91BF91AF919F918F917F916F915F91EB
:104570004F913F912F910F900BBE0F900FBE0F9058
:104580001F9018951F920F920FB60F9211240BB621
:104590000F922F938F939F93EF93FF93E091A40734
:1045A000F091A5078081E091AA07F091AB0782FD09
:1045B0001DC090818091AD078F5F8F732091AE07F2
:1045C000821741F0E091AD07F0E0EC56F84F958F7F
:1045D0008093AD07FF91EF919F918F912F910F9055
:1045E0000BBE0F900FBE0F901F9018958081F2CFD9
:1045F0001F920F920FB60F9211242F933F938F9318
:104600009F93AF93BF938091780690917906A09184
:104610007A06B0917B063091770623E0230F2D3781
:1046200058F50196A11DB11D209377068093780659
:1046300090937906A0937A06B0937B0680917C06CE
:1046400090917D06A0917E06B0917F060196A11DF6
:10465000B11D80937C0690937D06A0937E06B09357
:104660007F06BF91AF919F918F913F912F910F90B6
:104670000FBE0F901F90189526E8230F0296A11DDC
:10468000B11DD2CF1F920F920FB60F9211240BB60D
:104690000F922F933F934F935F936F937F938F93DB
:1046A0009F93AF93BF93EF93FF938091B900887F5F
:1046B000803609F44DC008F040C0883209F4A9C022
:1046C00028F5803109F49DC0C8F4882309F4FBC0A3
:1046D000883009F496C0FF91EF91BF91AF919F91FF
:1046E0008F917F916F915F914F913F912F910F909B
:1046F0000BBE0F900FBE0F901F901895883109F4D4
:1047000088C0803241F78093680714C0803409F470
:104710009DC040F48033B9F38833E9F6809368078D
:1047200085ECB0C0803509F485C0883509F496C0A1
:10473000883489F60E94C120CECF883909F48CC014
:1047400038F5883729F050F4883611F0803719F69B
:1047500083E080936A071092760657C0883809F480
:104760007BC0803919F0803809F0B5CF809176068A
:10477000803208F071C0E091760681E08E0F809360
:1047800076068091BB00F0E0EA5AF94F80833DC085
:10479000803B39F0E0F4803A09F479C0883A09F0B6
:1047A0009ACF84E080936A071092530610925206C3
:1047B000E0915006F09151061995809152068111B1
:1047C0000FC081E0809352061092300609C0803CF1
:1047D00009F4A6CF883C09F4A3CF883B09F07BCF2E
:1047E000E091530681E08E0F80935306F0E0E05D88
:1047F000F94F80818093BB009091530680915206BF
:1048000029C0809145078093BB0085EC8093BC0054
:1048100062CF9091670780916607981758F5E091ED
:10482000670781E08E0F80936707F0E0EA5BF84F3F
:104830008081E9CFE091670781E08E0F8093670761
:104840008091BB00F0E0EA5BF84F808390916707AE
:10485000809166079817C8F285E8D8CFE09167077E
:1048600081E08E0F809367078091BB00F0E0EA5BE8
:10487000F84F80838091690781115CCF81E080933C
:10488000440784EA8093BC0010926A0724CF85EC29
:104890008093BC0010926A0780917606803230F4D3
:1048A000E0917606F0E0EA5AF94F108260917606C0
:1048B00070E0E0915406F091550686E596E0199572
:1048C0001092760608CF1092680734CFCF93DF930B
:1048D000EC0186E090E00E944134FC0113821282D8
:1048E000158214821182108299838883DF91CF917F
:1048F0000895E4E9F7E01382128288EE93E0A0E0E5
:10490000B0E084839583A683B78327E832E03183C0
:10491000208325EC30E03587248724EC30E037878E
:10492000268720EC30E0318B208B21EC30E0338B7C
:10493000228B22EC30E0358B248B26EC30E0378B59
:10494000268B118E128E138E148EE1E3F8E0138203
:10495000128284839583A683B78389E992E0918349
:104960008083EDE3F8E08BEA92E09183808312820A
:10497000138214821582E3E4F8E09183808312822B
:10498000138214821582E9E4F8E091838083128215
:10499000138214821582EFE4F8E0918380831282FF
:1049A000138214821582E5E5F8E0918380831282F8
:1049B000138214821582E1E6F8E0918380831282EB
:1049C000138214821582EBE5F8E0918380831282D2
:1049D000138214821582E7E6F8E0918380831282C5
:1049E000138214821582EDE6F8E0918380831282AF
:1049F000138214821582E5EAF8E0918380831282A3
:104A000013821482158283E798E00E94662466EB85
:104A100072E08FE998E00C948018CF93DF93CDB7C4
:104A2000DEB72D970FB6F894DEBF0FBECDBF7894DA
:104A300084B5826084BD84B5816084BD85B58260A3
:104A400085BD85B5816085BD80916E008160809354
:104A50006E001092810080918100826080938100BD
:104A600080918100816080938100809180008160CD
:104A7000809380008091B10084608093B100809128
:104A8000B00081608093B00080919100826080933B
:104A900091008091910081608093910080919000BD
:104AA0008160809390008091A10082608093A1003A
:104AB0008091A10081608093A1008091A00081601D
:104AC0008093A000809121018260809321018091D8
:104AD0002101816080932101809120018160809378
:104AE000200180917A00846080937A0080917A001E
:104AF000826080937A0080917A00816080937A004E
:104B000080917A00806880937A001092C100E091D1
:104B1000A407F091A50782E08083E091A007F091BF
:104B2000A1071082E091A207F091A3078FEC808388
:104B30001092AC07E091A807F091A90786E0808366
:104B4000E091A607F091A707808180618083E091C2
:104B5000A607F091A707808188608083E091A6076F
:104B6000F091A707808180688083E091A607F0918B
:104B7000A70780818F7D808389E693E00E94201BB8
:104B800081E190E00E9441347C0180E492E0D70111
:104B90008D939C9380E893E00E94201B88E190E035
:104BA0000E9441348C01FC011382128284E392E062
:104BB0009183808385E284838FEF858386E2868379
:104BC00083E2878382E2808781E2818780E2828735
:104BD0001386148615861686178661E0C8010E9422
:104BE0008A0CD7011E961C930E931D9789E090E0C6
:104BF0000E944134FC0118E4812E12E0912E918232
:104C00008082108684E290E09783868313821282EA
:104C100002E0A02EB12CB582A482D7015096FC935D
:104C2000EE931F9783E7C82E88E0D82EB7018091B6
:104C30007308909174080E940418F0927608E0922C
:104C4000750882E090E00E9441348C0180E592E09A
:104C5000F80191838083B801809173089091740862
:104C60000E94041810938808009387088BE090E056
:104C70000E9441347C01DC0118961C9218978DE04B
:104C800090E017969C938E93169701E010E0139690
:104C90001C930E9312971596BC92AE92149798E4BB
:104CA000692E92E0792E11967C926E921A961C9241
:104CB0001E92199770E060E0C7010E94540AB70184
:104CC00080917308909174080E940418F0927808FB
:104CD000E09277088BE090E00E9441347C01FC0177
:104CE000108683E090E09783868313830283B582E6
:104CF000A482718260821286118670E060E0C70132
:104D00000E94540AB70180917308909174080E9420
:104D10000418F0927A08E09279088BE090E00E9403
:104D200041347C01DC0118961C92189784E090E0D5
:104D300017969C938E93169713961C930E93129727
:104D40001596BC92AE92149711967C926E921A961A
:104D50001C921E92199770E060E0C7010E94540AED
:104D6000B70180917308909174080E940418F09222
:104D70007C08E0927B088BE090E00E9441347C014B
:104D8000FC011086B782A68213830283B582A482B7
:104D9000718260821286118670E060E00E94540A7F
:104DA000B70180917308909174080E940418F092E2
:104DB0007E08E0927D0889E090E00E9441347C0109
:104DC000DC0111969C928E9218961C92189787E09F
:104DD00090E017969C938E93169713961C930E93C0
:104DE00012971596BC92AE92149760E00E949703BA
:104DF000B70180917308909174080E940418F09292
:104E00008208E092810889E090E00E9441347C01B0
:104E1000FC0191828082108689E090E097838683EE
:104E20001383028315830483B701809173089091E3
:104E300074080E940418F0928008E0927F0889E0CC
:104E400090E00E9441347C01DC0111969C928E928C
:104E500018961C92189788E090E017969C938E9372
:104E6000169713961C930E93129715961C930E93F8
:104E70001497B70180917308909174080E940418E8
:104E8000F0928408E092830889E090E00E94413427
:104E90007C01FC0191828082108686E090E09783FD
:104EA000868313830283B582A48260E00E94970305
:104EB000B70180917308909174080E940418F092D1
:104EC0008608E09285088FE190E00E9441347C01E1
:104ED000DC0118961C92189785E490E017969C9335
:104EE0008E93169713961C921E92129715961C93EA
:104EF0000E9314978CE292E011969C938E9387E325
:104F000019968C93199756961C9256971B961C923D
:104F10001E921A971D961C921E921C97B7018091A3
:104F20007308909174080E940418F0928A08E09225
:104F3000890882E090E00E9441348C010E9466243E
:104F400010938C0800938B0882E090E00E9441341B
:104F50008C010E946624109396080093950886E0C1
:104F600090E00E944134FC01D182C08284E99BE040
:104F70009383828315821482F0938E08E0938D08C8
:104F800086E090E00E944134FC01D182C08287E734
:104F90009DE19383828315821482F0939208E093BB
:104FA000910886E090E00E944134FC01D182C082E9
:104FB00081EA9BE09383828315821482F0939008A8
:104FC000E0938F0886E090E00E944134FC01D1829A
:104FD000C08286E790E29383828315821482F093E5
:104FE0009408E093930886E090E00E944134FC012D
:104FF000D182C0828DEA9FE19383828315821482DD
:10500000F0939808E093970886E090E00E9441347E
:10501000FC01D182C0828BEB9CE193838283158259
:105020001482F0939C08E0939B0886E090E00E9435
:105030004134FC01D182C0828DE59FE1938382835C
:1050400015821482F0939A08E093990886E090E024
:105050000E944134FC01D182C08286EF9CE193839F
:10506000828315821482F0939E08E0939D088DE858
:1050700093E00E94201BE0917308F0917408E08097
:10508000F18010E000E0E0917308F09174088081F5
:1050900091810E151F05FCF408171907CCF4028046
:1050A000F381E02D90E080E00817190729F00480D3
:1050B000F581E02D0196F8CF80819181DC01ED91A1
:1050C000FC910190F081E02D19950F5F1F4FDBCF10
:1050D00090E080E0F3CF0E94A61A8DE993E00E9451
:1050E000201B0091750810917608F801858596853A
:1050F0000E94820C40E060E0D8011D968D919C9149
:105100000E94740C6FEB73E0F801858596850E9410
:105110002C1D41E060E0D8011D968D919C910E946C
:10512000740C6FEC73E0F801858596850E942C1D48
:1051300068EB7BE080E090E00E9426048091770895
:10514000909178080E942B0B80EE93E00E94201B28
:105150000091750810917608D8011D968D919C914B
:105160000E94820C6FEF73E0F801858596850E949E
:105170002C1D8091E10681112AC01092C90610925F
:10518000C80688EE93E0A0E0B0E08093CA06909352
:10519000CB06A093CC06B093CD068DE592E090931C
:1051A000C7068093C6068BEA92E09093D50680935B
:1051B000D4061092D6061092D7061092D8061092F6
:1051C000D90688E08093DE0681E08093E10683E8DB
:1051D00096E09093820680938106809180068823D2
:1051E00009F494C280E591E00E94DF0146E050E0BE
:1051F00060E172E089E090E00E9479078BEA92E03A
:105200009A8389831B821C821D821E8244E050E0A7
:10521000BE016D5F7F4F8FE090E00E947907109292
:10522000A5061092A6061092A7061092A806109244
:10523000A9061092AA061092AB061092AC06109224
:10524000AD061092AE061092AF061092B00680E640
:105250009AEEA0E0B0E08093B9069093BA06A093CE
:10526000BB06B093BC0680EA9FE0A0E0B0E080936C
:10527000BD069093BE06A093BF06B093C006E1E9B9
:10528000F6E084E1DF011D928A95E9F786E0E0E12E
:10529000F2E0ABE8B6E001900D928A95E1F710924A
:1052A000C5060E942F312FEC37E040E050E00E940D
:1052B000B732DC01CB010196A11DB11D8093870699
:1052C00090938806A0938906B0938A0680938306FC
:1052D00090938406A0938506B093860686EC96E0AC
:1052E0000E94570F64E470E086EC96E00E948D13F4
:1052F000882309F40FC20E9458046B017C01A8EEB8
:105300004A2EA3E05A2E612C712CB3E09B2E02E0B2
:10531000B12CA12C8091C506833009F440C08111C5
:1053200053C28091870690918806A0918906B0911A
:105330008A060196A11DB11D809387069093880669
:10534000A0938906B0938A060E9458046C197D09BF
:105350008E099F09A30192010E94E932A90161E02F
:1053600083E896E00E94F61681E08093C50691E0FE
:10537000A916B10479F20E9458046C197D098E09AE
:105380009F092091B9063091BA064091BB06509111
:10539000BC06261737074807590708F0B9CF86EC2F
:1053A00096E00E94570F8091870690918806A09101
:1053B0008906B0918A060196A11DB11D80938706CA
:1053C00090938806A0938906B0938A060E94580499
:1053D0006093C1067093C2068093C3069093C4067F
:1053E000AA94AB2809F096C180E591E00E94DF0104
:1053F0000091810610918206B801625F7F4FCE0155
:1054000001960E943B0D44E050E0BE016D5F7F4F6E
:105410008FE090E00E947907B8016A5E7F4FCE016D
:1054200001960E943B0D44E050E0BE016D5F7F4F4E
:1054300081E090E00E947907B8016E5E7F4FCE0157
:1054400001960E943B0D44E050E0BE016D5F7F4F2E
:1054500085E090E00E947907B801625E7F4FCE013F
:1054600001960E943B0D8B819C81AD81BE81809312
:105470005D0890935E08A0935F08B09360080E9457
:1054800001047F7380911602909117026827792793
:10549000709317026093160260E174E084E997E06C
:1054A0000E942C1D2BEAE22E22E0F22EFA82E982E3
:1054B0001B821C821D821E8280E591E00E94DF011A
:1054C00044E050E0BE016D5F7F4F8FE090E00E94AE
:1054D000740D64E977E0CE0101960E94DA1A64EB5C
:1054E00072E084E997E00E944B1A009175081091D0
:1054F0007608FA82E9821B821C821D821E8280E568
:1055000091E00E94DF0144E050E0BE016D5F7F4FFB
:105510008FE090E00E94740D41E060E0F801858525
:1055200096850E94740CD8011D966D917C91CE01D8
:1055300001960E94DA1A68EB7BE080E090E00E941E
:1055400026040091750810917608F80185859685E6
:105550000E94820C40E060E0D8011D968D919C91E4
:105560000E94740C6FEB73E0F801858596850E94AC
:105570002C1D41E060E0D8011D968D919C910E9408
:10558000740C6CE175E0F801858596850E942C1DF0
:105590008BE295E00E94201B80917508909176081F
:1055A0000D960E94E31D00918B0810918C08C0900D
:1055B0009108D0909208E0908D08F0908E086EE3EC
:1055C00075E0CE0101960E9480189601A701BE01E8
:1055D0006F5F7F4FC8010E948A19CE0101960E9419
:1055E000330D00918B0810918C08C0909308D090D7
:1055F0009408E0908F08F090900868E475E0CE0180
:1056000001960E9480189601A701BE016F5F7F4F2F
:10561000C8010E948A19CE0101960E94330D0091A3
:10562000950810919608C0909B08D0909C08E09037
:105630009708F090980860E575E0CE0101960E9409
:1056400080189601A701BE016F5F7F4FC8010E94BD
:10565000B118CE0101960E94330D0091950810916A
:105660009608C0909D08D0909E08E0909908F09010
:105670009A0860E675E0CE0101960E9480189601B6
:10568000A701BE016F5F7F4FC8010E94B118CE0114
:1056900001960E94330D64EF71E080E090E00E947B
:1056A00026048DE695E00E94201B88E6282E9AE0CD
:1056B000392E84E997E00E945A02181619060CF058
:1056C0009FC266EB72E0CE0101960E9480180E9494
:1056D000640497FDDAC1888719860D811E810F5FEA
:1056E0001F4FB801CE0101960E942E18882379F32E
:1056F00029813A818D819E81BE01685F7F4F820F33
:10570000931F0E946D361E830D83E1CF0E942A0EE7
:10571000811168CD84E294E00E94201BE091230770
:10572000E353E53030F4F0E0EC5AFD4F8081811115
:105730004DC18CE494E00E94201B009175081091EB
:105740007608F801858596850E94820C62E974E0EE
:10575000D8011D968D919C910E942C1D41E060E026
:10576000F801858596850E94740C6EE974E0D80175
:105770001D968D919C910E942C1D68EB7BE080E032
:1057800090E00E9426040091750810917608F801B7
:10579000858596850E94820C6BEF74E0D8011D967A
:1057A0008D919C910E942C1D41E060E0F80185855F
:1057B00096850E94740C6CE075E0D8011D968D9161
:1057C0009C910E942C1DB7CE843031F580918706C4
:1057D00090918806A0918906B0918A060196A11D34
:1057E000B11D8093870690938806A0938906B09395
:1057F0008A060E9458046C197D098E099F09A3012D
:1058000092010E94E932A90163E083E896E00E94D8
:10581000F6160093C506ABCD813091F54091BD06DB
:105820005091BE066091BF067091C0069E012F5F29
:105830003F4F83E896E00E94F920182F823009F04C
:10584000C1C089819A81AB81BC8180938706909386
:105850008806A0938906B0938A060E9458046C19A2
:105860007D098E099F09A30192010E94E932A901D5
:1058700063E083E896E00E94F6161093C50677CDA4
:10588000823009F074CD4091BD065091BE06609102
:10589000BF067091C0069E012F5F3F4F83E896E0E0
:1058A0000E94F920182F853009F087C09092C50614
:1058B0008091A5069091A606A091A706B091A80692
:1058C000892B8A2B8B2B61F484E893E0A0E0B0E075
:1058D0008093A5069093A606A093A706B093A8066A
:1058E0008091A9069091AA06A091AB06B091AC0652
:1058F000892B8A2B8B2BA1F48091A5069091A6066B
:10590000A091A706B091A806B695A79597958795FB
:105910008093A9069093AA06A093AB06B093AC0619
:105920008091AD069091AE06A091AF06B091B00601
:10593000892B8A2B8B2BE9F48091A5069091A606E2
:10594000A091A706B091A806AC01BD01E3E0769551
:10595000679557954795EA95D1F7841B950BA60B4C
:10596000B70B8093AD069093AE06A093AF06B093AD
:10597000B0068091A9069091AA06A091AB06B091BD
:10598000AC068093B1069093B206A093B306B09391
:10599000B4068091AD069091AE06A091AF06B0918D
:1059A000B0068093B5069093B606A093B706B09361
:1059B000B806AA24A394B12CDACC863019F410923C
:1059C000C506D5CC1F3F09F0D2CCF9CF8091800617
:1059D000882311F180912307843319F1873309F467
:1059E00049C00091750810917608F8018585968563
:1059F0000E94820C6EED74E0D8011D968D919C91F1
:105A00000E942C1D41E060E0F801858596850E948A
:105A1000740C6EEE74E0ABCE0E942A0E8111DACFC8
:105A2000E0CF80E591E00E94DF0185E390E00E94F5
:105A3000FF0D85FDD6CF8FEA94E00E94201B0091D8
:105A4000750810917608F801858596850E94820C6C
:105A500062E974E0D8011D968D919C910E942C1DE5
:105A600041E060E0F801858596850E94740C60ED48
:105A700074E07DCE80E591E00E94DF018EE290E04F
:105A80000E94FF0D80FDADCFD6CF80919F089091F1
:105A9000A008009709F4EFC069817A81611571054A
:105AA00009F4E7C04091A1085091A2082D813E81E0
:105AB0004217530708F4DDC00E946D368D819E8128
:105AC0009093A4088093A3081E821D82CE010196A4
:105AD0000E94330DC0909F08D090A008C114D1043B
